{
  "contractName": "BalanceSheet",
  "abi": [
    {
      "inputs": [
        {
          "name": "_dao",
          "type": "address"
        }
      ],
      "payable": false,
      "stateMutability": "nonpayable",
      "type": "constructor"
    },
    {
      "anonymous": false,
      "inputs": [
        {
          "indexed": false,
          "name": "_asset",
          "type": "bytes32"
        },
        {
          "indexed": false,
          "name": "amount",
          "type": "int256"
        }
      ],
      "name": "SetAssets",
      "type": "event"
    },
    {
      "anonymous": false,
      "inputs": [
        {
          "indexed": false,
          "name": "_liabilities",
          "type": "bytes32"
        },
        {
          "indexed": false,
          "name": "amount",
          "type": "int256"
        }
      ],
      "name": "SetLiabilities",
      "type": "event"
    },
    {
      "anonymous": false,
      "inputs": [
        {
          "indexed": false,
          "name": "_equity",
          "type": "bytes32"
        },
        {
          "indexed": false,
          "name": "amount",
          "type": "int256"
        }
      ],
      "name": "SetEquity",
      "type": "event"
    },
    {
      "constant": false,
      "inputs": [
        {
          "name": "_asset",
          "type": "bytes32"
        },
        {
          "name": "amount",
          "type": "int256"
        }
      ],
      "name": "setAssets",
      "outputs": [],
      "payable": false,
      "stateMutability": "nonpayable",
      "type": "function"
    },
    {
      "constant": false,
      "inputs": [
        {
          "name": "_liabilities",
          "type": "bytes32"
        },
        {
          "name": "amount",
          "type": "int256"
        }
      ],
      "name": "setLiabilities",
      "outputs": [],
      "payable": false,
      "stateMutability": "nonpayable",
      "type": "function"
    },
    {
      "constant": false,
      "inputs": [
        {
          "name": "_equity",
          "type": "bytes32"
        },
        {
          "name": "amount",
          "type": "int256"
        }
      ],
      "name": "setEquity",
      "outputs": [],
      "payable": false,
      "stateMutability": "nonpayable",
      "type": "function"
    },
    {
      "constant": true,
      "inputs": [
        {
          "name": "_asset",
          "type": "bytes32"
        }
      ],
      "name": "getAsset",
      "outputs": [
        {
          "name": "",
          "type": "int256"
        }
      ],
      "payable": false,
      "stateMutability": "view",
      "type": "function"
    },
    {
      "constant": true,
      "inputs": [
        {
          "name": "_liability",
          "type": "bytes32"
        }
      ],
      "name": "getLiability",
      "outputs": [
        {
          "name": "",
          "type": "int256"
        }
      ],
      "payable": false,
      "stateMutability": "view",
      "type": "function"
    },
    {
      "constant": true,
      "inputs": [
        {
          "name": "_equity",
          "type": "bytes32"
        }
      ],
      "name": "getEquity",
      "outputs": [
        {
          "name": "",
          "type": "int256"
        }
      ],
      "payable": false,
      "stateMutability": "view",
      "type": "function"
    },
    {
      "constant": true,
      "inputs": [],
      "name": "getDao",
      "outputs": [
        {
          "name": "",
          "type": "address"
        }
      ],
      "payable": false,
      "stateMutability": "view",
      "type": "function"
    }
  ],
  "bytecode": "0x60806040526102c860005561059060015561085860025561216060035534801561002857600080fd5b506040516020806106fa8339810180604052810190808051906020019092919050505080600560006101000a81548173ffffffffffffffffffffffffffffffffffffffff021916908373ffffffffffffffffffffffffffffffffffffffff1602179055504260048190555050610657806100a36000396000f300608060405260043610610083576000357c0100000000000000000000000000000000000000000000000000000000900463ffffffff168063011420b8146100885780632cc3ce80146100cd578063979042d4146101125780639e7a6a281461014d578063b70811bc14610192578063c29cad17146101e9578063ee87fbf214610224575b600080fd5b34801561009457600080fd5b506100b7600480360381019080803560001916906020019092919050505061025f565b6040518082815260200191505060405180910390f35b3480156100d957600080fd5b506100fc6004803603810190808035600019169060200190929190505050610284565b6040518082815260200191505060405180910390f35b34801561011e57600080fd5b5061014b6004803603810190808035600019169060200190929190803590602001909291905050506102a9565b005b34801561015957600080fd5b5061017c60048036038101908080356000191690602001909291905050506103ba565b6040518082815260200191505060405180910390f35b34801561019e57600080fd5b506101a76103df565b604051808273ffffffffffffffffffffffffffffffffffffffff1673ffffffffffffffffffffffffffffffffffffffff16815260200191505060405180910390f35b3480156101f557600080fd5b50610222600480360381019080803560001916906020019092919080359060200190929190505050610409565b005b34801561023057600080fd5b5061025d60048036038101908080356000191690602001909291908035906020019092919050505061051a565b005b6000600760008360001916600019168152602001908152602001600020549050919050565b6000600660008360001916600019168152602001908152602001600020549050919050565b600560009054906101000a900473ffffffffffffffffffffffffffffffffffffffff1673ffffffffffffffffffffffffffffffffffffffff163373ffffffffffffffffffffffffffffffffffffffff1614151561030557600080fd5b6000603c6018603c80600454420381151561031c57fe5b0481151561032657fe5b0481151561033057fe5b0481151561033a57fe5b049050600254811115151561034e57600080fd5b81600860008560001916600019168152602001908152602001600020819055507fb31623be2b574718b65d425443e6dbce0f58241b938a556616283e286c6b320983836040518083600019166000191681526020018281526020019250505060405180910390a1505050565b6000600860008360001916600019168152602001908152602001600020549050919050565b6000600560009054906101000a900473ffffffffffffffffffffffffffffffffffffffff16905090565b600560009054906101000a900473ffffffffffffffffffffffffffffffffffffffff1673ffffffffffffffffffffffffffffffffffffffff163373ffffffffffffffffffffffffffffffffffffffff1614151561046557600080fd5b6000603c6018603c80600454420381151561047c57fe5b0481151561048657fe5b0481151561049057fe5b0481151561049a57fe5b04905060025481111515156104ae57600080fd5b81600660008560001916600019168152602001908152602001600020819055507fd1d33b0fcf70e5e8521382ead155ed9179d4c80f5963c75cf428510faef9999783836040518083600019166000191681526020018281526020019250505060405180910390a1505050565b600560009054906101000a900473ffffffffffffffffffffffffffffffffffffffff1673ffffffffffffffffffffffffffffffffffffffff163373ffffffffffffffffffffffffffffffffffffffff1614151561057657600080fd5b6000603c6018603c80600454420381151561058d57fe5b0481151561059757fe5b048115156105a157fe5b048115156105ab57fe5b04905060025481111515156105bf57600080fd5b81600760008560001916600019168152602001908152602001600020819055507f6a676f68ea295cd2fd63fce9da70d159f6020d75b54ea936921df4f6317f4bbc83836040518083600019166000191681526020018281526020019250505060405180910390a15050505600a165627a7a7230582056995c358bca35ef9d232f0135e6740f04cb5a0132d3ed35d9129ac95e1773ff0029",
  "source": "pragma solidity 0.4.24;\n\nimport \"contracts/interfaces/IBalanceSheet.sol\";\n\ncontract BalanceSheet is IBalanceSheet {\n\n  //Constants\n\n  uint256 month = 712;\n  uint256 twoMonths = 1424;\n  uint256 quarter = 2136;\n  uint256 year = 8544;\n\n  //Misscellanous\n\n  uint256 startTime;\n\n  address dao;\n\n  mapping(bytes32 => int256) detailedAssets;\n  mapping(bytes32 => int256) detailedLiabilities;\n  mapping(bytes32 => int256) detailedEquity;\n\n  modifier onlyDAO {\n\n    require(msg.sender == dao);\n    _;\n\n  }\n\n  modifier inQuarter {\n\n    uint _hours = (now - startTime) / 60 / 60 / 24 / 60;\n\n    require(_hours <= quarter);\n\n    _;\n\n  }\n\n  constructor(address _dao) {\n\n    dao = _dao;\n\n    startTime = now;\n\n  }\n\n  /**\n  * @notice Set an asset value\n  * @param _asset The asset to be updated\n  * @param amount The amount to be set\n  */\n\n  function setAssets(bytes32 _asset, int256 amount) public onlyDAO inQuarter {\n\n    detailedAssets[_asset] = amount;\n\n    emit SetAssets(_asset, amount);\n\n  }\n\n  /**\n  * @notice Set a liability value\n  * @param _liabilities The liability to be updated\n  * @param amount The amount to be set\n  */\n\n  function setLiabilities(bytes32 _liabilities, int256 amount) public onlyDAO inQuarter {\n\n    detailedLiabilities[_liabilities] = amount;\n\n    emit SetLiabilities(_liabilities, amount);\n\n  }\n\n  /**\n  * @notice Set an equity value\n  * @param _equity The equity to be updated\n  * @param amount The amount to be set\n  */\n\n  function setEquity(bytes32 _equity, int256 amount) public onlyDAO inQuarter {\n\n    detailedEquity[_equity] = amount;\n\n    emit SetEquity(_equity, amount);\n\n  }\n\n  //GETTERS\n\n  /**\n  * @dev Get the value of an asset\n  */\n\n  function getAsset(bytes32 _asset) public view returns (int256) {\n\n    return detailedAssets[_asset];\n\n  }\n\n  /**\n  * @dev Get the value of a liability\n  */\n\n  function getLiability(bytes32 _liability) public view returns (int256) {\n\n    return detailedLiabilities[_liability];\n\n  }\n\n  /**\n  * @dev Get the value of an equity\n  */\n\n  function getEquity(bytes32 _equity) public view returns (int256) {\n\n    return detailedEquity[_equity];\n\n  }\n\n  /**\n  * @dev Get the Dao controlling this balance sheet\n  */\n\n  function getDao() public view returns (address) {\n\n    return dao;\n\n  }\n\n}\n",
  "sourcePath": "/home/stefan/Work/TransparentDao/contracts/accounting/statements/BalanceSheet.sol",
  "compiler": {
    "name": "solc",
    "version": "0.4.24+commit.e67f0147.Emscripten.clang"
  },
  "schemaVersion": "2.0.1",
  "updatedAt": "2018-12-20T23:25:27.031Z"
}