{
  "contractName": "BalanceSheet",
  "abi": [
    {
      "inputs": [
        {
          "name": "_dao",
          "type": "address"
        }
      ],
      "payable": false,
      "stateMutability": "nonpayable",
      "type": "constructor"
    },
    {
      "anonymous": false,
      "inputs": [
        {
          "indexed": false,
          "name": "_asset",
          "type": "string"
        },
        {
          "indexed": false,
          "name": "amount",
          "type": "int256"
        }
      ],
      "name": "SetAssets",
      "type": "event"
    },
    {
      "anonymous": false,
      "inputs": [
        {
          "indexed": false,
          "name": "_liabilities",
          "type": "string"
        },
        {
          "indexed": false,
          "name": "amount",
          "type": "int256"
        }
      ],
      "name": "SetLiabilities",
      "type": "event"
    },
    {
      "anonymous": false,
      "inputs": [
        {
          "indexed": false,
          "name": "_equity",
          "type": "string"
        },
        {
          "indexed": false,
          "name": "amount",
          "type": "int256"
        }
      ],
      "name": "SetEquity",
      "type": "event"
    },
    {
      "constant": false,
      "inputs": [
        {
          "name": "_asset",
          "type": "string"
        },
        {
          "name": "amount",
          "type": "int256"
        }
      ],
      "name": "setAssets",
      "outputs": [],
      "payable": false,
      "stateMutability": "nonpayable",
      "type": "function"
    },
    {
      "constant": false,
      "inputs": [
        {
          "name": "_liabilities",
          "type": "string"
        },
        {
          "name": "amount",
          "type": "int256"
        }
      ],
      "name": "setLiabilities",
      "outputs": [],
      "payable": false,
      "stateMutability": "nonpayable",
      "type": "function"
    },
    {
      "constant": false,
      "inputs": [
        {
          "name": "_equity",
          "type": "string"
        },
        {
          "name": "amount",
          "type": "int256"
        }
      ],
      "name": "setEquity",
      "outputs": [],
      "payable": false,
      "stateMutability": "nonpayable",
      "type": "function"
    },
    {
      "constant": true,
      "inputs": [],
      "name": "getMarginOfSafety",
      "outputs": [
        {
          "name": "",
          "type": "int256"
        }
      ],
      "payable": false,
      "stateMutability": "view",
      "type": "function"
    },
    {
      "constant": true,
      "inputs": [],
      "name": "getAcidTestResult",
      "outputs": [
        {
          "name": "",
          "type": "int256"
        }
      ],
      "payable": false,
      "stateMutability": "view",
      "type": "function"
    },
    {
      "constant": true,
      "inputs": [
        {
          "name": "_asset",
          "type": "string"
        }
      ],
      "name": "getAsset",
      "outputs": [
        {
          "name": "",
          "type": "int256"
        }
      ],
      "payable": false,
      "stateMutability": "view",
      "type": "function"
    },
    {
      "constant": true,
      "inputs": [
        {
          "name": "_liability",
          "type": "string"
        }
      ],
      "name": "getLiability",
      "outputs": [
        {
          "name": "",
          "type": "int256"
        }
      ],
      "payable": false,
      "stateMutability": "view",
      "type": "function"
    },
    {
      "constant": true,
      "inputs": [
        {
          "name": "_equity",
          "type": "string"
        }
      ],
      "name": "getEquity",
      "outputs": [
        {
          "name": "",
          "type": "int256"
        }
      ],
      "payable": false,
      "stateMutability": "view",
      "type": "function"
    }
  ],
  "bytecode": "0x608060405262271c80600055624e3900600155627555806002556301d5560060035534801561002d57600080fd5b50604051602080610b308339810180604052810190808051906020019092919050505080600560006101000a81548173ffffffffffffffffffffffffffffffffffffffff021916908373ffffffffffffffffffffffffffffffffffffffff1602179055504260048190555050610a88806100a86000396000f30060806040526004361061008e576000357c0100000000000000000000000000000000000000000000000000000000900463ffffffff1680630ce9334b1461009357806331496821146101105780635a9b66d71461018d57806367fc01fa1461020057806391017d421461022b578063aa389c7e1461029e578063cd5286d014610311578063ee7e66661461038e575b600080fd5b34801561009f57600080fd5b506100fa600480360381019080803590602001908201803590602001908080601f01602080910402602001604051908101604052809392919081815260200183838082843782019150505050505091929192905050506103b9565b6040518082815260200191505060405180910390f35b34801561011c57600080fd5b50610177600480360381019080803590602001908201803590602001908080601f016020809104026020016040519081016040528093929190818152602001838380828437820191505050505050919291929050505061042e565b6040518082815260200191505060405180910390f35b34801561019957600080fd5b506101fe600480360381019080803590602001908201803590602001908080601f0160208091040260200160405190810160405280939291908181526020018383808284378201915050505050509192919290803590602001909291905050506104a3565b005b34801561020c57600080fd5b50610215610661565b6040518082815260200191505060405180910390f35b34801561023757600080fd5b5061029c600480360381019080803590602001908201803590602001908080601f016020809104026020016040519081016040528093929190818152602001838380828437820191505050505050919291929080359060200190929190505050610666565b005b3480156102aa57600080fd5b5061030f600480360381019080803590602001908201803590602001908080601f016020809104026020016040519081016040528093929190818152602001838380828437820191505050505050919291929080359060200190929190505050610824565b005b34801561031d57600080fd5b50610378600480360381019080803590602001908201803590602001908080601f01602080910402602001604051908101604052809392919081815260200183838082843782019150505050505091929192905050506109e2565b6040518082815260200191505060405180910390f35b34801561039a57600080fd5b506103a3610a57565b6040518082815260200191505060405180910390f35b60006007826040518082805190602001908083835b6020831015156103f357805182526020820191506020810190506020830392506103ce565b6001836020036101000a0380198251168184511680821785525050505050509050019150509081526020016040518091039020549050919050565b60006008826040518082805190602001908083835b6020831015156104685780518252602082019150602081019050602083039250610443565b6001836020036101000a0380198251168184511680821785525050505050509050019150509081526020016040518091039020549050919050565b600560009054906101000a900473ffffffffffffffffffffffffffffffffffffffff1673ffffffffffffffffffffffffffffffffffffffff163373ffffffffffffffffffffffffffffffffffffffff161415156104ff57600080fd5b6000603c6018603c80600454420381151561051657fe5b0481151561052057fe5b0481151561052a57fe5b0481151561053457fe5b049050600254811115151561054857600080fd5b816006846040518082805190602001908083835b602083101515610581578051825260208201915060208101905060208303925061055c565b6001836020036101000a0380198251168184511680821785525050505050509050019150509081526020016040518091039020819055507f710243991929910d356d0abcb8194c0a8fc7b9f81e9fd02d4164d009a091d77b83836040518080602001838152602001828103825284818151815260200191508051906020019080838360005b83811015610621578082015181840152602081019050610606565b50505050905090810190601f16801561064e5780820380516001836020036101000a031916815260200191505b50935050505060405180910390a1505050565b600090565b600560009054906101000a900473ffffffffffffffffffffffffffffffffffffffff1673ffffffffffffffffffffffffffffffffffffffff163373ffffffffffffffffffffffffffffffffffffffff161415156106c257600080fd5b6000603c6018603c8060045442038115156106d957fe5b048115156106e357fe5b048115156106ed57fe5b048115156106f757fe5b049050600254811115151561070b57600080fd5b816006846040518082805190602001908083835b602083101515610744578051825260208201915060208101905060208303925061071f565b6001836020036101000a0380198251168184511680821785525050505050509050019150509081526020016040518091039020819055507fa78c87c3a8b077758fcb9720389b4895816e3e3ad54d1c0577c40e753518e0d283836040518080602001838152602001828103825284818151815260200191508051906020019080838360005b838110156107e45780820151818401526020810190506107c9565b50505050905090810190601f1680156108115780820380516001836020036101000a031916815260200191505b50935050505060405180910390a1505050565b600560009054906101000a900473ffffffffffffffffffffffffffffffffffffffff1673ffffffffffffffffffffffffffffffffffffffff163373ffffffffffffffffffffffffffffffffffffffff1614151561088057600080fd5b6000603c6018603c80600454420381151561089757fe5b048115156108a157fe5b048115156108ab57fe5b048115156108b557fe5b04905060025481111515156108c957600080fd5b816006846040518082805190602001908083835b60208310151561090257805182526020820191506020810190506020830392506108dd565b6001836020036101000a0380198251168184511680821785525050505050509050019150509081526020016040518091039020819055507fca60e43b2b8ded54860fefe655159e0c656dc9076b570ec28d18092ec4453b9483836040518080602001838152602001828103825284818151815260200191508051906020019080838360005b838110156109a2578082015181840152602081019050610987565b50505050905090810190601f1680156109cf5780820380516001836020036101000a031916815260200191505b50935050505060405180910390a1505050565b60006006826040518082805190602001908083835b602083101515610a1c57805182526020820191506020810190506020830392506109f7565b6001836020036101000a0380198251168184511680821785525050505050509050019150509081526020016040518091039020549050919050565b6000905600a165627a7a72305820b711737b905ef5dfa9aa729d1782edab39a899dd59dc9d9daaa1f562f8f47f990029",
  "source": "pragma solidity 0.4.24;\n\nimport \"contracts/interfaces/IBalanceSheet.sol\";\n\ncontract BalanceSheet is IBalanceSheet {\n\n  //Constants\n\n  uint256 month = 712 hours;\n  uint256 twoMonths = 1424 hours;\n  uint256 quarter = 2136 hours;\n  uint256 year = 8544 hours;\n\n/*\n  //Assets\n\n  int256 cash;\n\n  int256 marketableSecurities;\n\n  int256 accountsReceivable;\n\n  int256 inventory;\n\n  int256 prepaidExpenses;\n\n  int256 longTermExpenses;\n\n  int256 fixedAssets;\n\n  int256 intangibleAssets;\n\n  int256 shortTermInvestments;\n\n  int256 totalShortTermAssets;\n\n  int256 totalLongTermAssets;\n\n  int256 totalAssets;\n\n  //Liabilities\n\n  int256 currentPortionLongTermDebt;\n\n  int256 bankIndebtedness;\n\n  int256 interestPayable;\n\n  int256 wages;\n\n  int256 longTermDebt;\n\n  int256 totalLiabilities;\n\n  //Equity\n\n  uint256 retainedEarnings;\n\n  uint256 commonCoins;\n\n  uint256 treasuryStock;\n\n  uint256 commonEquity;\n\n  uint256 bookValue;\n\n*/\n\n  //Misscellanous\n\n  uint256 startTime;\n\n  address dao;\n\n  mapping(string => int256) detailedAssets;\n  mapping(string => int256) detailedLiabilities;\n  mapping(string => int256) detailedEquity;\n\n  modifier onlyDAO {\n\n    require(msg.sender == dao);\n    _;\n\n  }\n\n  modifier inQuarter {\n\n    uint _hours = (now - startTime) / 60 / 60 / 24 / 60;\n\n    require(_hours <= quarter);\n\n    _;\n\n  }\n\n  constructor(address _dao) {\n\n    dao = _dao;\n\n    startTime = now;\n\n  }\n\n  function setAssets(string _asset, int256 amount) public onlyDAO inQuarter {\n\n    detailedAssets[_asset] = amount;\n\n    emit SetAssets(_asset, amount);\n\n  }\n\n  function setLiabilities(string _liabilities, int256 amount) public onlyDAO inQuarter {\n\n    detailedAssets[_liabilities] = amount;\n\n    emit SetLiabilities(_liabilities, amount);\n\n  }\n\n  function setEquity(string _equity, int256 amount) public onlyDAO inQuarter {\n\n    detailedAssets[_equity] = amount;\n\n    emit SetEquity(_equity, amount);\n\n  }\n\n  //GETTERS\n\n  function getMarginOfSafety() public view returns (int256) {\n\n\n\n  }\n\n  function getAcidTestResult() public view returns (int256) {\n\n    //(cash + accounts receivable + short term investments) / current liabilities\n\n  }\n\n  function getAsset(string _asset) public view returns (int256) {\n\n    return detailedAssets[_asset];\n\n  }\n\n  function getLiability(string _liability) public view returns (int256) {\n\n    return detailedLiabilities[_liability];\n\n  }\n\n  function getEquity(string _equity) public view returns (int256) {\n\n    return detailedEquity[_equity];\n\n  }\n\n}\n",
  "sourcePath": "contracts/accounting/statements/BalanceSheet.sol",
  "compiler": {
    "name": "solc",
    "version": "0.4.24+commit.e67f0147.Emscripten.clang"
  },
  "schemaVersion": "2.0.1",
  "updatedAt": "2018-12-14T17:21:44.516Z"
}