{
  "contractName": "CashflowStatement",
  "abi": [
    {
      "inputs": [
        {
          "name": "_dao",
          "type": "address"
        }
      ],
      "payable": false,
      "stateMutability": "nonpayable",
      "type": "constructor"
    },
    {
      "anonymous": false,
      "inputs": [
        {
          "indexed": false,
          "name": "earnings",
          "type": "uint256"
        }
      ],
      "name": "UpdatedNetEarnings",
      "type": "event"
    },
    {
      "anonymous": false,
      "inputs": [
        {
          "indexed": false,
          "name": "depreciations",
          "type": "uint256"
        }
      ],
      "name": "UpdatedDepreciations",
      "type": "event"
    },
    {
      "anonymous": false,
      "inputs": [
        {
          "indexed": false,
          "name": "decreases",
          "type": "uint256"
        }
      ],
      "name": "UpdatedDecreasesInAcc",
      "type": "event"
    },
    {
      "anonymous": false,
      "inputs": [
        {
          "indexed": false,
          "name": "increases",
          "type": "uint256"
        }
      ],
      "name": "UpdatedIncreasesInAcc",
      "type": "event"
    },
    {
      "anonymous": false,
      "inputs": [
        {
          "indexed": false,
          "name": "taxes",
          "type": "uint256"
        }
      ],
      "name": "UpdatedIncreasesInTaxes",
      "type": "event"
    },
    {
      "anonymous": false,
      "inputs": [
        {
          "indexed": false,
          "name": "inventory",
          "type": "uint256"
        }
      ],
      "name": "UpdatedIncreasesInInventory",
      "type": "event"
    },
    {
      "anonymous": false,
      "inputs": [
        {
          "indexed": false,
          "name": "updateReason",
          "type": "bytes32"
        },
        {
          "indexed": false,
          "name": "equipment",
          "type": "uint256"
        }
      ],
      "name": "SetEquipmentExpenses",
      "type": "event"
    },
    {
      "anonymous": false,
      "inputs": [
        {
          "indexed": false,
          "name": "charity",
          "type": "uint256"
        }
      ],
      "name": "SetCharity",
      "type": "event"
    },
    {
      "anonymous": false,
      "inputs": [
        {
          "indexed": false,
          "name": "employeeT",
          "type": "bytes32"
        },
        {
          "indexed": false,
          "name": "who",
          "type": "address"
        },
        {
          "indexed": false,
          "name": "payment",
          "type": "uint256"
        }
      ],
      "name": "AddedNonRecurrentSalary",
      "type": "event"
    },
    {
      "anonymous": false,
      "inputs": [
        {
          "indexed": false,
          "name": "employee",
          "type": "address"
        },
        {
          "indexed": false,
          "name": "salary",
          "type": "uint256"
        }
      ],
      "name": "AddedRecurrentSalary",
      "type": "event"
    },
    {
      "anonymous": false,
      "inputs": [
        {
          "indexed": false,
          "name": "employee",
          "type": "address"
        }
      ],
      "name": "DeletedRecurrentSalary",
      "type": "event"
    },
    {
      "anonymous": false,
      "inputs": [
        {
          "indexed": false,
          "name": "reason",
          "type": "bytes32"
        },
        {
          "indexed": false,
          "name": "howMuch",
          "type": "uint256"
        }
      ],
      "name": "AddedRent",
      "type": "event"
    },
    {
      "anonymous": false,
      "inputs": [
        {
          "indexed": false,
          "name": "reason",
          "type": "bytes32"
        },
        {
          "indexed": false,
          "name": "howMuch",
          "type": "uint256"
        }
      ],
      "name": "AddedIncomeTax",
      "type": "event"
    },
    {
      "anonymous": false,
      "inputs": [
        {
          "indexed": false,
          "name": "_type",
          "type": "bytes32"
        },
        {
          "indexed": false,
          "name": "receiver",
          "type": "address"
        },
        {
          "indexed": false,
          "name": "amount",
          "type": "uint256"
        }
      ],
      "name": "AddedInterestPayment",
      "type": "event"
    },
    {
      "anonymous": false,
      "inputs": [
        {
          "indexed": false,
          "name": "dividents",
          "type": "uint256"
        }
      ],
      "name": "UpdatedDividents",
      "type": "event"
    },
    {
      "constant": false,
      "inputs": [
        {
          "name": "earnings",
          "type": "uint256"
        }
      ],
      "name": "updateNetEarnings",
      "outputs": [],
      "payable": false,
      "stateMutability": "nonpayable",
      "type": "function"
    },
    {
      "constant": false,
      "inputs": [
        {
          "name": "_depreciations",
          "type": "uint256"
        }
      ],
      "name": "updateDepreciations",
      "outputs": [],
      "payable": false,
      "stateMutability": "nonpayable",
      "type": "function"
    },
    {
      "constant": false,
      "inputs": [
        {
          "name": "decreases",
          "type": "uint256"
        }
      ],
      "name": "updateDecreasesInAcc",
      "outputs": [],
      "payable": false,
      "stateMutability": "nonpayable",
      "type": "function"
    },
    {
      "constant": false,
      "inputs": [
        {
          "name": "increases",
          "type": "uint256"
        }
      ],
      "name": "updateIncreasesInAcc",
      "outputs": [],
      "payable": false,
      "stateMutability": "nonpayable",
      "type": "function"
    },
    {
      "constant": false,
      "inputs": [
        {
          "name": "taxes",
          "type": "uint256"
        }
      ],
      "name": "updateIncreaseInTaxes",
      "outputs": [],
      "payable": false,
      "stateMutability": "nonpayable",
      "type": "function"
    },
    {
      "constant": false,
      "inputs": [
        {
          "name": "dividents",
          "type": "uint256"
        }
      ],
      "name": "updateDividentsPaid",
      "outputs": [],
      "payable": false,
      "stateMutability": "nonpayable",
      "type": "function"
    },
    {
      "constant": false,
      "inputs": [
        {
          "name": "inventory",
          "type": "uint256"
        }
      ],
      "name": "updateIncreaseInInventory",
      "outputs": [],
      "payable": false,
      "stateMutability": "nonpayable",
      "type": "function"
    },
    {
      "constant": false,
      "inputs": [
        {
          "name": "updateReason",
          "type": "bytes32"
        },
        {
          "name": "equipment",
          "type": "uint256"
        }
      ],
      "name": "setEquipmentExpenses",
      "outputs": [],
      "payable": false,
      "stateMutability": "nonpayable",
      "type": "function"
    },
    {
      "constant": false,
      "inputs": [
        {
          "name": "_charity",
          "type": "uint256"
        }
      ],
      "name": "setCharity",
      "outputs": [],
      "payable": false,
      "stateMutability": "nonpayable",
      "type": "function"
    },
    {
      "constant": false,
      "inputs": [
        {
          "name": "employeeT",
          "type": "bytes32"
        },
        {
          "name": "who",
          "type": "address"
        },
        {
          "name": "payment",
          "type": "uint256"
        }
      ],
      "name": "addNonRecurrentSalary",
      "outputs": [],
      "payable": false,
      "stateMutability": "nonpayable",
      "type": "function"
    },
    {
      "constant": false,
      "inputs": [
        {
          "name": "employee",
          "type": "address"
        },
        {
          "name": "salary",
          "type": "uint256"
        }
      ],
      "name": "addRecurrentSalary",
      "outputs": [],
      "payable": false,
      "stateMutability": "nonpayable",
      "type": "function"
    },
    {
      "constant": false,
      "inputs": [
        {
          "name": "employee",
          "type": "address"
        }
      ],
      "name": "deleteRecurrentSalary",
      "outputs": [],
      "payable": false,
      "stateMutability": "nonpayable",
      "type": "function"
    },
    {
      "constant": false,
      "inputs": [
        {
          "name": "reason",
          "type": "bytes32"
        },
        {
          "name": "howMuch",
          "type": "uint256"
        }
      ],
      "name": "addRent",
      "outputs": [],
      "payable": false,
      "stateMutability": "nonpayable",
      "type": "function"
    },
    {
      "constant": false,
      "inputs": [
        {
          "name": "reason",
          "type": "bytes32"
        },
        {
          "name": "howMuch",
          "type": "uint256"
        }
      ],
      "name": "addIncomeTax",
      "outputs": [],
      "payable": false,
      "stateMutability": "nonpayable",
      "type": "function"
    },
    {
      "constant": false,
      "inputs": [
        {
          "name": "_type",
          "type": "bytes32"
        },
        {
          "name": "receiver",
          "type": "address"
        },
        {
          "name": "amount",
          "type": "uint256"
        }
      ],
      "name": "addInterestPayment",
      "outputs": [],
      "payable": false,
      "stateMutability": "nonpayable",
      "type": "function"
    },
    {
      "constant": true,
      "inputs": [],
      "name": "getNetEarnings",
      "outputs": [
        {
          "name": "",
          "type": "uint256"
        }
      ],
      "payable": false,
      "stateMutability": "view",
      "type": "function"
    },
    {
      "constant": true,
      "inputs": [],
      "name": "getDepreciations",
      "outputs": [
        {
          "name": "",
          "type": "uint256"
        }
      ],
      "payable": false,
      "stateMutability": "view",
      "type": "function"
    },
    {
      "constant": true,
      "inputs": [],
      "name": "getDeccInAcc",
      "outputs": [
        {
          "name": "",
          "type": "uint256"
        }
      ],
      "payable": false,
      "stateMutability": "view",
      "type": "function"
    },
    {
      "constant": true,
      "inputs": [],
      "name": "getIncInAcc",
      "outputs": [
        {
          "name": "",
          "type": "uint256"
        }
      ],
      "payable": false,
      "stateMutability": "view",
      "type": "function"
    },
    {
      "constant": true,
      "inputs": [],
      "name": "getIncInTaxes",
      "outputs": [
        {
          "name": "",
          "type": "uint256"
        }
      ],
      "payable": false,
      "stateMutability": "view",
      "type": "function"
    },
    {
      "constant": true,
      "inputs": [],
      "name": "getIncreaseInInventory",
      "outputs": [
        {
          "name": "",
          "type": "uint256"
        }
      ],
      "payable": false,
      "stateMutability": "view",
      "type": "function"
    },
    {
      "constant": true,
      "inputs": [],
      "name": "getTotalEquipment",
      "outputs": [
        {
          "name": "",
          "type": "uint256"
        }
      ],
      "payable": false,
      "stateMutability": "view",
      "type": "function"
    },
    {
      "constant": true,
      "inputs": [],
      "name": "getCharity",
      "outputs": [
        {
          "name": "",
          "type": "uint256"
        }
      ],
      "payable": false,
      "stateMutability": "view",
      "type": "function"
    },
    {
      "constant": true,
      "inputs": [
        {
          "name": "pos",
          "type": "uint256"
        }
      ],
      "name": "getNonCurrentSalary",
      "outputs": [
        {
          "components": [
            {
              "name": "timestamp",
              "type": "uint256"
            },
            {
              "name": "employeeType",
              "type": "bytes32"
            },
            {
              "name": "employee",
              "type": "address"
            },
            {
              "name": "payment",
              "type": "uint256"
            }
          ],
          "name": "",
          "type": "tuple"
        }
      ],
      "payable": false,
      "stateMutability": "view",
      "type": "function"
    },
    {
      "constant": true,
      "inputs": [
        {
          "name": "pos",
          "type": "uint256"
        }
      ],
      "name": "getIncomeTax",
      "outputs": [
        {
          "components": [
            {
              "name": "date",
              "type": "uint256"
            },
            {
              "name": "forWhat",
              "type": "bytes32"
            },
            {
              "name": "howMuch",
              "type": "uint256"
            }
          ],
          "name": "",
          "type": "tuple"
        }
      ],
      "payable": false,
      "stateMutability": "view",
      "type": "function"
    },
    {
      "constant": true,
      "inputs": [
        {
          "name": "pos",
          "type": "uint256"
        }
      ],
      "name": "getRent",
      "outputs": [
        {
          "components": [
            {
              "name": "date",
              "type": "uint256"
            },
            {
              "name": "forWhat",
              "type": "bytes32"
            },
            {
              "name": "howMuch",
              "type": "uint256"
            }
          ],
          "name": "",
          "type": "tuple"
        }
      ],
      "payable": false,
      "stateMutability": "view",
      "type": "function"
    },
    {
      "constant": true,
      "inputs": [
        {
          "name": "pos",
          "type": "uint256"
        }
      ],
      "name": "getInterest",
      "outputs": [
        {
          "components": [
            {
              "name": "interestType",
              "type": "bytes32"
            },
            {
              "name": "receiver",
              "type": "address"
            },
            {
              "name": "amount",
              "type": "uint256"
            }
          ],
          "name": "",
          "type": "tuple"
        }
      ],
      "payable": false,
      "stateMutability": "view",
      "type": "function"
    },
    {
      "constant": true,
      "inputs": [
        {
          "name": "who",
          "type": "address"
        }
      ],
      "name": "getRecurrentSalary",
      "outputs": [
        {
          "name": "",
          "type": "uint256"
        }
      ],
      "payable": false,
      "stateMutability": "view",
      "type": "function"
    },
    {
      "constant": true,
      "inputs": [
        {
          "name": "reason",
          "type": "bytes32"
        }
      ],
      "name": "getEquipmentDetails",
      "outputs": [
        {
          "name": "",
          "type": "uint256"
        }
      ],
      "payable": false,
      "stateMutability": "view",
      "type": "function"
    },
    {
      "constant": true,
      "inputs": [
        {
          "name": "position",
          "type": "uint256"
        }
      ],
      "name": "getMonthlyCharity",
      "outputs": [
        {
          "name": "",
          "type": "uint256"
        }
      ],
      "payable": false,
      "stateMutability": "view",
      "type": "function"
    },
    {
      "constant": true,
      "inputs": [
        {
          "name": "position",
          "type": "uint256"
        }
      ],
      "name": "getMonthlyTotalEquipment",
      "outputs": [
        {
          "name": "",
          "type": "uint256"
        }
      ],
      "payable": false,
      "stateMutability": "view",
      "type": "function"
    },
    {
      "constant": true,
      "inputs": [
        {
          "name": "position",
          "type": "uint256"
        }
      ],
      "name": "getMonthlyIncreaseInInventory",
      "outputs": [
        {
          "name": "",
          "type": "uint256"
        }
      ],
      "payable": false,
      "stateMutability": "view",
      "type": "function"
    },
    {
      "constant": true,
      "inputs": [
        {
          "name": "position",
          "type": "uint256"
        }
      ],
      "name": "getMonthlyDepreciations",
      "outputs": [
        {
          "name": "",
          "type": "uint256"
        }
      ],
      "payable": false,
      "stateMutability": "view",
      "type": "function"
    },
    {
      "constant": true,
      "inputs": [
        {
          "name": "position",
          "type": "uint256"
        }
      ],
      "name": "getMonthlyNetEarnings",
      "outputs": [
        {
          "name": "",
          "type": "uint256"
        }
      ],
      "payable": false,
      "stateMutability": "view",
      "type": "function"
    },
    {
      "constant": true,
      "inputs": [
        {
          "name": "position",
          "type": "uint256"
        }
      ],
      "name": "getMonthlyDividentsPaid",
      "outputs": [
        {
          "name": "",
          "type": "uint256"
        }
      ],
      "payable": false,
      "stateMutability": "view",
      "type": "function"
    },
    {
      "constant": true,
      "inputs": [],
      "name": "getTotalDividentsPaid",
      "outputs": [
        {
          "name": "",
          "type": "uint256"
        }
      ],
      "payable": false,
      "stateMutability": "view",
      "type": "function"
    },
    {
      "constant": true,
      "inputs": [],
      "name": "getDao",
      "outputs": [
        {
          "name": "",
          "type": "address"
        }
      ],
      "payable": false,
      "stateMutability": "view",
      "type": "function"
    }
  ],
  "bytecode": "0x608060405262271c80600055624e3900600155627555806002556301d556006003553480156200002e57600080fd5b50604051602080620029718339810180604052620000509190810190620000b5565b80600d60006101000a81548173ffffffffffffffffffffffffffffffffffffffff021916908373ffffffffffffffffffffffffffffffffffffffff16021790555042600e819055505062000101565b6000620000ad8251620000e1565b905092915050565b600060208284031215620000c857600080fd5b6000620000d8848285016200009f565b91505092915050565b600073ffffffffffffffffffffffffffffffffffffffff82169050919050565b61286080620001116000396000f3006080604052600436106101cd576000357c0100000000000000000000000000000000000000000000000000000000900463ffffffff1680630263240a146101d257806302a3cd651461020f578063030dadac14610238578063037d9402146102615780630827dc301461029e57806314288bd2146102db5780632b2cc9e0146103185780633dbda03c146103415780633f8249ca1461036c57806352ee840e1461039757806356e4ebb3146103c05780635d4048cb146103fd5780635d5e3aa3146104265780635fe2d68914610463578063629bf1a8146104a0578063685567d5146104dd5780637cce4772146105065780637f6857781461052f57806382de2c7a146105585780638490dc0a146105815780638ae77a28146105ac5780638c04e7e5146105d5578063ae9450dc146105fe578063b2acc6d414610627578063b554bce814610652578063b70811bc1461067d578063bd2462a6146106a8578063c539a176146106d3578063cf49c9c5146106fc578063d07ce6c814610739578063d6f5ef0e14610764578063e2833a891461078f578063e46ae33f146107cc578063e98e3f53146107f5578063f67361c814610832578063fce770151461085d578063fe98289a14610886575b600080fd5b3480156101de57600080fd5b506101f960048036036101f49190810190612409565b6108c3565b60405161020691906127a3565b60405180910390f35b34801561021b57600080fd5b5061023660048036036102319190810190612522565b61090c565b005b34801561024457600080fd5b5061025f600480360361025a9190810190612522565b610a30565b005b34801561026d57600080fd5b5061028860048036036102839190810190612522565b610b17565b6040516102959190612788565b60405180910390f35b3480156102aa57600080fd5b506102c560048036036102c09190810190612522565b610b75565b6040516102d29190612737565b60405180910390f35b3480156102e757600080fd5b5061030260048036036102fd9190810190612522565b610bd3565b60405161030f91906127a3565b60405180910390f35b34801561032457600080fd5b5061033f600480360361033a9190810190612522565b610bf6565b005b34801561034d57600080fd5b50610356610d1a565b60405161036391906127a3565b60405180910390f35b34801561037857600080fd5b50610381610d24565b60405161038e91906127a3565b60405180910390f35b3480156103a357600080fd5b506103be60048036036103b99190810190612522565b610d2e565b005b3480156103cc57600080fd5b506103e760048036036103e29190810190612522565b610e15565b6040516103f4919061276d565b60405180910390f35b34801561040957600080fd5b50610424600480360361041f9190810190612497565b610ec9565b005b34801561043257600080fd5b5061044d60048036036104489190810190612522565b611082565b60405161045a91906127a3565b60405180910390f35b34801561046f57600080fd5b5061048a60048036036104859190810190612522565b6110a5565b6040516104979190612752565b60405180910390f35b3480156104ac57600080fd5b506104c760048036036104c29190810190612522565b61114f565b6040516104d491906127a3565b60405180910390f35b3480156104e957600080fd5b5061050460048036036104ff91908101906124e6565b611172565b005b34801561051257600080fd5b5061052d60048036036105289190810190612522565b6112d5565b005b34801561053b57600080fd5b5061055660048036036105519190810190612497565b6113f9565b005b34801561056457600080fd5b5061057f600480360361057a91908101906124e6565b6115c2565b005b34801561058d57600080fd5b5061059661172a565b6040516105a391906127a3565b60405180910390f35b3480156105b857600080fd5b506105d360048036036105ce9190810190612522565b611734565b005b3480156105e157600080fd5b506105fc60048036036105f791908101906124e6565b61181b565b005b34801561060a57600080fd5b5061062560048036036106209190810190612432565b61197e565b005b34801561063357600080fd5b5061063c611aa5565b60405161064991906127a3565b60405180910390f35b34801561065e57600080fd5b50610667611aaf565b60405161067491906127a3565b60405180910390f35b34801561068957600080fd5b50610692611ab9565b60405161069f9190612693565b60405180910390f35b3480156106b457600080fd5b506106bd611ae3565b6040516106ca91906127a3565b60405180910390f35b3480156106df57600080fd5b506106fa60048036036106f59190810190612522565b611aed565b005b34801561070857600080fd5b50610723600480360361071e919081019061246e565b611c11565b60405161073091906127a3565b60405180910390f35b34801561074557600080fd5b5061074e611c36565b60405161075b91906127a3565b60405180910390f35b34801561077057600080fd5b50610779611c40565b60405161078691906127a3565b60405180910390f35b34801561079b57600080fd5b506107b660048036036107b19190810190612522565b611c4a565b6040516107c391906127a3565b60405180910390f35b3480156107d857600080fd5b506107f360048036036107ee9190810190612409565b611c6d565b005b34801561080157600080fd5b5061081c60048036036108179190810190612522565b611d90565b60405161082991906127a3565b60405180910390f35b34801561083e57600080fd5b50610847611db3565b60405161085491906127a3565b60405180910390f35b34801561086957600080fd5b50610884600480360361087f9190810190612522565b611dbd565b005b34801561089257600080fd5b506108ad60048036036108a89190810190612522565b611ee1565b6040516108ba91906127a3565b60405180910390f35b6000601960008373ffffffffffffffffffffffffffffffffffffffff1673ffffffffffffffffffffffffffffffffffffffff168152602001908152602001600020549050919050565b600d60009054906101000a900473ffffffffffffffffffffffffffffffffffffffff1673ffffffffffffffffffffffffffffffffffffffff163373ffffffffffffffffffffffffffffffffffffffff1614151561096857600080fd5b6000603c6018603c80600e54420381151561097f57fe5b0481151561098957fe5b0481151561099357fe5b0481151561099d57fe5b04905060025481111515156109b157600080fd5b816005819055506109f5603c6018603c80600e5442038115156109d057fe5b048115156109da57fe5b048115156109e457fe5b048115156109ee57fe5b0483611f04565b7f79b14b1ae3da333e53039350ff43eb7db1e94e9aa04dd0309da17739eb71e1f282604051610a2491906127a3565b60405180910390a15050565b600d60009054906101000a900473ffffffffffffffffffffffffffffffffffffffff1673ffffffffffffffffffffffffffffffffffffffff163373ffffffffffffffffffffffffffffffffffffffff16141515610a8c57600080fd5b6000603c6018603c80600e544203811515610aa357fe5b04811515610aad57fe5b04811515610ab757fe5b04811515610ac157fe5b0490506002548111151515610ad557600080fd5b816006819055507f68316f10f1b04b5514f796a24190b629361fe1f032359d378c4e24c90b96058682604051610b0b91906127a3565b60405180910390a15050565b610b1f612306565b601782815481101515610b2e57fe5b906000526020600020906003020160606040519081016040529081600082015481526020016001820154600019166000191681526020016002820154815250509050919050565b610b7d61232b565b601682815481101515610b8c57fe5b906000526020600020906003020160606040519081016040529081600082015481526020016001820154600019166000191681526020016002820154815250509050919050565b6000601482815481101515610be457fe5b90600052602060002001549050919050565b600d60009054906101000a900473ffffffffffffffffffffffffffffffffffffffff1673ffffffffffffffffffffffffffffffffffffffff163373ffffffffffffffffffffffffffffffffffffffff16141515610c5257600080fd5b6000603c6018603c80600e544203811515610c6957fe5b04811515610c7357fe5b04811515610c7d57fe5b04811515610c8757fe5b0490506002548111151515610c9b57600080fd5b610cd8603c6018603c80600e544203811515610cb357fe5b04811515610cbd57fe5b04811515610cc757fe5b04811515610cd157fe5b0483611faf565b81600b819055507fe37a7f32a6c06037474d825a4481470f7c589796a67cba84984f64c0c06cbb4c82604051610d0e91906127a3565b60405180910390a15050565b6000600754905090565b6000600554905090565b600d60009054906101000a900473ffffffffffffffffffffffffffffffffffffffff1673ffffffffffffffffffffffffffffffffffffffff163373ffffffffffffffffffffffffffffffffffffffff16141515610d8a57600080fd5b6000603c6018603c80600e544203811515610da157fe5b04811515610dab57fe5b04811515610db557fe5b04811515610dbf57fe5b0490506002548111151515610dd357600080fd5b816007819055507fcb7897510182eb2dda0ed914834ecbf3063655135751e8c6cdde4c286e21076b82604051610e0991906127a3565b60405180910390a15050565b610e1d612350565b601582815481101515610e2c57fe5b906000526020600020906004020160806040519081016040529081600082015481526020016001820154600019166000191681526020016002820160009054906101000a900473ffffffffffffffffffffffffffffffffffffffff1673ffffffffffffffffffffffffffffffffffffffff1673ffffffffffffffffffffffffffffffffffffffff1681526020016003820154815250509050919050565b610ed1612392565b600d60009054906101000a900473ffffffffffffffffffffffffffffffffffffffff1673ffffffffffffffffffffffffffffffffffffffff163373ffffffffffffffffffffffffffffffffffffffff16141515610f2d57600080fd5b6000603c6018603c80600e544203811515610f4457fe5b04811515610f4e57fe5b04811515610f5857fe5b04811515610f6257fe5b0490506002548111151515610f7657600080fd5b606060405190810160405280866000191681526020018573ffffffffffffffffffffffffffffffffffffffff168152602001848152509150601882908060018154018082558091505090600182039060005260206000209060030201600090919290919091506000820151816000019060001916905560208201518160010160006101000a81548173ffffffffffffffffffffffffffffffffffffffff021916908373ffffffffffffffffffffffffffffffffffffffff160217905550604082015181600201555050507fdd0b902d044632fd3825f75f4540b56cb9d44a232d5fa861f37a8b2b8036e054858585604051611073939291906126d7565b60405180910390a15050505050565b600060108281548110151561109357fe5b90600052602060002001549050919050565b6110ad612392565b6018828154811015156110bc57fe5b9060005260206000209060030201606060405190810160405290816000820154600019166000191681526020016001820160009054906101000a900473ffffffffffffffffffffffffffffffffffffffff1673ffffffffffffffffffffffffffffffffffffffff1673ffffffffffffffffffffffffffffffffffffffff1681526020016002820154815250509050919050565b600060128281548110151561116057fe5b90600052602060002001549050919050565b61117a612306565b600d60009054906101000a900473ffffffffffffffffffffffffffffffffffffffff1673ffffffffffffffffffffffffffffffffffffffff163373ffffffffffffffffffffffffffffffffffffffff161415156111d657600080fd5b6000603c6018603c80600e5442038115156111ed57fe5b048115156111f757fe5b0481151561120157fe5b0481151561120b57fe5b049050600254811115151561121f57600080fd5b60606040519081016040528042815260200185600019168152602001848152509150601782908060018154018082558091505090600182039060005260206000209060030201600090919290919091506000820151816000015560208201518160010190600019169055604082015181600201555050507f44827de01f14fa337e9e6dd6e4807c57da164be54a00bbdc95ab0a79ed4a1ae984846040516112c792919061270e565b60405180910390a150505050565b600d60009054906101000a900473ffffffffffffffffffffffffffffffffffffffff1673ffffffffffffffffffffffffffffffffffffffff163373ffffffffffffffffffffffffffffffffffffffff1614151561133157600080fd5b6000603c6018603c80600e54420381151561134857fe5b0481151561135257fe5b0481151561135c57fe5b0481151561136657fe5b049050600254811115151561137a57600080fd5b81600c819055506113be603c6018603c80600e54420381151561139957fe5b048115156113a357fe5b048115156113ad57fe5b048115156113b757fe5b048361205a565b7f98d586001666b5f401b83706e696c08532659c57ff23145199e8234455dfe594826040516113ed91906127a3565b60405180910390a15050565b611401612350565b600d60009054906101000a900473ffffffffffffffffffffffffffffffffffffffff1673ffffffffffffffffffffffffffffffffffffffff163373ffffffffffffffffffffffffffffffffffffffff1614151561145d57600080fd5b6000603c6018603c80600e54420381151561147457fe5b0481151561147e57fe5b0481151561148857fe5b0481151561149257fe5b04905060025481111515156114a657600080fd5b608060405190810160405280428152602001866000191681526020018573ffffffffffffffffffffffffffffffffffffffff16815260200184815250915060158290806001815401808255809150509060018203906000526020600020906004020160009091929091909150600082015181600001556020820151816001019060001916905560408201518160020160006101000a81548173ffffffffffffffffffffffffffffffffffffffff021916908373ffffffffffffffffffffffffffffffffffffffff160217905550606082015181600301555050507f3e7bb62dd14b6e0556aa3a2c4391e4b6f050cf80fe57dfecfc15f9f11bd6ac528585856040516115b3939291906126d7565b60405180910390a15050505050565b600d60009054906101000a900473ffffffffffffffffffffffffffffffffffffffff1673ffffffffffffffffffffffffffffffffffffffff163373ffffffffffffffffffffffffffffffffffffffff1614151561161e57600080fd5b6000603c6018603c80600e54420381151561163557fe5b0481151561163f57fe5b0481151561164957fe5b0481151561165357fe5b049050600254811115151561166757600080fd5b600a548203601a600085600019166000191681526020019081526020016000205401601a600085600019166000191681526020019081526020016000208190555081600a819055506116ec603c6018603c80600e5442038115156116c757fe5b048115156116d157fe5b048115156116db57fe5b048115156116e557fe5b0483612105565b7f8cdc51e58bfe6ee7814eb448b772c113f99ad0ab18fdb06d2a30947aab7ea15e838360405161171d92919061270e565b60405180910390a1505050565b6000600654905090565b600d60009054906101000a900473ffffffffffffffffffffffffffffffffffffffff1673ffffffffffffffffffffffffffffffffffffffff163373ffffffffffffffffffffffffffffffffffffffff1614151561179057600080fd5b6000603c6018603c80600e5442038115156117a757fe5b048115156117b157fe5b048115156117bb57fe5b048115156117c557fe5b04905060025481111515156117d957600080fd5b816008819055507f06a547bec641a699b67221d17dad6313768d8b80ca2bd95f85c8c0844a672d2b8260405161180f91906127a3565b60405180910390a15050565b61182361232b565b600d60009054906101000a900473ffffffffffffffffffffffffffffffffffffffff1673ffffffffffffffffffffffffffffffffffffffff163373ffffffffffffffffffffffffffffffffffffffff1614151561187f57600080fd5b6000603c6018603c80600e54420381151561189657fe5b048115156118a057fe5b048115156118aa57fe5b048115156118b457fe5b04905060025481111515156118c857600080fd5b60606040519081016040528042815260200185600019168152602001848152509150601682908060018154018082558091505090600182039060005260206000209060030201600090919290919091506000820151816000015560208201518160010190600019169055604082015181600201555050507f824372a7577a24b9d788a95c22d19d2fd2413efc0c0ea84d27345b9887ac35aa848460405161197092919061270e565b60405180910390a150505050565b600d60009054906101000a900473ffffffffffffffffffffffffffffffffffffffff1673ffffffffffffffffffffffffffffffffffffffff163373ffffffffffffffffffffffffffffffffffffffff161415156119da57600080fd5b6000603c6018603c80600e5442038115156119f157fe5b048115156119fb57fe5b04811515611a0557fe5b04811515611a0f57fe5b0490506002548111151515611a2357600080fd5b81601960008573ffffffffffffffffffffffffffffffffffffffff1673ffffffffffffffffffffffffffffffffffffffff168152602001908152602001600020819055507fa2a8e02637d8deaa94e2849af20354bf6b0f580c469b88105477769537efdae48383604051611a989291906126ae565b60405180910390a1505050565b6000600454905090565b6000600a54905090565b6000600d60009054906101000a900473ffffffffffffffffffffffffffffffffffffffff16905090565b6000600c54905090565b600d60009054906101000a900473ffffffffffffffffffffffffffffffffffffffff1673ffffffffffffffffffffffffffffffffffffffff163373ffffffffffffffffffffffffffffffffffffffff16141515611b4957600080fd5b6000603c6018603c80600e544203811515611b6057fe5b04811515611b6a57fe5b04811515611b7457fe5b04811515611b7e57fe5b0490506002548111151515611b9257600080fd5b81600481905550611bd6603c6018603c80600e544203811515611bb157fe5b04811515611bbb57fe5b04811515611bc557fe5b04811515611bcf57fe5b04836121b0565b7f89c02d6a5a9ee8446940a12ce2587a57a22ce7fdd3ef473e2e4f1ec9e179be2b82604051611c0591906127a3565b60405180910390a15050565b6000601a60008360001916600019168152602001908152602001600020549050919050565b6000600854905090565b6000600b54905090565b6000601382815481101515611c5b57fe5b90600052602060002001549050919050565b600d60009054906101000a900473ffffffffffffffffffffffffffffffffffffffff1673ffffffffffffffffffffffffffffffffffffffff163373ffffffffffffffffffffffffffffffffffffffff16141515611cc957600080fd5b6000603c6018603c80600e544203811515611ce057fe5b04811515611cea57fe5b04811515611cf457fe5b04811515611cfe57fe5b0490506002548111151515611d1257600080fd5b601960008373ffffffffffffffffffffffffffffffffffffffff1673ffffffffffffffffffffffffffffffffffffffff168152602001908152602001600020600090557f7aa2814bd88dffc7716ebf4ac8b6c95372408cb97eab764ac955036210cc591982604051611d849190612693565b60405180910390a15050565b6000601182815481101515611da157fe5b90600052602060002001549050919050565b6000600954905090565b600d60009054906101000a900473ffffffffffffffffffffffffffffffffffffffff1673ffffffffffffffffffffffffffffffffffffffff163373ffffffffffffffffffffffffffffffffffffffff16141515611e1957600080fd5b6000603c6018603c80600e544203811515611e3057fe5b04811515611e3a57fe5b04811515611e4457fe5b04811515611e4e57fe5b0490506002548111151515611e6257600080fd5b81600981905550611ea6603c6018603c80600e544203811515611e8157fe5b04811515611e8b57fe5b04811515611e9557fe5b04811515611e9f57fe5b048361225b565b7f3c83144856c3610db508b58ca6453018a288a4cd6bd856bac0459c11b48c6a8f82604051611ed591906127a3565b60405180910390a15050565b6000600f82815481101515611ef257fe5b90600052602060002001549050919050565b60005482111515611f33578060126000815481101515611f2057fe5b9060005260206000200181905550611fab565b6000548210158015611f4757506001548211155b15611f70578060126001815481101515611f5d57fe5b9060005260206000200181905550611faa565b6001548210158015611f8457506002548211155b15611fa9578060126002815481101515611f9a57fe5b90600052602060002001819055505b5b5b5050565b60005482111515611fde578060106000815481101515611fcb57fe5b9060005260206000200181905550612056565b6000548210158015611ff257506001548211155b1561201b57806010600181548110151561200857fe5b9060005260206000200181905550612055565b600154821015801561202f57506002548211155b1561205457806010600281548110151561204557fe5b90600052602060002001819055505b5b5b5050565b6000548211151561208957806014600081548110151561207657fe5b9060005260206000200181905550612101565b600054821015801561209d57506001548211155b156120c65780601460018154811015156120b357fe5b9060005260206000200181905550612100565b60015482101580156120da57506002548211155b156120ff5780601460028154811015156120f057fe5b90600052602060002001819055505b5b5b5050565b6000548211151561213457806010600081548110151561212157fe5b90600052602060002001819055506121ac565b600054821015801561214857506001548211155b1561217157806010600181548110151561215e57fe5b90600052602060002001819055506121ab565b600154821015801561218557506002548211155b156121aa57806010600281548110151561219b57fe5b90600052602060002001819055505b5b5b5050565b600054821115156121df5780601360008154811015156121cc57fe5b9060005260206000200181905550612257565b60005482101580156121f357506001548211155b1561221c57806013600181548110151561220957fe5b9060005260206000200181905550612256565b600154821015801561223057506002548211155b1561225557806013600281548110151561224657fe5b90600052602060002001819055505b5b5b5050565b6000548211151561228a57806011600081548110151561227757fe5b9060005260206000200181905550612302565b600054821015801561229e57506001548211155b156122c75780601160018154811015156122b457fe5b9060005260206000200181905550612301565b60015482101580156122db57506002548211155b156123005780601160028154811015156122f157fe5b90600052602060002001819055505b5b5b5050565b6060604051908101604052806000815260200160008019168152602001600081525090565b6060604051908101604052806000815260200160008019168152602001600081525090565b6080604051908101604052806000815260200160008019168152602001600073ffffffffffffffffffffffffffffffffffffffff168152602001600081525090565b60606040519081016040528060008019168152602001600073ffffffffffffffffffffffffffffffffffffffff168152602001600081525090565b60006123d982356127f2565b905092915050565b60006123ed8235612812565b905092915050565b6000612401823561281c565b905092915050565b60006020828403121561241b57600080fd5b6000612429848285016123cd565b91505092915050565b6000806040838503121561244557600080fd5b6000612453858286016123cd565b9250506020612464858286016123f5565b9150509250929050565b60006020828403121561248057600080fd5b600061248e848285016123e1565b91505092915050565b6000806000606084860312156124ac57600080fd5b60006124ba868287016123e1565b93505060206124cb868287016123cd565b92505060406124dc868287016123f5565b9150509250925092565b600080604083850312156124f957600080fd5b6000612507858286016123e1565b9250506020612518858286016123f5565b9150509250929050565b60006020828403121561253457600080fd5b6000612542848285016123f5565b91505092915050565b612554816127be565b82525050565b612563816127de565b82525050565b60608201600082015161257f6000850182612684565b506020820151612592602085018261255a565b5060408201516125a56040850182612684565b50505050565b6060820160008201516125c1600085018261255a565b5060208201516125d4602085018261254b565b5060408201516125e76040850182612684565b50505050565b6080820160008201516126036000850182612684565b506020820151612616602085018261255a565b506040820151612629604085018261254b565b50606082015161263c6060850182612684565b50505050565b6060820160008201516126586000850182612684565b50602082015161266b602085018261255a565b50604082015161267e6040850182612684565b50505050565b61268d816127e8565b82525050565b60006020820190506126a8600083018461254b565b92915050565b60006040820190506126c3600083018561254b565b6126d06020830184612684565b9392505050565b60006060820190506126ec600083018661255a565b6126f9602083018561254b565b6127066040830184612684565b949350505050565b6000604082019050612723600083018561255a565b6127306020830184612684565b9392505050565b600060608201905061274c6000830184612569565b92915050565b600060608201905061276760008301846125ab565b92915050565b600060808201905061278260008301846125ed565b92915050565b600060608201905061279d6000830184612642565b92915050565b60006020820190506127b86000830184612684565b92915050565b600073ffffffffffffffffffffffffffffffffffffffff82169050919050565b6000819050919050565b6000819050919050565b600073ffffffffffffffffffffffffffffffffffffffff82169050919050565b6000819050919050565b60008190509190505600a265627a7a72305820332f3f96e7b1d30e6f234df5f42eb1c025692ba5dcade33c127c31c55855af5e6c6578706572696d656e74616cf50037",
  "source": "pragma experimental ABIEncoderV2;\n\nimport \"contracts/interfaces/ICashflowStatement.sol\";\n\ncontract CashflowStatement is ICashflowStatement {\n\n  //Constants\n\n  uint256 month = 712 hours;\n  uint256 twoMonths = 1424 hours;\n  uint256 quarter = 2136 hours;\n  uint256 year = 8544 hours;\n\n  //Indices\n\n  uint256 netEarnings;\n\n  //Additions to cash\n\n  uint256 depreciations;\n\n  uint256 decreasesInAccReceivable;\n\n  uint256 increaseInAccPayable;\n\n  uint256 increaseInTaxesPayable;\n\n  //Substractions from cash\n\n  uint256 increaseInInventory;\n\n  uint256 totalEquipmentExpenses;\n\n  uint256 charity;\n\n  uint256 totalDividentsPaid;\n\n\n  address dao;\n\n\n  uint256 startTime;\n\n  uint256[] monthlyCharity;\n\n  uint256[] monthlyTotalEquipment;\n\n  uint256[] monthlyIncreaseInInventory;\n\n  uint256[] monthlyDepreciations;\n\n  uint256[] monthlyNetEarnings;\n\n  uint256[] monthlyDividentsPaid;\n\n  NonRecurrentSalary[] nonRecurrentSalaries;\n\n  IncomeTax[] incomeTaxes;\n\n  Rent[] rents;\n\n  InterestPayment[] interestPayments;\n\n  mapping(address => uint256) recurrentSalaries;\n\n  mapping(bytes32 => uint256) equipmentExpenses;\n\n  modifier onlyDAO() {\n\n    require(msg.sender == dao);\n\n    _;\n\n  }\n\n  modifier inQuarter {\n\n    uint _hours = (now - startTime) / 60 / 60 / 24 / 60;\n\n    require(_hours <= quarter);\n\n    _;\n\n  }\n\n  constructor(address _dao) {\n\n    dao = _dao;\n\n    startTime = now;\n\n  }\n\n  function updateNetEarnings(uint256 earnings) public onlyDAO inQuarter {\n\n    netEarnings = earnings;\n\n    addToMonthlyNetIncome((now - startTime) / 60 / 60 / 24 / 60, earnings);\n\n    emit UpdatedNetEarnings(earnings);\n\n  }\n\n  function updateDepreciations(uint256 _depreciations) public onlyDAO inQuarter {\n\n    depreciations = _depreciations;\n\n    addToMonthlyDepreciations((now - startTime) / 60 / 60 / 24 / 60, _depreciations);\n\n    emit UpdatedDepreciations(_depreciations);\n\n  }\n\n  function updateDecreasesInAcc(uint256 decreases) public onlyDAO inQuarter {\n\n    decreasesInAccReceivable = decreases;\n\n    emit UpdatedDecreasesInAcc(decreases);\n\n  }\n\n  function updateIncreasesInAcc(uint256 increases) public onlyDAO inQuarter {\n\n    increaseInAccPayable = increases;\n\n    emit UpdatedIncreasesInAcc(increases);\n\n  }\n\n  function updateIncreaseInTaxes(uint256 taxes) public onlyDAO inQuarter {\n\n    increaseInTaxesPayable = taxes;\n\n    emit UpdatedIncreasesInTaxes(taxes);\n\n  }\n\n  function updateDividentsPaid(uint256 dividents) public onlyDAO inQuarter {\n\n    totalDividentsPaid = dividents;\n\n    addToMonthlyDividents((now - startTime) / 60 / 60 / 24 / 60, dividents);\n\n    emit UpdatedDividents(dividents);\n\n  }\n\n  function updateIncreaseInInventory(uint256 inventory) public onlyDAO inQuarter {\n\n    increaseInInventory = inventory;\n\n    addToMonthlyIncreaseInInventory((now - startTime) / 60 / 60 / 24 / 60, inventory);\n\n    emit UpdatedIncreasesInInventory(inventory);\n\n  }\n\n  function setEquipmentExpenses(bytes32 updateReason, uint256 equipment) public onlyDAO inQuarter {\n\n    equipmentExpenses[updateReason] = equipmentExpenses[updateReason]\n                                      + (equipment - totalEquipmentExpenses);\n\n    totalEquipmentExpenses = equipment;\n\n    addToMonthlyTotalEquipment((now - startTime) / 60 / 60 / 24 / 60, equipment);\n\n    emit SetEquipmentExpenses(updateReason, equipment);\n\n  }\n\n  function setCharity(uint256 _charity) public onlyDAO inQuarter {\n\n    addToMonthlyCharity((now - startTime) / 60 / 60 / 24 / 60, _charity);\n\n    charity = _charity;\n\n    emit SetCharity(_charity);\n\n  }\n\n  function addNonRecurrentSalary(bytes32 employeeT, address who, uint256 payment) public onlyDAO inQuarter {\n\n    NonRecurrentSalary memory newSalary = NonRecurrentSalary(now, employeeT, who, payment);\n\n    nonRecurrentSalaries.push(newSalary);\n\n    emit AddedNonRecurrentSalary(employeeT, who, payment);\n\n  }\n\n  function addRecurrentSalary(address employee, uint256 salary) public onlyDAO inQuarter {\n\n    recurrentSalaries[employee] = salary;\n\n    emit AddedRecurrentSalary(employee, salary);\n\n  }\n\n  function deleteRecurrentSalary(address employee) public onlyDAO inQuarter {\n\n    delete(recurrentSalaries[employee]);\n\n    emit DeletedRecurrentSalary(employee);\n\n  }\n\n  function addRent(bytes32 reason, uint256 howMuch) public onlyDAO inQuarter {\n\n    Rent memory newRent = Rent(now, reason, howMuch);\n\n    rents.push(newRent);\n\n    emit AddedRent(reason, howMuch);\n\n  }\n\n  function addIncomeTax(bytes32 reason, uint256 howMuch) public onlyDAO inQuarter {\n\n    IncomeTax memory newIncome = IncomeTax(now, reason, howMuch);\n\n    incomeTaxes.push(newIncome);\n\n    emit AddedIncomeTax(reason, howMuch);\n\n  }\n\n  function addInterestPayment(bytes32 _type, address receiver, uint256 amount) public onlyDAO inQuarter {\n\n    InterestPayment memory newInterest = InterestPayment(_type, receiver, amount);\n\n    interestPayments.push(newInterest);\n\n    emit AddedInterestPayment(_type, receiver, amount);\n\n  }\n\n  //PRIVATE\n\n  function addToMonthlyNetIncome(uint256 _hours, uint256 howMuch) private {\n\n    if (_hours <= month)\n      monthlyNetEarnings[0] = howMuch;\n\n    else if (_hours >= month && _hours <= twoMonths)\n      monthlyNetEarnings[1] = howMuch;\n\n    else if (_hours >= twoMonths && _hours <= quarter)\n      monthlyNetEarnings[2] = howMuch;\n\n  }\n\n  function addToMonthlyDepreciations(uint256 _hours, uint256 howMuch) private {\n\n    if (_hours <= month)\n      monthlyDepreciations[0] = howMuch;\n\n    else if (_hours >= month && _hours <= twoMonths)\n      monthlyDepreciations[1] = howMuch;\n\n    else if (_hours >= twoMonths && _hours <= quarter)\n      monthlyDepreciations[2] = howMuch;\n\n  }\n\n  function addToMonthlyIncreaseInInventory(uint256 _hours, uint256 howMuch) private {\n\n    if (_hours <= month)\n      monthlyIncreaseInInventory[0] = howMuch;\n\n    else if (_hours >= month && _hours <= twoMonths)\n      monthlyIncreaseInInventory[1] = howMuch;\n\n    else if (_hours >= twoMonths && _hours <= quarter)\n      monthlyIncreaseInInventory[2] = howMuch;\n\n  }\n\n  function addToMonthlyTotalEquipment(uint256 _hours, uint256 howMuch) private {\n\n    if (_hours <= month)\n      monthlyTotalEquipment[0] = howMuch;\n\n    else if (_hours >= month && _hours <= twoMonths)\n      monthlyTotalEquipment[1] = howMuch;\n\n    else if (_hours >= twoMonths && _hours <= quarter)\n      monthlyTotalEquipment[2] = howMuch;\n\n  }\n\n  function addToMonthlyCharity(uint256 _hours, uint256 howMuch) private {\n\n    if (_hours <= month)\n      monthlyTotalEquipment[0] = howMuch;\n\n    else if (_hours >= month && _hours <= twoMonths)\n      monthlyTotalEquipment[1] = howMuch;\n\n    else if (_hours >= twoMonths && _hours <= quarter)\n      monthlyTotalEquipment[2] = howMuch;\n\n  }\n\n  function addToMonthlyDividents(uint256 _hours, uint256 howMuch) private {\n\n    if (_hours <= month)\n      monthlyDividentsPaid[0] = howMuch;\n\n    else if (_hours >= month && _hours <= twoMonths)\n      monthlyDividentsPaid[1] = howMuch;\n\n    else if (_hours >= twoMonths && _hours <= quarter)\n      monthlyDividentsPaid[2] = howMuch;\n\n  }\n\n\n  //GETTERS\n\n  function getNetEarnings() public view returns (uint256) {\n\n    return netEarnings;\n\n  }\n\n  function getDepreciations() public view returns (uint256) {\n\n    return depreciations;\n\n  }\n\n  function getDeccInAcc() public view returns (uint256) {\n\n    return decreasesInAccReceivable;\n\n  }\n\n  function getIncInAcc() public view returns (uint256) {\n\n    return increaseInAccPayable;\n\n  }\n\n  function getIncInTaxes() public view returns (uint256) {\n\n    return increaseInTaxesPayable;\n\n  }\n\n  function getIncreaseInInventory() public view returns (uint256) {\n\n    return increaseInInventory;\n\n  }\n\n  function getTotalEquipment() public view returns (uint256) {\n\n    return totalEquipmentExpenses;\n\n  }\n\n  function getCharity() public view returns (uint256) {\n\n    return charity;\n\n  }\n\n  function getNonCurrentSalary(uint256 pos) public view returns (NonRecurrentSalary) {\n\n    return nonRecurrentSalaries[pos];\n\n  }\n\n  function getIncomeTax(uint256 pos) public view returns (IncomeTax) {\n\n    return incomeTaxes[pos];\n\n  }\n\n  function getRent(uint256 pos) public view returns (Rent) {\n\n    return rents[pos];\n\n  }\n\n  function getInterest(uint256 pos) public view returns (InterestPayment) {\n\n    return interestPayments[pos];\n\n  }\n\n  function getRecurrentSalary(address who) public view returns (uint256) {\n\n    return recurrentSalaries[who];\n\n  }\n\n  function getEquipmentDetails(bytes32 reason) public view returns (uint256) {\n\n    return equipmentExpenses[reason];\n\n  }\n\n  function getMonthlyCharity(uint256 position) public view returns (uint256) {\n\n    return monthlyCharity[position];\n\n  }\n\n  function getMonthlyTotalEquipment(uint256 position) public view returns (uint256) {\n\n    return monthlyTotalEquipment[position];\n\n  }\n\n  function getMonthlyIncreaseInInventory(uint256 position) public view returns (uint256) {\n\n    return monthlyIncreaseInInventory[position];\n\n  }\n\n  function getMonthlyDepreciations(uint256 position) public view returns (uint256) {\n\n    return monthlyDepreciations[position];\n\n  }\n\n  function getMonthlyNetEarnings(uint256 position) public view returns (uint256) {\n\n    return monthlyNetEarnings[position];\n\n  }\n\n  function getMonthlyDividentsPaid(uint256 position) public view returns (uint256) {\n\n    return monthlyDividentsPaid[position];\n\n  }\n\n  function getTotalDividentsPaid() public view returns (uint256) {\n\n    return totalDividentsPaid;\n\n  }\n\n  function getDao() public view returns (address) {\n\n    return dao;\n\n  }\n\n}\n",
  "sourcePath": "/home/stefan/Work/TransparentDao/contracts/accounting/statements/CashflowStatement.sol",
  "compiler": {
    "name": "solc",
    "version": "0.4.24+commit.e67f0147.Emscripten.clang"
  },
  "schemaVersion": "2.0.1",
  "updatedAt": "2018-12-15T22:13:43.147Z"
}