{
  "contractName": "CashflowStatement",
  "abi": [
    {
      "inputs": [
        {
          "name": "_dao",
          "type": "address"
        }
      ],
      "payable": false,
      "stateMutability": "nonpayable",
      "type": "constructor"
    },
    {
      "anonymous": false,
      "inputs": [
        {
          "indexed": false,
          "name": "earnings",
          "type": "uint256"
        }
      ],
      "name": "UpdatedNetEarnings",
      "type": "event"
    },
    {
      "anonymous": false,
      "inputs": [
        {
          "indexed": false,
          "name": "depreciations",
          "type": "uint256"
        }
      ],
      "name": "UpdatedDepreciations",
      "type": "event"
    },
    {
      "anonymous": false,
      "inputs": [
        {
          "indexed": false,
          "name": "decreases",
          "type": "uint256"
        }
      ],
      "name": "UpdatedDecreasesInAcc",
      "type": "event"
    },
    {
      "anonymous": false,
      "inputs": [
        {
          "indexed": false,
          "name": "increases",
          "type": "uint256"
        }
      ],
      "name": "UpdatedIncreasesInAcc",
      "type": "event"
    },
    {
      "anonymous": false,
      "inputs": [
        {
          "indexed": false,
          "name": "taxes",
          "type": "uint256"
        }
      ],
      "name": "UpdatedIncreasesInTaxes",
      "type": "event"
    },
    {
      "anonymous": false,
      "inputs": [
        {
          "indexed": false,
          "name": "inventory",
          "type": "uint256"
        }
      ],
      "name": "UpdatedIncreasesInInventory",
      "type": "event"
    },
    {
      "anonymous": false,
      "inputs": [
        {
          "indexed": false,
          "name": "updateReason",
          "type": "bytes32"
        },
        {
          "indexed": false,
          "name": "equipment",
          "type": "uint256"
        }
      ],
      "name": "SetEquipmentExpenses",
      "type": "event"
    },
    {
      "anonymous": false,
      "inputs": [
        {
          "indexed": false,
          "name": "charity",
          "type": "uint256"
        }
      ],
      "name": "SetCharity",
      "type": "event"
    },
    {
      "anonymous": false,
      "inputs": [
        {
          "indexed": false,
          "name": "employeeT",
          "type": "bytes32"
        },
        {
          "indexed": false,
          "name": "who",
          "type": "address"
        },
        {
          "indexed": false,
          "name": "payment",
          "type": "uint256"
        }
      ],
      "name": "AddedNonRecurrentSalary",
      "type": "event"
    },
    {
      "anonymous": false,
      "inputs": [
        {
          "indexed": false,
          "name": "employee",
          "type": "address"
        },
        {
          "indexed": false,
          "name": "salary",
          "type": "uint256"
        }
      ],
      "name": "AddedRecurrentSalary",
      "type": "event"
    },
    {
      "anonymous": false,
      "inputs": [
        {
          "indexed": false,
          "name": "employee",
          "type": "address"
        }
      ],
      "name": "DeletedRecurrentSalary",
      "type": "event"
    },
    {
      "anonymous": false,
      "inputs": [
        {
          "indexed": false,
          "name": "reason",
          "type": "bytes32"
        },
        {
          "indexed": false,
          "name": "howMuch",
          "type": "uint256"
        }
      ],
      "name": "AddedRent",
      "type": "event"
    },
    {
      "anonymous": false,
      "inputs": [
        {
          "indexed": false,
          "name": "reason",
          "type": "bytes32"
        },
        {
          "indexed": false,
          "name": "howMuch",
          "type": "uint256"
        }
      ],
      "name": "AddedIncomeTax",
      "type": "event"
    },
    {
      "anonymous": false,
      "inputs": [
        {
          "indexed": false,
          "name": "_type",
          "type": "bytes32"
        },
        {
          "indexed": false,
          "name": "receiver",
          "type": "address"
        },
        {
          "indexed": false,
          "name": "amount",
          "type": "uint256"
        }
      ],
      "name": "AddedInterestPayment",
      "type": "event"
    },
    {
      "anonymous": false,
      "inputs": [
        {
          "indexed": false,
          "name": "dividents",
          "type": "uint256"
        }
      ],
      "name": "UpdatedDividents",
      "type": "event"
    },
    {
      "constant": false,
      "inputs": [
        {
          "name": "earnings",
          "type": "uint256"
        }
      ],
      "name": "updateNetEarnings",
      "outputs": [],
      "payable": false,
      "stateMutability": "nonpayable",
      "type": "function"
    },
    {
      "constant": false,
      "inputs": [
        {
          "name": "_depreciations",
          "type": "uint256"
        }
      ],
      "name": "updateDepreciations",
      "outputs": [],
      "payable": false,
      "stateMutability": "nonpayable",
      "type": "function"
    },
    {
      "constant": false,
      "inputs": [
        {
          "name": "decreases",
          "type": "uint256"
        }
      ],
      "name": "updateDecreasesInAcc",
      "outputs": [],
      "payable": false,
      "stateMutability": "nonpayable",
      "type": "function"
    },
    {
      "constant": false,
      "inputs": [
        {
          "name": "increases",
          "type": "uint256"
        }
      ],
      "name": "updateIncreasesInAcc",
      "outputs": [],
      "payable": false,
      "stateMutability": "nonpayable",
      "type": "function"
    },
    {
      "constant": false,
      "inputs": [
        {
          "name": "taxes",
          "type": "uint256"
        }
      ],
      "name": "updateIncreaseInTaxes",
      "outputs": [],
      "payable": false,
      "stateMutability": "nonpayable",
      "type": "function"
    },
    {
      "constant": false,
      "inputs": [
        {
          "name": "dividents",
          "type": "uint256"
        }
      ],
      "name": "updateDividentsPaid",
      "outputs": [],
      "payable": false,
      "stateMutability": "nonpayable",
      "type": "function"
    },
    {
      "constant": false,
      "inputs": [
        {
          "name": "inventory",
          "type": "uint256"
        }
      ],
      "name": "updateIncreaseInInventory",
      "outputs": [],
      "payable": false,
      "stateMutability": "nonpayable",
      "type": "function"
    },
    {
      "constant": false,
      "inputs": [
        {
          "name": "updateReason",
          "type": "bytes32"
        },
        {
          "name": "equipment",
          "type": "uint256"
        },
        {
          "name": "total",
          "type": "uint256"
        }
      ],
      "name": "setEquipmentExpenses",
      "outputs": [],
      "payable": false,
      "stateMutability": "nonpayable",
      "type": "function"
    },
    {
      "constant": false,
      "inputs": [
        {
          "name": "_charity",
          "type": "uint256"
        }
      ],
      "name": "setCharity",
      "outputs": [],
      "payable": false,
      "stateMutability": "nonpayable",
      "type": "function"
    },
    {
      "constant": false,
      "inputs": [
        {
          "name": "employeeT",
          "type": "bytes32"
        },
        {
          "name": "who",
          "type": "address"
        },
        {
          "name": "payment",
          "type": "uint256"
        }
      ],
      "name": "addNonRecurrentSalary",
      "outputs": [],
      "payable": false,
      "stateMutability": "nonpayable",
      "type": "function"
    },
    {
      "constant": false,
      "inputs": [
        {
          "name": "employee",
          "type": "address"
        },
        {
          "name": "salary",
          "type": "uint256"
        }
      ],
      "name": "addRecurrentSalary",
      "outputs": [],
      "payable": false,
      "stateMutability": "nonpayable",
      "type": "function"
    },
    {
      "constant": false,
      "inputs": [
        {
          "name": "employee",
          "type": "address"
        }
      ],
      "name": "deleteRecurrentSalary",
      "outputs": [],
      "payable": false,
      "stateMutability": "nonpayable",
      "type": "function"
    },
    {
      "constant": false,
      "inputs": [
        {
          "name": "reason",
          "type": "bytes32"
        },
        {
          "name": "howMuch",
          "type": "uint256"
        }
      ],
      "name": "addRent",
      "outputs": [],
      "payable": false,
      "stateMutability": "nonpayable",
      "type": "function"
    },
    {
      "constant": false,
      "inputs": [
        {
          "name": "reason",
          "type": "bytes32"
        },
        {
          "name": "howMuch",
          "type": "uint256"
        }
      ],
      "name": "addIncomeTax",
      "outputs": [],
      "payable": false,
      "stateMutability": "nonpayable",
      "type": "function"
    },
    {
      "constant": false,
      "inputs": [
        {
          "name": "_type",
          "type": "bytes32"
        },
        {
          "name": "receiver",
          "type": "address"
        },
        {
          "name": "amount",
          "type": "uint256"
        }
      ],
      "name": "addInterestPayment",
      "outputs": [],
      "payable": false,
      "stateMutability": "nonpayable",
      "type": "function"
    },
    {
      "constant": true,
      "inputs": [
        {
          "name": "endTime",
          "type": "uint256"
        },
        {
          "name": "startTime",
          "type": "uint256"
        }
      ],
      "name": "getHours",
      "outputs": [
        {
          "name": "",
          "type": "uint256"
        }
      ],
      "payable": false,
      "stateMutability": "view",
      "type": "function"
    },
    {
      "constant": true,
      "inputs": [],
      "name": "getNetEarnings",
      "outputs": [
        {
          "name": "",
          "type": "uint256"
        }
      ],
      "payable": false,
      "stateMutability": "view",
      "type": "function"
    },
    {
      "constant": true,
      "inputs": [],
      "name": "getDepreciations",
      "outputs": [
        {
          "name": "",
          "type": "uint256"
        }
      ],
      "payable": false,
      "stateMutability": "view",
      "type": "function"
    },
    {
      "constant": true,
      "inputs": [],
      "name": "getDeccInAcc",
      "outputs": [
        {
          "name": "",
          "type": "uint256"
        }
      ],
      "payable": false,
      "stateMutability": "view",
      "type": "function"
    },
    {
      "constant": true,
      "inputs": [],
      "name": "getIncInAcc",
      "outputs": [
        {
          "name": "",
          "type": "uint256"
        }
      ],
      "payable": false,
      "stateMutability": "view",
      "type": "function"
    },
    {
      "constant": true,
      "inputs": [],
      "name": "getIncInTaxes",
      "outputs": [
        {
          "name": "",
          "type": "uint256"
        }
      ],
      "payable": false,
      "stateMutability": "view",
      "type": "function"
    },
    {
      "constant": true,
      "inputs": [],
      "name": "getIncreaseInInventory",
      "outputs": [
        {
          "name": "",
          "type": "uint256"
        }
      ],
      "payable": false,
      "stateMutability": "view",
      "type": "function"
    },
    {
      "constant": true,
      "inputs": [],
      "name": "getTotalEquipment",
      "outputs": [
        {
          "name": "",
          "type": "uint256"
        }
      ],
      "payable": false,
      "stateMutability": "view",
      "type": "function"
    },
    {
      "constant": true,
      "inputs": [],
      "name": "getCharity",
      "outputs": [
        {
          "name": "",
          "type": "uint256"
        }
      ],
      "payable": false,
      "stateMutability": "view",
      "type": "function"
    },
    {
      "constant": true,
      "inputs": [
        {
          "name": "pos",
          "type": "uint256"
        }
      ],
      "name": "getNonRecurrentSalary",
      "outputs": [
        {
          "name": "",
          "type": "uint256"
        },
        {
          "name": "",
          "type": "bytes32"
        },
        {
          "name": "",
          "type": "address"
        },
        {
          "name": "",
          "type": "uint256"
        }
      ],
      "payable": false,
      "stateMutability": "view",
      "type": "function"
    },
    {
      "constant": true,
      "inputs": [
        {
          "name": "pos",
          "type": "uint256"
        }
      ],
      "name": "getIncomeTax",
      "outputs": [
        {
          "name": "",
          "type": "uint256"
        },
        {
          "name": "",
          "type": "bytes32"
        },
        {
          "name": "",
          "type": "uint256"
        }
      ],
      "payable": false,
      "stateMutability": "view",
      "type": "function"
    },
    {
      "constant": true,
      "inputs": [
        {
          "name": "pos",
          "type": "uint256"
        }
      ],
      "name": "getRent",
      "outputs": [
        {
          "name": "",
          "type": "uint256"
        },
        {
          "name": "",
          "type": "bytes32"
        },
        {
          "name": "",
          "type": "uint256"
        }
      ],
      "payable": false,
      "stateMutability": "view",
      "type": "function"
    },
    {
      "constant": true,
      "inputs": [
        {
          "name": "pos",
          "type": "uint256"
        }
      ],
      "name": "getInterest",
      "outputs": [
        {
          "name": "",
          "type": "bytes32"
        },
        {
          "name": "",
          "type": "address"
        },
        {
          "name": "",
          "type": "uint256"
        }
      ],
      "payable": false,
      "stateMutability": "view",
      "type": "function"
    },
    {
      "constant": true,
      "inputs": [
        {
          "name": "who",
          "type": "address"
        }
      ],
      "name": "getRecurrentSalary",
      "outputs": [
        {
          "name": "",
          "type": "uint256"
        }
      ],
      "payable": false,
      "stateMutability": "view",
      "type": "function"
    },
    {
      "constant": true,
      "inputs": [
        {
          "name": "reason",
          "type": "bytes32"
        }
      ],
      "name": "getEquipmentDetails",
      "outputs": [
        {
          "name": "",
          "type": "uint256"
        }
      ],
      "payable": false,
      "stateMutability": "view",
      "type": "function"
    },
    {
      "constant": true,
      "inputs": [
        {
          "name": "position",
          "type": "uint256"
        }
      ],
      "name": "getMonthlyCharity",
      "outputs": [
        {
          "name": "",
          "type": "uint256"
        }
      ],
      "payable": false,
      "stateMutability": "view",
      "type": "function"
    },
    {
      "constant": true,
      "inputs": [
        {
          "name": "position",
          "type": "uint256"
        }
      ],
      "name": "getMonthlyTotalEquipment",
      "outputs": [
        {
          "name": "",
          "type": "uint256"
        }
      ],
      "payable": false,
      "stateMutability": "view",
      "type": "function"
    },
    {
      "constant": true,
      "inputs": [
        {
          "name": "position",
          "type": "uint256"
        }
      ],
      "name": "getMonthlyIncreaseInInventory",
      "outputs": [
        {
          "name": "",
          "type": "uint256"
        }
      ],
      "payable": false,
      "stateMutability": "view",
      "type": "function"
    },
    {
      "constant": true,
      "inputs": [
        {
          "name": "position",
          "type": "uint256"
        }
      ],
      "name": "getMonthlyDepreciations",
      "outputs": [
        {
          "name": "",
          "type": "uint256"
        }
      ],
      "payable": false,
      "stateMutability": "view",
      "type": "function"
    },
    {
      "constant": true,
      "inputs": [
        {
          "name": "position",
          "type": "uint256"
        }
      ],
      "name": "getMonthlyNetEarnings",
      "outputs": [
        {
          "name": "",
          "type": "uint256"
        }
      ],
      "payable": false,
      "stateMutability": "view",
      "type": "function"
    },
    {
      "constant": true,
      "inputs": [
        {
          "name": "position",
          "type": "uint256"
        }
      ],
      "name": "getMonthlyDividentsPaid",
      "outputs": [
        {
          "name": "",
          "type": "uint256"
        }
      ],
      "payable": false,
      "stateMutability": "view",
      "type": "function"
    },
    {
      "constant": true,
      "inputs": [],
      "name": "getTotalDividentsPaid",
      "outputs": [
        {
          "name": "",
          "type": "uint256"
        }
      ],
      "payable": false,
      "stateMutability": "view",
      "type": "function"
    },
    {
      "constant": true,
      "inputs": [],
      "name": "getDao",
      "outputs": [
        {
          "name": "",
          "type": "address"
        }
      ],
      "payable": false,
      "stateMutability": "view",
      "type": "function"
    }
  ],
  "bytecode": "0x60806040526102c86000556105906001556108586002556121606003556000600e556003604051908082528060200260200182016040528015620000525781602001602082028038833980820191505090505b50601090805190602001906200006a9291906200025d565b5060036040519080825280602002602001820160405280156200009c5781602001602082028038833980820191505090505b5060119080519060200190620000b49291906200025d565b506003604051908082528060200260200182016040528015620000e65781602001602082028038833980820191505090505b5060129080519060200190620000fe9291906200025d565b506003604051908082528060200260200182016040528015620001305781602001602082028038833980820191505090505b5060139080519060200190620001489291906200025d565b5060036040519080825280602002602001820160405280156200017a5781602001602082028038833980820191505090505b5060149080519060200190620001929291906200025d565b506003604051908082528060200260200182016040528015620001c45781602001602082028038833980820191505090505b5060159080519060200190620001dc9291906200025d565b50348015620001ea57600080fd5b506040516020806200290d8339810180604052810190808051906020019092919050505080600d60006101000a81548173ffffffffffffffffffffffffffffffffffffffff021916908373ffffffffffffffffffffffffffffffffffffffff16021790555042600f8190555050620002d7565b8280548282559060005260206000209081019282156200029c579160200282015b828111156200029b5782518255916020019190600101906200027e565b5b509050620002ab9190620002af565b5090565b620002d491905b80821115620002d0576000816000905550600101620002b6565b5090565b90565b61262680620002e76000396000f3006080604052600436106101d8576000357c0100000000000000000000000000000000000000000000000000000000900463ffffffff1680630263240a146101dd57806302a3cd6514610234578063030dadac14610261578063037d94021461028e5780630827dc30146102e55780630eb222731461033c57806314288bd2146103c65780632b2cc9e0146104075780633dbda03c146104345780633f8249ca1461045f57806352ee840e1461048a57806356e8dd06146104b75780635d4048cb146104fc5780635d5e3aa3146105575780635fe2d68914610598578063629bf1a81461061b578063685567d51461065c5780637cce4772146106975780637f685778146106c45780638225fa781461071f5780638490dc0a1461076a5780638ae77a28146107955780638c04e7e5146107c2578063ae9450dc146107fd578063b2acc6d41461084a578063b554bce814610875578063b70811bc146108a0578063bd2462a6146108f7578063c539a17614610922578063cf49c9c51461094f578063d07ce6c814610994578063d6f5ef0e146109bf578063e2833a89146109ea578063e46ae33f14610a2b578063e98e3f5314610a6e578063f67361c814610aaf578063fce7701514610ada578063fe98289a14610b07575b600080fd5b3480156101e957600080fd5b5061021e600480360381019080803573ffffffffffffffffffffffffffffffffffffffff169060200190929190505050610b48565b6040518082815260200191505060405180910390f35b34801561024057600080fd5b5061025f60048036038101908080359060200190929190505050610b91565b005b34801561026d57600080fd5b5061028c60048036038101908080359060200190929190505050610c65565b005b34801561029a57600080fd5b506102b960048036038101908080359060200190929190505050610d24565b604051808481526020018360001916600019168152602001828152602001935050505060405180910390f35b3480156102f157600080fd5b5061031060048036038101908080359060200190929190505050610d99565b604051808481526020018360001916600019168152602001828152602001935050505060405180910390f35b34801561034857600080fd5b5061036760048036038101908080359060200190929190505050610e0e565b6040518085815260200184600019166000191681526020018373ffffffffffffffffffffffffffffffffffffffff1673ffffffffffffffffffffffffffffffffffffffff16815260200182815260200194505050505060405180910390f35b3480156103d257600080fd5b506103f160048036038101908080359060200190929190505050610e9f565b6040518082815260200191505060405180910390f35b34801561041357600080fd5b5061043260048036038101908080359060200190929190505050610ec2565b005b34801561044057600080fd5b50610449610f96565b6040518082815260200191505060405180910390f35b34801561046b57600080fd5b50610474610fa0565b6040518082815260200191505060405180910390f35b34801561049657600080fd5b506104b560048036038101908080359060200190929190505050610faa565b005b3480156104c357600080fd5b506104fa60048036038101908080356000191690602001909291908035906020019092919080359060200190929190505050611069565b005b34801561050857600080fd5b506105556004803603810190808035600019169060200190929190803573ffffffffffffffffffffffffffffffffffffffff1690602001909291908035906020019092919050505061116f565b005b34801561056357600080fd5b5061058260048036038101908080359060200190929190505050611340565b6040518082815260200191505060405180910390f35b3480156105a457600080fd5b506105c360048036038101908080359060200190929190505050611363565b6040518084600019166000191681526020018373ffffffffffffffffffffffffffffffffffffffff1673ffffffffffffffffffffffffffffffffffffffff168152602001828152602001935050505060405180910390f35b34801561062757600080fd5b50610646600480360381019080803590602001909291905050506113f8565b6040518082815260200191505060405180910390f35b34801561066857600080fd5b5061069560048036038101908080356000191690602001909291908035906020019092919050505061141b565b005b3480156106a357600080fd5b506106c260048036038101908080359060200190929190505050611564565b005b3480156106d057600080fd5b5061071d6004803603810190808035600019169060200190929190803573ffffffffffffffffffffffffffffffffffffffff16906020019092919080359060200190929190505050611638565b005b34801561072b57600080fd5b506107546004803603810190808035906020019092919080359060200190929190505050611813565b6040518082815260200191505060405180910390f35b34801561077657600080fd5b5061077f611844565b6040518082815260200191505060405180910390f35b3480156107a157600080fd5b506107c06004803603810190808035906020019092919050505061184e565b005b3480156107ce57600080fd5b506107fb60048036038101908080356000191690602001909291908035906020019092919050505061190d565b005b34801561080957600080fd5b50610848600480360381019080803573ffffffffffffffffffffffffffffffffffffffff16906020019092919080359060200190929190505050611a56565b005b34801561085657600080fd5b5061085f611b87565b6040518082815260200191505060405180910390f35b34801561088157600080fd5b5061088a611b91565b6040518082815260200191505060405180910390f35b3480156108ac57600080fd5b506108b5611b9b565b604051808273ffffffffffffffffffffffffffffffffffffffff1673ffffffffffffffffffffffffffffffffffffffff16815260200191505060405180910390f35b34801561090357600080fd5b5061090c611bc5565b6040518082815260200191505060405180910390f35b34801561092e57600080fd5b5061094d60048036038101908080359060200190929190505050611bcf565b005b34801561095b57600080fd5b5061097e6004803603810190808035600019169060200190929190505050611ca3565b6040518082815260200191505060405180910390f35b3480156109a057600080fd5b506109a9611cc8565b6040518082815260200191505060405180910390f35b3480156109cb57600080fd5b506109d4611cd2565b6040518082815260200191505060405180910390f35b3480156109f657600080fd5b50610a1560048036038101908080359060200190929190505050611cdc565b6040518082815260200191505060405180910390f35b348015610a3757600080fd5b50610a6c600480360381019080803573ffffffffffffffffffffffffffffffffffffffff169060200190929190505050611cff565b005b348015610a7a57600080fd5b50610a9960048036038101908080359060200190929190505050611e26565b6040518082815260200191505060405180910390f35b348015610abb57600080fd5b50610ac4611e49565b6040518082815260200191505060405180910390f35b348015610ae657600080fd5b50610b0560048036038101908080359060200190929190505050611e53565b005b348015610b1357600080fd5b50610b3260048036038101908080359060200190929190505050611f27565b6040518082815260200191505060405180910390f35b6000601a60008373ffffffffffffffffffffffffffffffffffffffff1673ffffffffffffffffffffffffffffffffffffffff168152602001908152602001600020549050919050565b600d60009054906101000a900473ffffffffffffffffffffffffffffffffffffffff1673ffffffffffffffffffffffffffffffffffffffff163373ffffffffffffffffffffffffffffffffffffffff16141515610bed57600080fd5b6000610bfb42600f54611813565b90506002548111151515610c0e57600080fd5b81600581905550610c2a610c2442600f54611813565b83611f4a565b7f79b14b1ae3da333e53039350ff43eb7db1e94e9aa04dd0309da17739eb71e1f2826040518082815260200191505060405180910390a15050565b600d60009054906101000a900473ffffffffffffffffffffffffffffffffffffffff1673ffffffffffffffffffffffffffffffffffffffff163373ffffffffffffffffffffffffffffffffffffffff16141515610cc157600080fd5b6000610ccf42600f54611813565b90506002548111151515610ce257600080fd5b816006819055507f68316f10f1b04b5514f796a24190b629361fe1f032359d378c4e24c90b960586826040518082815260200191505060405180910390a15050565b6000806000601784815481101515610d3857fe5b906000526020600020906003020160000154601785815481101515610d5957fe5b906000526020600020906003020160010154601786815481101515610d7a57fe5b9060005260206000209060030201600201549250925092509193909250565b6000806000601684815481101515610dad57fe5b906000526020600020906003020160000154601685815481101515610dce57fe5b906000526020600020906003020160010154601686815481101515610def57fe5b9060005260206000209060030201600201549250925092509193909250565b600080600080601960008681526020019081526020016000206000015460196000878152602001908152602001600020600101546019600088815260200190815260200160002060020160009054906101000a900473ffffffffffffffffffffffffffffffffffffffff16601960008981526020019081526020016000206003015493509350935093509193509193565b6000601582815481101515610eb057fe5b90600052602060002001549050919050565b600d60009054906101000a900473ffffffffffffffffffffffffffffffffffffffff1673ffffffffffffffffffffffffffffffffffffffff163373ffffffffffffffffffffffffffffffffffffffff16141515610f1e57600080fd5b6000610f2c42600f54611813565b90506002548111151515610f3f57600080fd5b610f54610f4e42600f54611813565b83611ff3565b81600b819055507fe37a7f32a6c06037474d825a4481470f7c589796a67cba84984f64c0c06cbb4c826040518082815260200191505060405180910390a15050565b6000600754905090565b6000600554905090565b600d60009054906101000a900473ffffffffffffffffffffffffffffffffffffffff1673ffffffffffffffffffffffffffffffffffffffff163373ffffffffffffffffffffffffffffffffffffffff1614151561100657600080fd5b600061101442600f54611813565b9050600254811115151561102757600080fd5b816007819055507fcb7897510182eb2dda0ed914834ecbf3063655135751e8c6cdde4c286e21076b826040518082815260200191505060405180910390a15050565b600d60009054906101000a900473ffffffffffffffffffffffffffffffffffffffff1673ffffffffffffffffffffffffffffffffffffffff163373ffffffffffffffffffffffffffffffffffffffff161415156110c557600080fd5b60006110d342600f54611813565b905060025481111515156110e657600080fd5b82601b600086600019166000191681526020019081526020016000208190555081600a8190555061112261111c42600f54611813565b8461209c565b7f8cdc51e58bfe6ee7814eb448b772c113f99ad0ab18fdb06d2a30947aab7ea15e84846040518083600019166000191681526020018281526020019250505060405180910390a150505050565b611177612533565b600d60009054906101000a900473ffffffffffffffffffffffffffffffffffffffff1673ffffffffffffffffffffffffffffffffffffffff163373ffffffffffffffffffffffffffffffffffffffff161415156111d357600080fd5b60006111e142600f54611813565b905060025481111515156111f457600080fd5b606060405190810160405280866000191681526020018573ffffffffffffffffffffffffffffffffffffffff168152602001848152509150601882908060018154018082558091505090600182039060005260206000209060030201600090919290919091506000820151816000019060001916905560208201518160010160006101000a81548173ffffffffffffffffffffffffffffffffffffffff021916908373ffffffffffffffffffffffffffffffffffffffff160217905550604082015181600201555050507fdd0b902d044632fd3825f75f4540b56cb9d44a232d5fa861f37a8b2b8036e0548585856040518084600019166000191681526020018373ffffffffffffffffffffffffffffffffffffffff1673ffffffffffffffffffffffffffffffffffffffff168152602001828152602001935050505060405180910390a15050505050565b600060118281548110151561135157fe5b90600052602060002001549050919050565b600080600060188481548110151561137757fe5b90600052602060002090600302016000015460188581548110151561139857fe5b906000526020600020906003020160010160009054906101000a900473ffffffffffffffffffffffffffffffffffffffff166018868154811015156113d957fe5b9060005260206000209060030201600201549250925092509193909250565b600060138281548110151561140957fe5b90600052602060002001549050919050565b61142361256e565b600d60009054906101000a900473ffffffffffffffffffffffffffffffffffffffff1673ffffffffffffffffffffffffffffffffffffffff163373ffffffffffffffffffffffffffffffffffffffff1614151561147f57600080fd5b600061148d42600f54611813565b905060025481111515156114a057600080fd5b60606040519081016040528042815260200185600019168152602001848152509150601782908060018154018082558091505090600182039060005260206000209060030201600090919290919091506000820151816000015560208201518160010190600019169055604082015181600201555050507f44827de01f14fa337e9e6dd6e4807c57da164be54a00bbdc95ab0a79ed4a1ae984846040518083600019166000191681526020018281526020019250505060405180910390a150505050565b600d60009054906101000a900473ffffffffffffffffffffffffffffffffffffffff1673ffffffffffffffffffffffffffffffffffffffff163373ffffffffffffffffffffffffffffffffffffffff161415156115c057600080fd5b60006115ce42600f54611813565b905060025481111515156115e157600080fd5b81600c819055506115fd6115f742600f54611813565b83612145565b7f98d586001666b5f401b83706e696c08532659c57ff23145199e8234455dfe594826040518082815260200191505060405180910390a15050565b611640612593565b600d60009054906101000a900473ffffffffffffffffffffffffffffffffffffffff1673ffffffffffffffffffffffffffffffffffffffff163373ffffffffffffffffffffffffffffffffffffffff1614151561169c57600080fd5b60006116aa42600f54611813565b905060025481111515156116bd57600080fd5b608060405190810160405280428152602001866000191681526020018573ffffffffffffffffffffffffffffffffffffffff1681526020018481525091508160196000600e548152602001908152602001600020600082015181600001556020820151816001019060001916905560408201518160020160006101000a81548173ffffffffffffffffffffffffffffffffffffffff021916908373ffffffffffffffffffffffffffffffffffffffff16021790555060608201518160030155905050600e600081548092919060010191905055507f3e7bb62dd14b6e0556aa3a2c4391e4b6f050cf80fe57dfecfc15f9f11bd6ac528585856040518084600019166000191681526020018373ffffffffffffffffffffffffffffffffffffffff1673ffffffffffffffffffffffffffffffffffffffff168152602001828152602001935050505060405180910390a15050505050565b600061183c610e1061182e84866121ee90919063ffffffff16565b6122e390919063ffffffff16565b905092915050565b6000600654905090565b600d60009054906101000a900473ffffffffffffffffffffffffffffffffffffffff1673ffffffffffffffffffffffffffffffffffffffff163373ffffffffffffffffffffffffffffffffffffffff161415156118aa57600080fd5b60006118b842600f54611813565b905060025481111515156118cb57600080fd5b816008819055507f06a547bec641a699b67221d17dad6313768d8b80ca2bd95f85c8c0844a672d2b826040518082815260200191505060405180910390a15050565b6119156125d5565b600d60009054906101000a900473ffffffffffffffffffffffffffffffffffffffff1673ffffffffffffffffffffffffffffffffffffffff163373ffffffffffffffffffffffffffffffffffffffff1614151561197157600080fd5b600061197f42600f54611813565b9050600254811115151561199257600080fd5b60606040519081016040528042815260200185600019168152602001848152509150601682908060018154018082558091505090600182039060005260206000209060030201600090919290919091506000820151816000015560208201518160010190600019169055604082015181600201555050507f824372a7577a24b9d788a95c22d19d2fd2413efc0c0ea84d27345b9887ac35aa84846040518083600019166000191681526020018281526020019250505060405180910390a150505050565b600d60009054906101000a900473ffffffffffffffffffffffffffffffffffffffff1673ffffffffffffffffffffffffffffffffffffffff163373ffffffffffffffffffffffffffffffffffffffff16141515611ab257600080fd5b6000611ac042600f54611813565b90506002548111151515611ad357600080fd5b81601a60008573ffffffffffffffffffffffffffffffffffffffff1673ffffffffffffffffffffffffffffffffffffffff168152602001908152602001600020819055507fa2a8e02637d8deaa94e2849af20354bf6b0f580c469b88105477769537efdae48383604051808373ffffffffffffffffffffffffffffffffffffffff1673ffffffffffffffffffffffffffffffffffffffff1681526020018281526020019250505060405180910390a1505050565b6000600454905090565b6000600a54905090565b6000600d60009054906101000a900473ffffffffffffffffffffffffffffffffffffffff16905090565b6000600c54905090565b600d60009054906101000a900473ffffffffffffffffffffffffffffffffffffffff1673ffffffffffffffffffffffffffffffffffffffff163373ffffffffffffffffffffffffffffffffffffffff16141515611c2b57600080fd5b6000611c3942600f54611813565b90506002548111151515611c4c57600080fd5b81600481905550611c68611c6242600f54611813565b836123e1565b7f89c02d6a5a9ee8446940a12ce2587a57a22ce7fdd3ef473e2e4f1ec9e179be2b826040518082815260200191505060405180910390a15050565b6000601b60008360001916600019168152602001908152602001600020549050919050565b6000600854905090565b6000600b54905090565b6000601482815481101515611ced57fe5b90600052602060002001549050919050565b600d60009054906101000a900473ffffffffffffffffffffffffffffffffffffffff1673ffffffffffffffffffffffffffffffffffffffff163373ffffffffffffffffffffffffffffffffffffffff16141515611d5b57600080fd5b6000611d6942600f54611813565b90506002548111151515611d7c57600080fd5b601a60008373ffffffffffffffffffffffffffffffffffffffff1673ffffffffffffffffffffffffffffffffffffffff168152602001908152602001600020600090557f7aa2814bd88dffc7716ebf4ac8b6c95372408cb97eab764ac955036210cc591982604051808273ffffffffffffffffffffffffffffffffffffffff1673ffffffffffffffffffffffffffffffffffffffff16815260200191505060405180910390a15050565b6000601282815481101515611e3757fe5b90600052602060002001549050919050565b6000600954905090565b600d60009054906101000a900473ffffffffffffffffffffffffffffffffffffffff1673ffffffffffffffffffffffffffffffffffffffff163373ffffffffffffffffffffffffffffffffffffffff16141515611eaf57600080fd5b6000611ebd42600f54611813565b90506002548111151515611ed057600080fd5b81600981905550611eec611ee642600f54611813565b8361248a565b7f3c83144856c3610db508b58ca6453018a288a4cd6bd856bac0459c11b48c6a8f826040518082815260200191505060405180910390a15050565b6000601082815481101515611f3857fe5b90600052602060002001549050919050565b60005482111515611f79578060136000815481101515611f6657fe5b9060005260206000200181905550611fef565b60005482118015611f8c57506001548211155b15611fb5578060136001815481101515611fa257fe5b9060005260206000200181905550611fee565b60015482118015611fc857506002548211155b15611fed578060136002815481101515611fde57fe5b90600052602060002001819055505b5b5b5050565b6000548211151561202257806010600081548110151561200f57fe5b9060005260206000200181905550612098565b6000548211801561203557506001548211155b1561205e57806010600181548110151561204b57fe5b9060005260206000200181905550612097565b6001548211801561207157506002548211155b1561209657806010600281548110151561208757fe5b90600052602060002001819055505b5b5b5050565b600054821115156120cb5780601160008154811015156120b857fe5b9060005260206000200181905550612141565b600054821180156120de57506001548211155b156121075780601160018154811015156120f457fe5b9060005260206000200181905550612140565b6001548211801561211a57506002548211155b1561213f57806011600281548110151561213057fe5b90600052602060002001819055505b5b5b5050565b6000548211151561217457806015600081548110151561216157fe5b90600052602060002001819055506121ea565b6000548211801561218757506001548211155b156121b057806015600181548110151561219d57fe5b90600052602060002001819055506121e9565b600154821180156121c357506002548211155b156121e85780601560028154811015156121d957fe5b90600052602060002001819055505b5b5b5050565b600080838311156040805190810160405280601281526020017f4d4154485f5355425f554e444552464c4f5700000000000000000000000000008152509015156122d3576040517f08c379a00000000000000000000000000000000000000000000000000000000081526004018080602001828103825283818151815260200191508051906020019080838360005b8381101561229857808201518184015260208101905061227d565b50505050905090810190601f1680156122c55780820380516001836020036101000a031916815260200191505b509250505060405180910390fd5b5082840390508091505092915050565b600080600083116040805190810160405280600d81526020017f4d4154485f4449565f5a45524f000000000000000000000000000000000000008152509015156123c8576040517f08c379a00000000000000000000000000000000000000000000000000000000081526004018080602001828103825283818151815260200191508051906020019080838360005b8381101561238d578082015181840152602081019050612372565b50505050905090810190601f1680156123ba5780820380516001836020036101000a031916815260200191505b509250505060405180910390fd5b5082848115156123d457fe5b0490508091505092915050565b600054821115156124105780601460008154811015156123fd57fe5b9060005260206000200181905550612486565b6000548211801561242357506001548211155b1561244c57806014600181548110151561243957fe5b9060005260206000200181905550612485565b6001548211801561245f57506002548211155b1561248457806014600281548110151561247557fe5b90600052602060002001819055505b5b5b5050565b600054821115156124b95780601260008154811015156124a657fe5b906000526020600020018190555061252f565b600054821180156124cc57506001548211155b156124f55780601260018154811015156124e257fe5b906000526020600020018190555061252e565b6001548211801561250857506002548211155b1561252d57806012600281548110151561251e57fe5b90600052602060002001819055505b5b5b5050565b60606040519081016040528060008019168152602001600073ffffffffffffffffffffffffffffffffffffffff168152602001600081525090565b6060604051908101604052806000815260200160008019168152602001600081525090565b6080604051908101604052806000815260200160008019168152602001600073ffffffffffffffffffffffffffffffffffffffff168152602001600081525090565b60606040519081016040528060008152602001600080191681526020016000815250905600a165627a7a72305820175b7227ac3c337df48151d96b7830ac71193ebd7072c9ec02a5f3c77aad9de70029",
  "source": "pragma solidity 0.4.24;\n\nimport \"contracts/interfaces/ICashflowStatement.sol\";\n\nimport \"@aragon/os/contracts/lib/math/SafeMath.sol\";\n\ncontract CashflowStatement is ICashflowStatement {\n\n  using SafeMath for uint256;\n\n  //Structs\n\n  struct NonRecurrentSalary {\n\n    uint256 timestamp;\n\n    bytes32 employeeType;\n\n    address employee;\n\n    uint256 payment;\n\n  }\n\n  struct InterestPayment {\n\n    bytes32 interestType;\n\n    address receiver;\n\n    uint256 amount;\n\n  }\n\n  struct IncomeTax {\n\n    uint256 date;\n\n    bytes32 forWhat;\n\n    uint256 howMuch;\n\n  }\n\n  struct Rent {\n\n    uint256 date;\n\n    bytes32 forWhat;\n\n    uint256 howMuch;\n\n  }\n\n  //Constants\n\n  uint256 month = 712;\n  uint256 twoMonths = 1424;\n  uint256 quarter = 2136;\n  uint256 year = 8544;\n\n  //Indices\n\n  uint256 netEarnings;\n\n  //Additions to cash\n\n  uint256 depreciations;\n\n  uint256 decreasesInAccReceivable;\n\n  uint256 increaseInAccPayable;\n\n  uint256 increaseInTaxesPayable;\n\n  //Substractions from cash\n\n  uint256 increaseInInventory;\n\n  uint256 totalEquipmentExpenses;\n\n  uint256 charity;\n\n  uint256 totalDividentsPaid;\n\n  //Misscelaneous\n\n  address dao;\n\n  uint256 nonRecurrentNonce = 0;\n\n  uint256 startTime;\n\n  //Monthly accounting\n\n  uint256[] monthlyCharity = new uint256[](3);\n\n  uint256[] monthlyTotalEquipment = new uint256[](3);\n\n  uint256[] monthlyIncreaseInInventory = new uint256[](3);\n\n  uint256[] monthlyDepreciations = new uint256[](3);\n\n  uint256[] monthlyNetEarnings = new uint256[](3);\n\n  uint256[] monthlyDividentsPaid = new uint256[](3);\n\n  //Struct arrays\n\n  IncomeTax[] incomeTaxes;\n\n  Rent[] rents;\n\n  InterestPayment[] interestPayments;\n\n  //Salaries\n\n  mapping(uint256 => NonRecurrentSalary) nonRecurrentSalaries;\n\n  mapping(address => uint256) recurrentSalaries;\n\n  //Equipment expenses details\n\n  mapping(bytes32 => uint256) equipmentExpenses;\n\n  modifier onlyDAO() {\n\n    require(msg.sender == dao);\n\n    _;\n\n  }\n\n  modifier inQuarter {\n\n    uint _hours = getHours(now, startTime);\n\n    require(_hours <= quarter);\n\n    _;\n\n  }\n\n  constructor(address _dao) {\n\n    dao = _dao;\n\n    startTime = now;\n\n  }\n\n  function updateNetEarnings(uint256 earnings) public onlyDAO inQuarter {\n\n    netEarnings = earnings;\n\n    addToMonthlyNetIncome(getHours(now, startTime), earnings);\n\n    emit UpdatedNetEarnings(earnings);\n\n  }\n\n  function updateDepreciations(uint256 _depreciations) public onlyDAO inQuarter {\n\n    depreciations = _depreciations;\n\n    addToMonthlyDepreciations(getHours(now, startTime), _depreciations);\n\n    emit UpdatedDepreciations(_depreciations);\n\n  }\n\n  function updateDecreasesInAcc(uint256 decreases) public onlyDAO inQuarter {\n\n    decreasesInAccReceivable = decreases;\n\n    emit UpdatedDecreasesInAcc(decreases);\n\n  }\n\n  function updateIncreasesInAcc(uint256 increases) public onlyDAO inQuarter {\n\n    increaseInAccPayable = increases;\n\n    emit UpdatedIncreasesInAcc(increases);\n\n  }\n\n  function updateIncreaseInTaxes(uint256 taxes) public onlyDAO inQuarter {\n\n    increaseInTaxesPayable = taxes;\n\n    emit UpdatedIncreasesInTaxes(taxes);\n\n  }\n\n  function updateDividentsPaid(uint256 dividents) public onlyDAO inQuarter {\n\n    totalDividentsPaid = dividents;\n\n    addToMonthlyDividents(getHours(now, startTime), dividents);\n\n    emit UpdatedDividents(dividents);\n\n  }\n\n  function updateIncreaseInInventory(uint256 inventory) public onlyDAO inQuarter {\n\n    increaseInInventory = inventory;\n\n    addToMonthlyIncreaseInInventory(getHours(now, startTime), inventory);\n\n    emit UpdatedIncreasesInInventory(inventory);\n\n  }\n\n  function setEquipmentExpenses(bytes32 updateReason, uint256 equipment, uint256 total) public onlyDAO inQuarter {\n\n    equipmentExpenses[updateReason] = equipment;\n\n    totalEquipmentExpenses = total;\n\n    addToMonthlyTotalEquipment(getHours(now, startTime), equipment);\n\n    emit SetEquipmentExpenses(updateReason, equipment);\n\n  }\n\n  function setCharity(uint256 _charity) public onlyDAO inQuarter {\n\n    addToMonthlyCharity(getHours(now, startTime), _charity);\n\n    charity = _charity;\n\n    emit SetCharity(_charity);\n\n  }\n\n  function addNonRecurrentSalary(bytes32 employeeT, address who, uint256 payment) public onlyDAO inQuarter {\n\n    NonRecurrentSalary memory newSalary = NonRecurrentSalary(now, employeeT, who, payment);\n\n    nonRecurrentSalaries[nonRecurrentNonce] = newSalary;\n\n    nonRecurrentNonce++;\n\n    emit AddedNonRecurrentSalary(employeeT, who, payment);\n\n  }\n\n  function addRecurrentSalary(address employee, uint256 salary) public onlyDAO inQuarter {\n\n    recurrentSalaries[employee] = salary;\n\n    emit AddedRecurrentSalary(employee, salary);\n\n  }\n\n  function deleteRecurrentSalary(address employee) public onlyDAO inQuarter {\n\n    delete(recurrentSalaries[employee]);\n\n    emit DeletedRecurrentSalary(employee);\n\n  }\n\n  function addRent(bytes32 reason, uint256 howMuch) public onlyDAO inQuarter {\n\n    Rent memory newRent = Rent(now, reason, howMuch);\n\n    rents.push(newRent);\n\n    emit AddedRent(reason, howMuch);\n\n  }\n\n  function addIncomeTax(bytes32 reason, uint256 howMuch) public onlyDAO inQuarter {\n\n    IncomeTax memory newIncome = IncomeTax(now, reason, howMuch);\n\n    incomeTaxes.push(newIncome);\n\n    emit AddedIncomeTax(reason, howMuch);\n\n  }\n\n  function addInterestPayment(bytes32 _type, address receiver, uint256 amount) public onlyDAO inQuarter {\n\n    InterestPayment memory newInterest = InterestPayment(_type, receiver, amount);\n\n    interestPayments.push(newInterest);\n\n    emit AddedInterestPayment(_type, receiver, amount);\n\n  }\n\n  //PRIVATE\n\n  function addToMonthlyNetIncome(uint256 _hours, uint256 howMuch) private {\n\n    if (_hours <= month)\n      monthlyNetEarnings[0] = howMuch;\n\n    else if (_hours > month && _hours <= twoMonths)\n      monthlyNetEarnings[1] = howMuch;\n\n    else if (_hours > twoMonths && _hours <= quarter)\n      monthlyNetEarnings[2] = howMuch;\n\n  }\n\n  function addToMonthlyDepreciations(uint256 _hours, uint256 howMuch) private {\n\n    if (_hours <= month)\n      monthlyDepreciations[0] = howMuch;\n\n    else if (_hours > month && _hours <= twoMonths)\n      monthlyDepreciations[1] = howMuch;\n\n    else if (_hours > twoMonths && _hours <= quarter)\n      monthlyDepreciations[2] = howMuch;\n\n  }\n\n  function addToMonthlyIncreaseInInventory(uint256 _hours, uint256 howMuch) private {\n\n    if (_hours <= month)\n      monthlyIncreaseInInventory[0] = howMuch;\n\n    else if (_hours > month && _hours <= twoMonths)\n      monthlyIncreaseInInventory[1] = howMuch;\n\n    else if (_hours > twoMonths && _hours <= quarter)\n      monthlyIncreaseInInventory[2] = howMuch;\n\n  }\n\n  function addToMonthlyTotalEquipment(uint256 _hours, uint256 howMuch) private {\n\n    if (_hours <= month)\n      monthlyTotalEquipment[0] = howMuch;\n\n    else if (_hours > month && _hours <= twoMonths)\n      monthlyTotalEquipment[1] = howMuch;\n\n    else if (_hours > twoMonths && _hours <= quarter)\n      monthlyTotalEquipment[2] = howMuch;\n\n  }\n\n  function addToMonthlyCharity(uint256 _hours, uint256 howMuch) private {\n\n    if (_hours <= month)\n      monthlyCharity[0] = howMuch;\n\n    else if (_hours > month && _hours <= twoMonths)\n      monthlyCharity[1] = howMuch;\n\n    else if (_hours > twoMonths && _hours <= quarter)\n      monthlyCharity[2] = howMuch;\n\n  }\n\n  function addToMonthlyDividents(uint256 _hours, uint256 howMuch) private {\n\n    if (_hours <= month)\n      monthlyDividentsPaid[0] = howMuch;\n\n    else if (_hours > month && _hours <= twoMonths)\n      monthlyDividentsPaid[1] = howMuch;\n\n    else if (_hours > twoMonths && _hours <= quarter)\n      monthlyDividentsPaid[2] = howMuch;\n\n  }\n\n\n  //GETTERS\n\n  function getHours(uint256 endTime, uint256 startTime) public view returns (uint256) {\n\n    return (endTime.sub(startTime)).div(3600);\n\n  }\n\n  function getNetEarnings() public view returns (uint256) {\n\n    return netEarnings;\n\n  }\n\n  function getDepreciations() public view returns (uint256) {\n\n    return depreciations;\n\n  }\n\n  function getDeccInAcc() public view returns (uint256) {\n\n    return decreasesInAccReceivable;\n\n  }\n\n  function getIncInAcc() public view returns (uint256) {\n\n    return increaseInAccPayable;\n\n  }\n\n  function getIncInTaxes() public view returns (uint256) {\n\n    return increaseInTaxesPayable;\n\n  }\n\n  function getIncreaseInInventory() public view returns (uint256) {\n\n    return increaseInInventory;\n\n  }\n\n  function getTotalEquipment() public view returns (uint256) {\n\n    return totalEquipmentExpenses;\n\n  }\n\n  function getCharity() public view returns (uint256) {\n\n    return charity;\n\n  }\n\n  function getNonRecurrentSalary(uint256 pos) public view returns (uint256, bytes32, address, uint256) {\n\n    return (nonRecurrentSalaries[pos].timestamp, nonRecurrentSalaries[pos].employeeType,\n            nonRecurrentSalaries[pos].employee, nonRecurrentSalaries[pos].payment);\n\n  }\n\n  function getIncomeTax(uint256 pos) public view returns (uint256, bytes32, uint256) {\n\n    return (incomeTaxes[pos].date, incomeTaxes[pos].forWhat, incomeTaxes[pos].howMuch);\n\n  }\n\n  function getRent(uint256 pos) public view returns (uint256, bytes32, uint256) {\n\n    return (rents[pos].date, rents[pos].forWhat, rents[pos].howMuch);\n\n  }\n\n  function getInterest(uint256 pos) public view returns (bytes32, address, uint256) {\n\n    return (interestPayments[pos].interestType, interestPayments[pos].receiver,\n            interestPayments[pos].amount);\n\n  }\n\n  function getRecurrentSalary(address who) public view returns (uint256) {\n\n    return recurrentSalaries[who];\n\n  }\n\n  function getEquipmentDetails(bytes32 reason) public view returns (uint256) {\n\n    return equipmentExpenses[reason];\n\n  }\n\n  function getMonthlyCharity(uint256 position) public view returns (uint256) {\n\n    return monthlyCharity[position];\n\n  }\n\n  function getMonthlyTotalEquipment(uint256 position) public view returns (uint256) {\n\n    return monthlyTotalEquipment[position];\n\n  }\n\n  function getMonthlyIncreaseInInventory(uint256 position) public view returns (uint256) {\n\n    return monthlyIncreaseInInventory[position];\n\n  }\n\n  function getMonthlyDepreciations(uint256 position) public view returns (uint256) {\n\n    return monthlyDepreciations[position];\n\n  }\n\n  function getMonthlyNetEarnings(uint256 position) public view returns (uint256) {\n\n    return monthlyNetEarnings[position];\n\n  }\n\n  function getMonthlyDividentsPaid(uint256 position) public view returns (uint256) {\n\n    return monthlyDividentsPaid[position];\n\n  }\n\n  function getTotalDividentsPaid() public view returns (uint256) {\n\n    return totalDividentsPaid;\n\n  }\n\n  function getDao() public view returns (address) {\n\n    return dao;\n\n  }\n\n}\n",
  "sourcePath": "/home/stefan/Work/TransparentDao/contracts/accounting/statements/CashflowStatement.sol",
  "compiler": {
    "name": "solc",
    "version": "0.4.24+commit.e67f0147.Emscripten.clang"
  },
  "schemaVersion": "2.0.1",
  "updatedAt": "2018-12-20T23:25:27.032Z"
}