{
  "contractName": "FloatMath",
  "abi": [
    {
      "constant": true,
      "inputs": [
        {
          "name": "a",
          "type": "bytes32"
        }
      ],
      "name": "toArray",
      "outputs": [
        {
          "name": "result",
          "type": "uint256[3]"
        }
      ],
      "payable": false,
      "stateMutability": "pure",
      "type": "function"
    },
    {
      "constant": true,
      "inputs": [
        {
          "name": "_array",
          "type": "uint256[3]"
        }
      ],
      "name": "fromArray",
      "outputs": [
        {
          "name": "packed",
          "type": "bytes32"
        }
      ],
      "payable": false,
      "stateMutability": "pure",
      "type": "function"
    },
    {
      "constant": true,
      "inputs": [
        {
          "name": "a",
          "type": "bytes32"
        },
        {
          "name": "b",
          "type": "bytes32"
        }
      ],
      "name": "add",
      "outputs": [
        {
          "name": "result",
          "type": "bytes32"
        }
      ],
      "payable": false,
      "stateMutability": "pure",
      "type": "function"
    },
    {
      "constant": true,
      "inputs": [
        {
          "name": "a",
          "type": "bytes32"
        }
      ],
      "name": "negate",
      "outputs": [
        {
          "name": "result",
          "type": "bytes32"
        }
      ],
      "payable": false,
      "stateMutability": "pure",
      "type": "function"
    },
    {
      "constant": true,
      "inputs": [
        {
          "name": "a",
          "type": "bytes32"
        },
        {
          "name": "b",
          "type": "bytes32"
        }
      ],
      "name": "sub",
      "outputs": [
        {
          "name": "result",
          "type": "bytes32"
        }
      ],
      "payable": false,
      "stateMutability": "pure",
      "type": "function"
    },
    {
      "constant": true,
      "inputs": [
        {
          "name": "a",
          "type": "bytes32"
        },
        {
          "name": "b",
          "type": "bytes32"
        }
      ],
      "name": "mul",
      "outputs": [
        {
          "name": "result",
          "type": "bytes32"
        }
      ],
      "payable": false,
      "stateMutability": "pure",
      "type": "function"
    },
    {
      "constant": true,
      "inputs": [
        {
          "name": "a",
          "type": "bytes32"
        }
      ],
      "name": "fastInvSqrt",
      "outputs": [
        {
          "name": "result",
          "type": "bytes32"
        }
      ],
      "payable": false,
      "stateMutability": "pure",
      "type": "function"
    },
    {
      "constant": true,
      "inputs": [
        {
          "name": "a",
          "type": "bytes32"
        },
        {
          "name": "b",
          "type": "bytes32"
        }
      ],
      "name": "div",
      "outputs": [
        {
          "name": "result",
          "type": "bytes32"
        }
      ],
      "payable": false,
      "stateMutability": "pure",
      "type": "function"
    },
    {
      "constant": true,
      "inputs": [
        {
          "name": "a",
          "type": "bytes32"
        },
        {
          "name": "b",
          "type": "bytes32"
        }
      ],
      "name": "divNaive",
      "outputs": [
        {
          "name": "result",
          "type": "bytes32"
        }
      ],
      "payable": false,
      "stateMutability": "pure",
      "type": "function"
    },
    {
      "constant": true,
      "inputs": [
        {
          "name": "a",
          "type": "bytes32"
        },
        {
          "name": "b",
          "type": "bytes32"
        }
      ],
      "name": "compare",
      "outputs": [
        {
          "name": "result",
          "type": "int8"
        }
      ],
      "payable": false,
      "stateMutability": "pure",
      "type": "function"
    },
    {
      "constant": true,
      "inputs": [
        {
          "name": "a",
          "type": "bytes32"
        },
        {
          "name": "b",
          "type": "bytes32"
        }
      ],
      "name": "compareAbs",
      "outputs": [
        {
          "name": "result",
          "type": "int8"
        }
      ],
      "payable": false,
      "stateMutability": "pure",
      "type": "function"
    },
    {
      "constant": true,
      "inputs": [
        {
          "name": "a",
          "type": "bytes32"
        }
      ],
      "name": "log2bytes",
      "outputs": [
        {
          "name": "result",
          "type": "bytes32"
        }
      ],
      "payable": false,
      "stateMutability": "pure",
      "type": "function"
    },
    {
      "constant": true,
      "inputs": [
        {
          "name": "a",
          "type": "int256"
        }
      ],
      "name": "initFromInt",
      "outputs": [
        {
          "name": "result",
          "type": "bytes32"
        }
      ],
      "payable": false,
      "stateMutability": "pure",
      "type": "function"
    }
  ],
  "bytecode": "0x608060405234801561001057600080fd5b50611a15806100206000396000f3006080604052600436106100c5576000357c0100000000000000000000000000000000000000000000000000000000900463ffffffff1680631d75a274146100ca57806328602ab2146101175780632f1a549b1461017057806330297400146101b957806341aa0080146102145780635139adf11461026f5780636e772521146102c857806385cf47e514610315578063932b42221461038257806396ce1ec7146103dd578063baf4839e14610438578063ca24019414610485578063d1de592a146104f3575b600080fd5b3480156100d657600080fd5b506100f9600480360381019080803560001916906020019092919050505061054e565b60405180826000191660001916815260200191505060405180910390f35b34801561012357600080fd5b506101546004803603810190808035600019169060200190929190803560001916906020019092919050505061057c565b604051808260000b60000b815260200191505060405180910390f35b34801561017c57600080fd5b5061019b600480360381019080803590602001909291905050506105b8565b60405180826000191660001916815260200191505060405180910390f35b3480156101c557600080fd5b506101f6600480360381019080803560001916906020019092919080356000191690602001909291905050506105f4565b60405180826000191660001916815260200191505060405180910390f35b34801561022057600080fd5b5061025160048036038101908080356000191690602001909291908035600019169060200190929190505050610696565b60405180826000191660001916815260200191505060405180910390f35b34801561027b57600080fd5b506102ac600480360381019080803560001916906020019092919080356000191690602001909291905050506106e2565b604051808260000b60000b815260200191505060405180910390f35b3480156102d457600080fd5b506102f7600480360381019080803560001916906020019092919050505061071e565b60405180826000191660001916815260200191505060405180910390f35b34801561032157600080fd5b506103446004803603810190808035600019169060200190929190505050610841565b6040518082600360200280838360005b8381101561036f578082015181840152602081019050610354565b5050505090500191505060405180910390f35b34801561038e57600080fd5b506103bf600480360381019080803560001916906020019092919080356000191690602001909291905050506108f2565b60405180826000191660001916815260200191505060405180910390f35b3480156103e957600080fd5b5061041a60048036038101908080356000191690602001909291908035600019169060200190929190505050610936565b60405180826000191660001916815260200191505060405180910390f35b34801561044457600080fd5b50610467600480360381019080803560001916906020019092919050505061097a565b60405180826000191660001916815260200191505060405180910390f35b34801561049157600080fd5b506104d560048036038101908080606001906003806020026040519081016040528092919082600360200280828437820191505050505091929192905050506109ad565b60405180826000191660001916815260200191505060405180910390f35b3480156104ff57600080fd5b5061053060048036038101908080356000191690602001909291908035600019169060200190929190505050610a8f565b60405180826000191660001916815260200191505060405180910390f35b60006105586119c6565b61056183610841565b905061057461056f82610ad3565b6109ad565b915050919050565b60006105866119c6565b61058e6119c6565b61059785610841565b91506105a284610841565b90506105ae8282610cab565b9250505092915050565b60006105c26119c6565b60008314156105d757600060010291506105ee565b6105e083610da8565b90506105eb816109ad565b91505b50919050565b6000806000600102600019168360001916141561061057600080fd5b600161062060006001028561057c565b60000b1415610669576106328361097a565b9050610657846106526106448461071e565b61064d8561071e565b610936565b610936565b90506106628161097a565b915061068f565b61068c6106758461071e565b610687866106828761071e565b610936565b610936565b91505b5092915050565b60006106a06119c6565b6106a86119c6565b6106b185610841565b91506106c46106bf8561097a565b610841565b90506106d86106d38383610eb0565b6109ad565b9250505092915050565b60006106ec6119c6565b6106f46119c6565b6106fd85610841565b915061070884610841565b905061071482826111a4565b9250505092915050565b6000806107296119c6565b6107316119c6565b6107396119c6565b600161074987600060010261057c565b60000b14151561075857600080fd5b600186600190049060020a90047f5fffe6eb50c7b537a9cd9f02e504fcfbfd9ec519e04e8f0a29d961d2aaeb2223600102600190040393506107bc7f3ffff80000000000000000000000000000000000000000000000000000000000600102610841565b92506107ca84600102610841565b91506107d586610841565b905060018160016003811015156107e857fe5b6020020151038160016003811015156107fd57fe5b60200201818152505061082b82610826856108218561081c88896112cb565b6112cb565b61159c565b6112cb565b9150610836826109ad565b945050505050919050565b6108496119c6565b6000806000806001026000191685600019161415610869578393506108ea565b60ff85600019169060020a9004600190049250600160ec01600186600019169060020a02600019169060020a900460019004915060ec60019060020a026001601301600160130187600019169060020a02600019169060020a9004600190040190506060604051908101604052808481526020018381526020018281525093505b505050919050565b60006108fc6119c6565b6109046119c6565b61090d85610841565b915061091884610841565b905061092c6109278383611697565b6109ad565b9250505092915050565b60006109406119c6565b6109486119c6565b61095185610841565b915061095c84610841565b905061097061096b83836112cb565b6109ad565b9250505092915050565b6000806001026000191682600019161415610997578190506109a8565b60ff60019060020a02600102821890505b919050565b60008060008060008560006003811015156109c457fe5b60200201511480156109e9575060008560016003811015156109e257fe5b6020020151145b8015610a0857506000856002600381101515610a0157fe5b6020020151145b15610a195760006001029350610a87565b60ff856000600381101515610a2a57fe5b60200201519060020a02600102925060ec856001600381101515610a4a57fe5b60200201519060020a02600102915060ec60019060020a02600102856002600381101515610a7457fe5b6020020151600102189050808284171793505b505050919050565b6000610a996119c6565b610aa16119c6565b610aaa85610841565b9150610ab584610841565b9050610ac9610ac48383610eb0565b6109ad565b9250505092915050565b610adb6119c6565b610ae36119c6565b610aeb6119c6565b610af36119c6565b610afb6119c6565b6000806000886000600381101515610b0f57fe5b6020020151141515610b2057600080fd5b610b416203ffff896001600381101515610b3657fe5b602002015103610da8565b9650610b4d6001610da8565b9550610b596002610da8565b9450610b77886002600381101515610b6d57fe5b6020020151610da8565b935060606040519081016040528060008152602001600081526020016000815250925060ec846001600381101515610bab57fe5b602002015103846001600381101515610bc057fe5b60200201818152505060109150600190505b8181111515610c6257610be584856112cb565b9350610bf183866112cb565b92506000811415610c0457839650610ca0565b6001610c108587610cab565b60000b1415610c5557610c238387610eb0565b92506001846001600381101515610c3657fe5b602002015103846001600381101515610c4b57fe5b6020020181815250505b8080600101915050610bd2565b81836001600381101515610c7257fe5b602002015103836001600381101515610c8757fe5b602002018181525050610c9a8784610eb0565b96508696505b505050505050919050565b600080836000600381101515610cbd57fe5b6020020151148015610ce257506000826000600381101515610cdb57fe5b6020020151145b15610cf857610cf183836111a4565b9050610da2565b6001836000600381101515610d0957fe5b6020020151148015610d2e57506001826000600381101515610d2757fe5b6020020151145b15610d4757610d3d83836111a4565b6000039050610da2565b816000600381101515610d5657fe5b6020020151836000600381101515610d6a57fe5b60200201511115610d9d577fffffffffffffffffffffffffffffffffffffffffffffffffffffffffffffffff9050610da2565b600190505b92915050565b610db06119c6565b6000806000806000861415610dc757849450610ea7565b859350600092506000841215610de257600192508360000393505b60ec6203ffff0191508390505b600160ec60029060020a0203811115610e1a576001819060020a900490508180600101925050610def565b5b60ec60019060020a02811015610e43576001819060020a029050818060019003925050610e1b565b60ec60019060020a028110158015610e665750600160ec60029060020a02038111155b1515610e6e57fe5b6207ffff82108015610e805750600082115b1515610e8857fe5b6060604051908101604052808481526020018381526020018281525094505b50505050919050565b610eb86119c6565b6000806000806000806000806000808c6000600381101515610ed657fe5b6020020151148015610efb575060008c6001600381101515610ef457fe5b6020020151145b8015610f1a575060008c6002600381101515610f1357fe5b6020020151145b15610f27578a9950611195565b60008b6000600381101515610f3857fe5b6020020151148015610f5d575060008b6001600381101515610f5657fe5b6020020151145b8015610f7c575060008b6002600381101515610f7557fe5b6020020151145b15610f89578b9950611195565b8b6001600381101515610f9857fe5b602002015198508b6001600381101515610fae57fe5b602002015197508a6001600381101515610fc457fe5b602002015196508b6002600381101515610fda57fe5b602002015195508a6002600381101515610ff057fe5b602002015194508b600060038110151561100657fe5b602002015193508a600060038110151561101c57fe5b6020020151925060009150600090508787111561104757869850878703869060020a9004955061105d565b8688111561105c57868803859060020a900494505b5b60028385011415611076576001905084860191506110f2565b60018414156110ae5784861115611095578486039150600190506110a9565b85851015156110a8578585039150600090505b5b6110f1565b60018314156110e657858511156110cd578585039150600190506110e1565b84861015156110e0578486039150600090505b5b6110f0565b8486019150600090505b5b5b600082141561112157606060405190810160405280600081526020016000815260200160008152509950611195565b5b600160ec60029060020a020382111561114d576001829060020a900491508880600101995050611122565b5b60ec60019060020a02821015611176576001829060020a02915088806001900399505061114e565b6060604051908101604052808281526020018a81526020018381525099505b50505050505050505092915050565b60008160016003811015156111b557fe5b60200201518360016003811015156111c957fe5b602002015111156111dd57600190506112c5565b8160016003811015156111ec57fe5b602002015183600160038110151561120057fe5b60200201511015611233577fffffffffffffffffffffffffffffffffffffffffffffffffffffffffffffffff90506112c5565b81600260038110151561124257fe5b602002015183600260038110151561125657fe5b6020020151111561126a57600190506112c5565b81600260038110151561127957fe5b602002015183600260038110151561128d57fe5b602002015110156112c0577fffffffffffffffffffffffffffffffffffffffffffffffffffffffffffffffff90506112c5565b600090505b92915050565b6112d36119c6565b6000806000806000806000806000808c60006003811015156112f157fe5b6020020151148015611316575060008c600160038110151561130f57fe5b6020020151145b8015611335575060008c600260038110151561132e57fe5b6020020151145b156113605760606040519081016040528060008152602001600081526020016000815250995061158d565b60008b600060038110151561137157fe5b6020020151148015611396575060008b600160038110151561138f57fe5b6020020151145b80156113b5575060008b60026003811015156113ae57fe5b6020020151145b156113e05760606040519081016040528060008152602001600081526020016000815250995061158d565b60028b60006003811015156113f157fe5b60200201518d600060038110151561140557fe5b60200201510181151561141457fe5b0698506203ffff8b600160038110151561142a57fe5b60200201518d600160038110151561143e57fe5b6020020151010397506207ffff88111561145757600080fd5b600160ec9060020a90048c600260038110151561147057fe5b60200201519060020a90049650610100600160ec9060020a900460ff038d600260038110151561149c57fe5b60200201519060020a029060020a90049550600160ec9060020a90048b60026003811015156114c757fe5b60200201519060020a90049450610100600160ec9060020a900460ff038c60026003811015156114f357fe5b60200201519060020a029060020a9004935083860292508486028488020191508487029050600160ec9060020a9004839060020a900482019150600160ec9060020a9004829060020a9004810190505b600160ec60029060020a020381111561156e576001819060020a900490508780600101985050611543565b6060604051908101604052808a81526020018981526020018281525099505b50505050505050505092915050565b6115a46119c6565b6115ac6119c6565b60008460006003811015156115bd57fe5b60200201511480156115e2575060008460016003811015156115db57fe5b6020020151145b8015611601575060008460026003811015156115fa57fe5b6020020151145b156116165761160f836118f0565b9150611690565b600083600060038110151561162757fe5b602002015114801561164c5750600083600160038110151561164557fe5b6020020151145b801561166b5750600083600260038110151561166457fe5b6020020151145b1561167857839150611690565b611681836118f0565b905061168d8482610eb0565b91505b5092915050565b61169f6119c6565b60008060008060008060008060008060008060008f60006003811015156116c257fe5b60200201511480156116e7575060008f60016003811015156116e057fe5b6020020151145b8015611706575060008f60026003811015156116ff57fe5b6020020151145b1561173157606060405190810160405280600081526020016000815260200160008152509c506118de565b60008e600060038110151561174257fe5b6020020151148015611767575060008e600160038110151561176057fe5b6020020151145b8015611786575060008e600260038110151561177f57fe5b6020020151145b1561179057600080fd5b8e600160038110151561179f57fe5b60200201519b508d60016003811015156117b557fe5b60200201519a508e60026003811015156117cb57fe5b602002015199508d60026003811015156117e157fe5b602002015198508e60006003811015156117f757fe5b602002015197508d600060038110151561180d57fe5b602002015196508a8c6203ffff0103955060008611801561183057506207ffff86105b151561183857fe5b600287890181151561184657fe5b06945060009350899250888a101561186c576001839060020a0292508580600190039650505b60ec9150600090505b60ec8110156118bf5781898481151561188a57fe5b049060020a0284019350818060019003925050600189848115156118aa57fe5b069060020a0292508080600101915050611875565b606060405190810160405280868152602001878152602001858152509c505b50505050505050505050505092915050565b6118f86119c6565b600082600060038110151561190957fe5b602002015114801561192e5750600082600160038110151561192757fe5b6020020151145b801561194d5750600082600260038110151561194657fe5b6020020151145b1561195a578190506119c1565b6060604051908101604052806002600185600060038110151561197957fe5b60200201510181151561198857fe5b06815260200183600160038110151561199d57fe5b602002015181526020018360026003811015156119b657fe5b602002015181525090505b919050565b6060604051908101604052806003906020820280388339808201915050905050905600a165627a7a7230582017ab157dd90cb34f8298e79e1a7ec1d750435e59ee904031765301918fbdd6100029",
  "source": "pragma solidity 0.4.24;\n\nimport \"contracts/interfaces/IFloatMath.sol\";\n\ncontract FloatMath is IFloatMath {\n\n    uint256 constant SIGNIF_BITS = 236;\n    uint256 constant EXP_BITS = 19;\n    uint256 constant SIGN_BITS = 1;\n\n    uint256 constant EXP_MIN = 0;\n    uint256 constant EXP_BIAS = 262143;\n    uint256 constant EXP_MAX = 524287;\n\n    uint256 constant INT128_MAX = (uint256(1) << 127) - 1;\n    uint256 constant INT128_MIN = (uint256(1) << 127);\n\n    uint256 constant SIGNIF_MAX = (uint256(2) << SIGNIF_BITS) - 1;\n    uint256 constant SIGNIF_MIN = (uint256(1) << SIGNIF_BITS);\n    bytes32 constant SIGNIF_MAX_BYTES = bytes32(SIGNIF_MAX);\n    bytes32 constant SIGNIF_MIN_BYTES = bytes32(SIGNIF_MIN);\n\n    bytes32 constant ZERO_BYTES = bytes32(0);\n\n    uint256 constant INV_SQRT_MAGIC = uint256(bytes32(0x5fffe6eb50c7b537a9cd9f02e504fcfbfd9ec519e04e8f0a29d961d2aaeb2223));\n\n    function toArray(bytes32 a) public pure returns (uint256[3] memory result) {\n        if (a == ZERO_BYTES) {\n            return result;\n        }\n        uint256 newSign = uint256(a >> 255);\n        uint256 newExp = uint256((a << SIGN_BITS) >> (SIGNIF_BITS+SIGN_BITS));\n        // uint256 newExp = uint256((a >> SIGNIF_BITS) & SIGN_REMOVAL_MASK);\n        // uint256 newExp = uint256((a >> SIGNIF_BITS));\n        uint256 newSignif = uint256((a << (EXP_BITS + SIGN_BITS)) >> (EXP_BITS + SIGN_BITS)) + SIGNIF_MIN;\n        return [newSign, newExp, newSignif];\n    }\n\n    function fromArray(uint256[3] _array) public pure returns (bytes32 packed) {\n        if (_array[0] == 0 && _array[1] == 0 && _array[2] == 0) {\n            return ZERO_BYTES;\n        }\n        bytes32 packedSign = bytes32(_array[0] << 255);\n        bytes32 packedExp = bytes32(_array[1] << SIGNIF_BITS);\n        bytes32 packedSignif = bytes32(_array[2]) ^ SIGNIF_MIN_BYTES;\n        packed = packedSign | packedExp | packedSignif;\n    }\n\n    function add(bytes32 a, bytes32 b) public pure returns (bytes32 result) {\n        uint256[3] memory aArray = toArray(a);\n        uint256[3] memory bArray = toArray(b);\n        return fromArray(addArrays(aArray, bArray));\n    }\n\n    function addArrays(uint256[3] aArray, uint256[3] bArray) internal pure returns (uint256[3] memory result) {\n        if (aArray[0] == 0 && aArray[1] == 0 && aArray[2] == 0) {\n            return bArray;\n        }\n        if (bArray[0] == 0 && bArray[1] == 0 && bArray[2] == 0) {\n            return aArray;\n        }\n        uint256 newExp = aArray[1];\n        uint256 expA = aArray[1];\n        uint256 expB = bArray[1];\n        uint256 signifA = aArray[2];\n        uint256 signifB = bArray[2];\n        uint256 signA = aArray[0];\n        uint256 signB = bArray[0];\n        uint256 newSignif = 0;\n        uint256 newSign = 0;\n\n        if (expB > expA) {\n            newExp = expB;\n            signifA = signifA >> (expB - expA);\n        } else if (expA > expB) {\n            signifB = signifB >> (expA - expB);\n        }\n\n        if (signA + signB == 2) {\n            newSign = 1;\n            newSignif = signifA + signifB;\n        } else if (signA == 1) {\n            if (signifA > signifB) {\n                newSignif = signifA - signifB;\n                newSign = 1;\n            } else if (signifB >= signifA) {\n                newSignif = signifB - signifA;\n                newSign = 0;\n            }\n        } else if (signB == 1) {\n            if (signifB > signifA) {\n                newSignif = signifB - signifA;\n                newSign = 1;\n            } else if (signifA >= signifB) {\n                newSignif = signifA - signifB;\n                newSign = 0;\n            }\n        } else {\n            newSignif = signifA + signifB;\n            newSign = 0;\n        }\n        if (newSignif == 0) {\n            return [uint256(0), uint256(0), uint256(0)];\n        }\n        while (newSignif > SIGNIF_MAX) {\n            newSignif = newSignif >> 1;\n            newExp++;\n        }\n        while (newSignif < SIGNIF_MIN) {\n            newSignif = newSignif << 1;\n            newExp--;\n        }\n        return [newSign, newExp, newSignif];\n    }\n\n\n    function negate(bytes32 a) public pure returns (bytes32 result) {\n        if (a == ZERO_BYTES) {\n            return a;\n        }\n        return a ^ bytes32(uint256(1) << 255);\n    }\n\n    function negateArray(uint256[3] aArray) internal pure returns (uint256[3] memory result) {\n        if (aArray[0] == 0 && aArray[1] == 0 && aArray[2] == 0) {\n            return aArray;\n        }\n        return [(aArray[0] + 1 )%2, aArray[1], aArray[2]];\n    }\n\n    function sub(bytes32 a, bytes32 b) public pure returns (bytes32 result) {\n        uint256[3] memory aArray = toArray(a);\n        uint256[3] memory bArray = toArray(negate(b));\n        return fromArray(addArrays(aArray, bArray));\n    }\n\n    function subArrays(uint256[3] aArray, uint256[3] _bArray) internal pure returns (uint256[3] memory result) {\n        if (aArray[0] == 0 && aArray[1] == 0 && aArray[2] == 0) {\n            return negateArray(_bArray);\n        }\n        if (_bArray[0] == 0 && _bArray[1] == 0 && _bArray[2] == 0) {\n            return aArray;\n        }\n        uint256[3] memory bArray = negateArray(_bArray);\n        return addArrays(aArray, bArray);\n    }\n\n    function mul(bytes32 a, bytes32 b) public pure returns (bytes32 result) {\n        uint256[3] memory aArray = toArray(a);\n        uint256[3] memory bArray = toArray(b);\n        return fromArray(mulArrays(aArray, bArray));\n    }\n\n    function mulArrays(uint256[3] aArray, uint256[3] bArray) internal pure returns (uint256[3] memory result) {\n        if (aArray[0] == 0 && aArray[1] == 0 && aArray[2] == 0) {\n            return [uint256(0), uint256(0), uint256(0)];\n        }\n        if (bArray[0] == 0 && bArray[1] == 0 && bArray[2] == 0) {\n            return [uint256(0), uint256(0), uint256(0)];\n        }\n        uint256 newSign = (aArray[0] + bArray[0]) % 2;\n        uint256 newExp = (aArray[1] + bArray[1]) - EXP_BIAS;\n        if (newExp > EXP_MAX) {\n            revert();\n            newExp = EXP_MAX;\n            newSignif = SIGNIF_MAX;\n            return [newSign, newExp, newSignif];\n        }\n\n        uint256 topA = aArray[2] >> (SIGNIF_BITS >> 1);\n        uint256 botA = aArray[2] << (255 - (SIGNIF_BITS >> 1)) >> 256;\n\n        uint256 topB = bArray[2] >> (SIGNIF_BITS >> 1);\n        uint256 botB = bArray[2] << (255 - (SIGNIF_BITS >> 1)) >> 256;\n\n        uint256 bottomMul = botA*botB;\n        uint256 midMul = topA*botB + botA*topB;\n        uint256 newSignif = topA*topB;\n\n        midMul = midMul + (bottomMul >> (SIGNIF_BITS >> 1));\n        newSignif = newSignif + (midMul >> (SIGNIF_BITS >> 1));\n\n        while (newSignif > SIGNIF_MAX) {\n            newSignif = newSignif >> 1;\n            newExp++;\n        }\n        return [newSign, newExp, newSignif];\n    }\n\n    function fastInvSqrt(bytes32 a) public pure returns (bytes32 result) {\n        require(compare(a, ZERO_BYTES) == 1);\n        uint256 tmp = INV_SQRT_MAGIC - (uint256(a) >> 1);\n        uint256[3] memory THREEHALFS = toArray(0x3FFFF80000000000000000000000000000000000000000000000000000000000);\n        uint256[3] memory resArray = toArray(bytes32(tmp));\n        uint256[3] memory resDivByTwo = toArray(a);\n        resDivByTwo[1] = resDivByTwo[1]-1;\n        resArray = mulArrays(resArray, subArrays(THREEHALFS, mulArrays(resDivByTwo, mulArrays(resArray, resArray) ) ) );\n        // resArray = mulArrays(resArray, subArrays(THREEHALFS, mulArrays(resDivByTwo, mulArrays(resArray, resArray) ) ) );\n        return fromArray(resArray);\n        // y = y * (threehalfs - (x2 * y * y));\n\n    }\n\n    function div(bytes32 a, bytes32 b) public pure returns (bytes32 result) {\n        if (b == ZERO_BYTES) {\n            revert();\n        }\n        if (compare(ZERO_BYTES, b) == 1) {\n            bytes32 _b = negate(b);\n            _b = mul(a, mul(fastInvSqrt(_b),fastInvSqrt(_b)));\n            return negate(_b);\n        }\n        return mul(fastInvSqrt(b), mul(a,fastInvSqrt(b)));\n    }\n\n    function divArrays(uint256[3] aArray, uint256[3] bArray) internal pure returns (uint256[3] memory result) {\n        if (aArray[0] == 0 && aArray[1] == 0 && aArray[2] == 0) {\n            return [uint256(0), uint256(0), uint256(0)];\n        }\n        if (bArray[0] == 0 && bArray[1] == 0 && bArray[2] == 0) {\n            revert();\n        }\n        bytes32 a = fromArray(aArray);\n        bytes32 b = fromArray(bArray);\n        return toArray(div(a,b));\n    }\n\n\n    function divNaive(bytes32 a, bytes32 b) public pure returns (bytes32 result) {\n        uint256[3] memory aArray = toArray(a);\n        uint256[3] memory bArray = toArray(b);\n        return fromArray(divNaiveArrays(aArray, bArray));\n    }\n\n    function divNaiveArrays(uint256[3] aArray, uint256[3] bArray) internal pure returns (uint256[3] memory result) {\n        if (aArray[0] == 0 && aArray[1] == 0 && aArray[2] == 0) {\n            return [uint256(0), uint256(0), uint256(0)];\n        }\n        if (bArray[0] == 0 && bArray[1] == 0 && bArray[2] == 0) {\n            revert();\n        }\n        uint256 expA = aArray[1];\n        uint256 expB = bArray[1];\n        uint256 signifA = aArray[2];\n        uint256 signifB = bArray[2];\n        uint256 signA = aArray[0];\n        uint256 signB = bArray[0];\n        uint256 newExp = EXP_BIAS + expA - expB;\n        assert(newExp > EXP_MIN && newExp < EXP_MAX);\n        uint256 newSign = (signA + signB) % 2;\n        uint256 newSignif = 0;\n        uint256 cop = signifA;\n        if (signifA < signifB) {\n            cop = cop << 1;\n            newExp--;\n        }\n        uint256 shift = SIGNIF_BITS;\n        for (uint256 i = 0; i < SIGNIF_BITS; i++) {\n            newSignif += (cop/signifB) << shift;\n            shift--;\n            cop = (cop % signifB) << 1;\n        }\n        return [newSign, newExp, newSignif];\n    }\n\n    function compare(bytes32 a, bytes32 b) public pure returns (int8 result) {\n        uint256[3] memory aArray = toArray(a);\n        uint256[3] memory bArray = toArray(b);\n        return compareArrays(aArray, bArray);\n    }\n\n    function compareArrays(uint256[3] aArray, uint256[3] bArray) internal pure returns (int8 result) {\n        if (aArray[0]==0 && bArray[0] == 0) {\n            return compareAbsArrays(aArray, bArray);\n        } else if (aArray[0]==1 && bArray[0] == 1) {\n            return -compareAbsArrays(aArray, bArray);\n        } else if (aArray[0] > bArray[0]) {\n            return -1;\n        }\n        return 1;\n    }\n\n    function compareAbs(bytes32 a, bytes32 b) public pure returns (int8 result) {\n        uint256[3] memory aArray = toArray(a);\n        uint256[3] memory bArray = toArray(b);\n        return compareAbsArrays(aArray, bArray);\n    }\n\n    function compareAbsArrays(uint256[3] aArray, uint256[3] bArray) internal pure returns (int8 result) {\n        if (aArray[1] > bArray[1]) {\n            return 1;\n        } else if (aArray[1] < bArray[1]) {\n            return -1;\n        } else {\n            if (aArray[2] > bArray[2]) {\n                return 1;\n            } else if (aArray[2] < bArray[2]) {\n                return -1;\n            }\n        }\n        return 0;\n    }\n\n    function log2bytes(bytes32 a) public pure returns (bytes32 result) {\n        uint256[3] memory aArray = toArray(a);\n        return fromArray(log2Array(aArray));\n    }\n\n    function log2Array(uint256[3] aArray) internal pure returns (uint256[3] memory result) {\n        require(aArray[0] == 0);\n        result = initFromIntToArray(int256(aArray[1]) - int256(EXP_BIAS));\n        uint256[3] memory ONE = initFromIntToArray(1);\n        uint256[3] memory TWO = initFromIntToArray(2);\n        uint256[3] memory tmp = initFromIntToArray(int256(aArray[2]));\n        uint256[3] memory ZERO = [uint256(0), uint256(0), uint256(0)];\n        tmp[1] = tmp[1] - SIGNIF_BITS;\n        uint256 numIterations = 16;\n        for (uint256 i = 1; i <= numIterations; i++) {\n            tmp = mulArrays(tmp, tmp);\n            ZERO = mulArrays(ZERO, TWO);\n            if (i==0) {\n                return tmp;\n            }\n            if (compareArrays(tmp, TWO) == 1) {\n                ZERO = addArrays(ZERO, ONE);\n                tmp[1] = tmp[1] - 1;\n            }\n        }\n        ZERO[1] = ZERO[1] - numIterations;\n        // ZERO[1] = divArrays(ZERO, initFromIntToArray(int256(uint256(1) << numIterations)));\n        result = addArrays(result, ZERO);\n        return result;\n    }\n\n    function initFromInt(int256 a) public pure returns (bytes32 result) {\n        if (a == 0) {\n            return ZERO_BYTES;\n        }\n        uint256[3] memory tmp = initFromIntToArray(a);\n        return fromArray(tmp);\n    }\n\n    function initFromIntToArray(int256 a) internal pure returns (uint256[3] memory result) {\n        if (a==0) {\n            return result;\n        }\n        int256 abs = a;\n        uint256 newSign = 0;\n        if (abs < 0) {\n            newSign = 1;\n            abs = -abs;\n        }\n        uint256 newExp = EXP_BIAS + SIGNIF_BITS;\n        uint256 newSignif = uint256(abs);\n        while (newSignif > SIGNIF_MAX) {\n            newSignif = newSignif >> 1;\n            newExp++;\n        }\n        while (newSignif < SIGNIF_MIN) {\n            newSignif = newSignif << 1;\n            newExp--;\n        }\n        assert(newSignif >= SIGNIF_MIN && newSignif <= SIGNIF_MAX);\n        assert(newExp < EXP_MAX && newExp > EXP_MIN);\n        return [newSign, newExp, newSignif];\n    }\n\n}\n",
  "sourcePath": "/home/stefan/Work/TransparentDao/contracts/utils/FloatMath.sol",
  "compiler": {
    "name": "solc",
    "version": "0.4.24+commit.e67f0147.Emscripten.clang"
  },
  "schemaVersion": "2.0.1",
  "updatedAt": "2018-12-15T22:13:43.159Z"
}