{
  "contractName": "Forwarder",
  "abi": [
    {
      "inputs": [],
      "payable": false,
      "stateMutability": "nonpayable",
      "type": "constructor"
    },
    {
      "anonymous": false,
      "inputs": [],
      "name": "ExecutedCall",
      "type": "event"
    },
    {
      "constant": false,
      "inputs": [
        {
          "name": "_addr",
          "type": "address"
        },
        {
          "name": "method",
          "type": "string"
        },
        {
          "name": "nr",
          "type": "int256"
        }
      ],
      "name": "callInt256",
      "outputs": [],
      "payable": false,
      "stateMutability": "nonpayable",
      "type": "function"
    },
    {
      "constant": false,
      "inputs": [
        {
          "name": "_addr",
          "type": "address"
        },
        {
          "name": "method",
          "type": "string"
        },
        {
          "name": "nr",
          "type": "uint256"
        }
      ],
      "name": "callUint256",
      "outputs": [],
      "payable": false,
      "stateMutability": "nonpayable",
      "type": "function"
    },
    {
      "constant": false,
      "inputs": [
        {
          "name": "_addr",
          "type": "address"
        },
        {
          "name": "method",
          "type": "string"
        },
        {
          "name": "_str",
          "type": "string"
        },
        {
          "name": "nr",
          "type": "uint256"
        }
      ],
      "name": "callStringUint256",
      "outputs": [],
      "payable": false,
      "stateMutability": "nonpayable",
      "type": "function"
    },
    {
      "constant": false,
      "inputs": [
        {
          "name": "_addr",
          "type": "address"
        },
        {
          "name": "method",
          "type": "string"
        },
        {
          "name": "_str",
          "type": "string"
        },
        {
          "name": "_someAddr",
          "type": "address"
        },
        {
          "name": "nr",
          "type": "uint256"
        }
      ],
      "name": "callStringAddressUint256",
      "outputs": [],
      "payable": false,
      "stateMutability": "nonpayable",
      "type": "function"
    },
    {
      "constant": false,
      "inputs": [
        {
          "name": "_addr",
          "type": "address"
        },
        {
          "name": "method",
          "type": "string"
        },
        {
          "name": "someAddr",
          "type": "address"
        },
        {
          "name": "nr",
          "type": "uint256"
        }
      ],
      "name": "callAddressUint256",
      "outputs": [],
      "payable": false,
      "stateMutability": "nonpayable",
      "type": "function"
    },
    {
      "constant": false,
      "inputs": [
        {
          "name": "_addr",
          "type": "address"
        },
        {
          "name": "method",
          "type": "string"
        },
        {
          "name": "someAddr",
          "type": "address"
        }
      ],
      "name": "callAddress",
      "outputs": [],
      "payable": false,
      "stateMutability": "nonpayable",
      "type": "function"
    },
    {
      "constant": false,
      "inputs": [
        {
          "name": "_addr",
          "type": "address"
        },
        {
          "name": "method",
          "type": "string"
        },
        {
          "name": "someStr",
          "type": "string"
        }
      ],
      "name": "callString",
      "outputs": [],
      "payable": false,
      "stateMutability": "nonpayable",
      "type": "function"
    },
    {
      "constant": false,
      "inputs": [
        {
          "name": "_addr",
          "type": "address"
        },
        {
          "name": "method",
          "type": "string"
        },
        {
          "name": "someStr1",
          "type": "string"
        },
        {
          "name": "someString2",
          "type": "string"
        },
        {
          "name": "someNr",
          "type": "uint256"
        }
      ],
      "name": "callStringStringUint256",
      "outputs": [],
      "payable": false,
      "stateMutability": "nonpayable",
      "type": "function"
    },
    {
      "constant": false,
      "inputs": [
        {
          "name": "_addr",
          "type": "address"
        },
        {
          "name": "method",
          "type": "string"
        },
        {
          "name": "someStr",
          "type": "string"
        },
        {
          "name": "someInt",
          "type": "int256"
        }
      ],
      "name": "callStringInt256",
      "outputs": [],
      "payable": false,
      "stateMutability": "nonpayable",
      "type": "function"
    },
    {
      "constant": false,
      "inputs": [
        {
          "name": "_addr",
          "type": "address"
        },
        {
          "name": "method",
          "type": "string"
        },
        {
          "name": "someStr",
          "type": "string"
        },
        {
          "name": "someInt1",
          "type": "uint256"
        },
        {
          "name": "someInt2",
          "type": "uint256"
        }
      ],
      "name": "callStringUint256Uint256",
      "outputs": [],
      "payable": false,
      "stateMutability": "nonpayable",
      "type": "function"
    }
  ],
  "bytecode": "0x608060405234801561001057600080fd5b506116c5806100206000396000f3006080604052600436106100a4576000357c0100000000000000000000000000000000000000000000000000000000900463ffffffff16806339558413146100a95780633f86249a14610182578063486ead7c146102a1578063716030b21461034a578063aa8612b414610419578063bd16a210146104f2578063c8adcc8614610585578063caa711cb14610638578063f6c12a8b146106cb578063f8de137e146107ae575b600080fd5b3480156100b557600080fd5b50610180600480360381019080803573ffffffffffffffffffffffffffffffffffffffff169060200190929190803590602001908201803590602001908080601f0160208091040260200160405190810160405280939291908181526020018383808284378201915050505050509192919290803590602001908201803590602001908080601f0160208091040260200160405190810160405280939291908181526020018383808284378201915050505050509192919290803590602001909291905050506108a7565b005b34801561018e57600080fd5b5061029f600480360381019080803573ffffffffffffffffffffffffffffffffffffffff169060200190929190803590602001908201803590602001908080601f0160208091040260200160405190810160405280939291908181526020018383808284378201915050505050509192919290803590602001908201803590602001908080601f0160208091040260200160405190810160405280939291908181526020018383808284378201915050505050509192919290803590602001908201803590602001908080601f016020809104026020016040519081016040528093929190818152602001838380828437820191505050505050919291929080359060200190929190505050610a18565b005b3480156102ad57600080fd5b50610348600480360381019080803573ffffffffffffffffffffffffffffffffffffffff169060200190929190803590602001908201803590602001908080601f0160208091040260200160405190810160405280939291908181526020018383808284378201915050505050509192919290803573ffffffffffffffffffffffffffffffffffffffff169060200190929190505050610be3565b005b34801561035657600080fd5b50610417600480360381019080803573ffffffffffffffffffffffffffffffffffffffff169060200190929190803590602001908201803590602001908080601f0160208091040260200160405190810160405280939291908181526020018383808284378201915050505050509192919290803590602001908201803590602001908080601f0160208091040260200160405190810160405280939291908181526020018383808284378201915050505050509192919290505050610d26565b005b34801561042557600080fd5b506104f0600480360381019080803573ffffffffffffffffffffffffffffffffffffffff169060200190929190803590602001908201803590602001908080601f0160208091040260200160405190810160405280939291908181526020018383808284378201915050505050509192919290803590602001908201803590602001908080601f016020809104026020016040519081016040528093929190818152602001838380828437820191505050505050919291929080359060200190929190505050610e8e565b005b3480156104fe57600080fd5b50610583600480360381019080803573ffffffffffffffffffffffffffffffffffffffff169060200190929190803590602001908201803590602001908080601f016020809104026020016040519081016040528093929190818152602001838380828437820191505050505050919291929080359060200190929190505050610fff565b005b34801561059157600080fd5b50610636600480360381019080803573ffffffffffffffffffffffffffffffffffffffff169060200190929190803590602001908201803590602001908080601f0160208091040260200160405190810160405280939291908181526020018383808284378201915050505050509192919290803573ffffffffffffffffffffffffffffffffffffffff16906020019092919080359060200190929190505050611116565b005b34801561064457600080fd5b506106c9600480360381019080803573ffffffffffffffffffffffffffffffffffffffff169060200190929190803590602001908201803590602001908080601f016020809104026020016040519081016040528093929190818152602001838380828437820191505050505050919291929080359060200190929190505050611262565b005b3480156106d757600080fd5b506107ac600480360381019080803573ffffffffffffffffffffffffffffffffffffffff169060200190929190803590602001908201803590602001908080601f0160208091040260200160405190810160405280939291908181526020018383808284378201915050505050509192919290803590602001908201803590602001908080601f01602080910402602001604051908101604052809392919081815260200183838082843782019150505050505091929192908035906020019092919080359060200190929190505050611379565b005b3480156107ba57600080fd5b506108a5600480360381019080803573ffffffffffffffffffffffffffffffffffffffff169060200190929190803590602001908201803590602001908080601f0160208091040260200160405190810160405280939291908181526020018383808284378201915050505050509192919290803590602001908201803590602001908080601f0160208091040260200160405190810160405280939291908181526020018383808284378201915050505050509192919290803573ffffffffffffffffffffffffffffffffffffffff169060200190929190803590602001909291905050506114f3565b005b8373ffffffffffffffffffffffffffffffffffffffff16836040518082805190602001908083835b6020831015156108f457805182526020820191506020810190506020830392506108cf565b6001836020036101000a03801982511681845116808217855250505050505090500191505060405180910390207c0100000000000000000000000000000000000000000000000000000000900483836040518363ffffffff167c010000000000000000000000000000000000000000000000000000000002815260040180838051906020019080838360005b8381101561099b578082015181840152602081019050610980565b50505050905090810190601f1680156109c85780820380516001836020036101000a031916815260200191505b50828152602001925050506000604051808303816000875af192505050507f1bf73fecff59f53a28e0365d986d6f97d7beab37770653e65daf6ff838ec0ec460405160405180910390a150505050565b8473ffffffffffffffffffffffffffffffffffffffff16846040518082805190602001908083835b602083101515610a655780518252602082019150602081019050602083039250610a40565b6001836020036101000a03801982511681845116808217855250505050505090500191505060405180910390207c010000000000000000000000000000000000000000000000000000000090048484846040518463ffffffff167c010000000000000000000000000000000000000000000000000000000002815260040180848051906020019080838360005b83811015610b0d578082015181840152602081019050610af2565b50505050905090810190601f168015610b3a5780820380516001836020036101000a031916815260200191505b50838051906020019080838360005b83811015610b64578082015181840152602081019050610b49565b50505050905090810190601f168015610b915780820380516001836020036101000a031916815260200191505b5082815260200193505050506000604051808303816000875af192505050507f1bf73fecff59f53a28e0365d986d6f97d7beab37770653e65daf6ff838ec0ec460405160405180910390a15050505050565b8273ffffffffffffffffffffffffffffffffffffffff16826040518082805190602001908083835b602083101515610c305780518252602082019150602081019050602083039250610c0b565b6001836020036101000a03801982511681845116808217855250505050505090500191505060405180910390207c01000000000000000000000000000000000000000000000000000000009004826040518263ffffffff167c0100000000000000000000000000000000000000000000000000000000028152600401808273ffffffffffffffffffffffffffffffffffffffff1673ffffffffffffffffffffffffffffffffffffffff1681526020019150506000604051808303816000875af192505050507f1bf73fecff59f53a28e0365d986d6f97d7beab37770653e65daf6ff838ec0ec460405160405180910390a1505050565b8273ffffffffffffffffffffffffffffffffffffffff16826040518082805190602001908083835b602083101515610d735780518252602082019150602081019050602083039250610d4e565b6001836020036101000a03801982511681845116808217855250505050505090500191505060405180910390207c01000000000000000000000000000000000000000000000000000000009004826040518263ffffffff167c010000000000000000000000000000000000000000000000000000000002815260040180828051906020019080838360005b83811015610e19578082015181840152602081019050610dfe565b50505050905090810190601f168015610e465780820380516001836020036101000a031916815260200191505b509150506000604051808303816000875af192505050507f1bf73fecff59f53a28e0365d986d6f97d7beab37770653e65daf6ff838ec0ec460405160405180910390a1505050565b8373ffffffffffffffffffffffffffffffffffffffff16836040518082805190602001908083835b602083101515610edb5780518252602082019150602081019050602083039250610eb6565b6001836020036101000a03801982511681845116808217855250505050505090500191505060405180910390207c0100000000000000000000000000000000000000000000000000000000900483836040518363ffffffff167c010000000000000000000000000000000000000000000000000000000002815260040180838051906020019080838360005b83811015610f82578082015181840152602081019050610f67565b50505050905090810190601f168015610faf5780820380516001836020036101000a031916815260200191505b50828152602001925050506000604051808303816000875af192505050507f1bf73fecff59f53a28e0365d986d6f97d7beab37770653e65daf6ff838ec0ec460405160405180910390a150505050565b8273ffffffffffffffffffffffffffffffffffffffff16826040518082805190602001908083835b60208310151561104c5780518252602082019150602081019050602083039250611027565b6001836020036101000a03801982511681845116808217855250505050505090500191505060405180910390207c01000000000000000000000000000000000000000000000000000000009004826040518263ffffffff167c0100000000000000000000000000000000000000000000000000000000028152600401808281526020019150506000604051808303816000875af192505050507f1bf73fecff59f53a28e0365d986d6f97d7beab37770653e65daf6ff838ec0ec460405160405180910390a1505050565b8373ffffffffffffffffffffffffffffffffffffffff16836040518082805190602001908083835b602083101515611163578051825260208201915060208101905060208303925061113e565b6001836020036101000a03801982511681845116808217855250505050505090500191505060405180910390207c0100000000000000000000000000000000000000000000000000000000900483836040518363ffffffff167c0100000000000000000000000000000000000000000000000000000000028152600401808373ffffffffffffffffffffffffffffffffffffffff1673ffffffffffffffffffffffffffffffffffffffff168152602001828152602001925050506000604051808303816000875af192505050507f1bf73fecff59f53a28e0365d986d6f97d7beab37770653e65daf6ff838ec0ec460405160405180910390a150505050565b8273ffffffffffffffffffffffffffffffffffffffff16826040518082805190602001908083835b6020831015156112af578051825260208201915060208101905060208303925061128a565b6001836020036101000a03801982511681845116808217855250505050505090500191505060405180910390207c01000000000000000000000000000000000000000000000000000000009004826040518263ffffffff167c0100000000000000000000000000000000000000000000000000000000028152600401808281526020019150506000604051808303816000875af192505050507f1bf73fecff59f53a28e0365d986d6f97d7beab37770653e65daf6ff838ec0ec460405160405180910390a1505050565b8473ffffffffffffffffffffffffffffffffffffffff16846040518082805190602001908083835b6020831015156113c657805182526020820191506020810190506020830392506113a1565b6001836020036101000a03801982511681845116808217855250505050505090500191505060405180910390207c010000000000000000000000000000000000000000000000000000000090048484846040518463ffffffff167c010000000000000000000000000000000000000000000000000000000002815260040180848051906020019080838360005b8381101561146e578082015181840152602081019050611453565b50505050905090810190601f16801561149b5780820380516001836020036101000a031916815260200191505b5083815260200182815260200193505050506000604051808303816000875af192505050507f1bf73fecff59f53a28e0365d986d6f97d7beab37770653e65daf6ff838ec0ec460405160405180910390a15050505050565b8473ffffffffffffffffffffffffffffffffffffffff16846040518082805190602001908083835b602083101515611540578051825260208201915060208101905060208303925061151b565b6001836020036101000a03801982511681845116808217855250505050505090500191505060405180910390207c010000000000000000000000000000000000000000000000000000000090048484846040518463ffffffff167c010000000000000000000000000000000000000000000000000000000002815260040180848051906020019080838360005b838110156115e85780820151818401526020810190506115cd565b50505050905090810190601f1680156116155780820380516001836020036101000a031916815260200191505b508373ffffffffffffffffffffffffffffffffffffffff1673ffffffffffffffffffffffffffffffffffffffff16815260200182815260200193505050506000604051808303816000875af192505050507f1bf73fecff59f53a28e0365d986d6f97d7beab37770653e65daf6ff838ec0ec460405160405180910390a150505050505600a165627a7a72305820096b2216c1c5367a7ada6c8ed22771361002c4f7b8ab86ad967325c61a8da5b10029",
  "source": "pragma solidity 0.4.24;\n\nimport \"contracts/interfaces/IForwarder.sol\";\n\ncontract Forwarder is IForwarder {\n\n  constructor() {}\n\n  function callInt256(address _addr, string method, int256 nr) {\n\n    _addr.call(bytes4(keccak256(method)), nr);\n    emit ExecutedCall();\n\n  }\n\n  function callUint256(address _addr, string method, uint256 nr) {\n\n    _addr.call(bytes4(keccak256(method)), nr);\n    emit ExecutedCall();\n\n  }\n\n  function callStringUint256(address _addr, string method, string _str, uint256 nr) {\n\n    _addr.call(bytes4(keccak256(method)), _str, nr);\n    emit ExecutedCall();\n\n  }\n\n  function callStringAddressUint256(address _addr, string method, string _str, address _someAddr, uint256 nr) {\n\n    _addr.call(bytes4(keccak256(method)), _str, _someAddr, nr);\n    emit ExecutedCall();\n\n  }\n\n  function callAddressUint256(address _addr, string method, address someAddr, uint256 nr) {\n\n    _addr.call(bytes4(keccak256(method)), someAddr, nr);\n    emit ExecutedCall();\n\n  }\n\n  function callAddress(address _addr, string method, address someAddr) {\n\n    _addr.call(bytes4(keccak256(method)), someAddr);\n    emit ExecutedCall();\n\n  }\n\n  function callString(address _addr, string method, string someStr) {\n\n    _addr.call(bytes4(keccak256(method)), someStr);\n    emit ExecutedCall();\n\n  }\n\n  function callStringStringUint256(address _addr, string method, string someStr1, string someString2, uint256 someNr) {\n\n    _addr.call(bytes4(keccak256(method)), someStr1, someString2, someNr);\n    emit ExecutedCall();\n\n  }\n\n  function callStringInt256(address _addr, string method, string someStr, int256 someInt) {\n\n    _addr.call(bytes4(keccak256(method)), someStr, someInt);\n    emit ExecutedCall();\n\n  }\n\n  function callStringUint256Uint256(address _addr, string method, string someStr, uint256 someInt1, uint256 someInt2) {\n\n    _addr.call(bytes4(keccak256(method)), someStr, someInt1, someInt2);\n    emit ExecutedCall();\n\n  }\n\n}\n",
  "sourcePath": "contracts/utils/Forwarder.sol",
  "compiler": {
    "name": "solc",
    "version": "0.4.24+commit.e67f0147.Emscripten.clang"
  },
  "schemaVersion": "2.0.1",
  "updatedAt": "2018-12-20T23:25:46.274Z"
}