{
  "contractName": "Forwarder",
  "abi": [
    {
      "inputs": [],
      "payable": false,
      "stateMutability": "nonpayable",
      "type": "constructor"
    },
    {
      "constant": false,
      "inputs": [
        {
          "name": "_addr",
          "type": "address"
        },
        {
          "name": "method",
          "type": "string"
        },
        {
          "name": "nr",
          "type": "int256"
        }
      ],
      "name": "callInt256",
      "outputs": [],
      "payable": false,
      "stateMutability": "nonpayable",
      "type": "function"
    },
    {
      "constant": false,
      "inputs": [
        {
          "name": "_addr",
          "type": "address"
        },
        {
          "name": "method",
          "type": "string"
        },
        {
          "name": "nr",
          "type": "uint256"
        }
      ],
      "name": "callUint256",
      "outputs": [],
      "payable": false,
      "stateMutability": "nonpayable",
      "type": "function"
    },
    {
      "constant": false,
      "inputs": [
        {
          "name": "_addr",
          "type": "address"
        },
        {
          "name": "method",
          "type": "string"
        },
        {
          "name": "_str",
          "type": "string"
        },
        {
          "name": "nr",
          "type": "uint256"
        }
      ],
      "name": "callStringUint256",
      "outputs": [],
      "payable": false,
      "stateMutability": "nonpayable",
      "type": "function"
    },
    {
      "constant": false,
      "inputs": [
        {
          "name": "_addr",
          "type": "address"
        },
        {
          "name": "method",
          "type": "string"
        },
        {
          "name": "_str",
          "type": "string"
        },
        {
          "name": "_someAddr",
          "type": "address"
        },
        {
          "name": "nr",
          "type": "uint256"
        }
      ],
      "name": "callStringAddressUint256",
      "outputs": [],
      "payable": false,
      "stateMutability": "nonpayable",
      "type": "function"
    },
    {
      "constant": false,
      "inputs": [
        {
          "name": "_addr",
          "type": "address"
        },
        {
          "name": "method",
          "type": "string"
        },
        {
          "name": "someAddr",
          "type": "address"
        },
        {
          "name": "nr",
          "type": "uint256"
        }
      ],
      "name": "callAddressUint256",
      "outputs": [],
      "payable": false,
      "stateMutability": "nonpayable",
      "type": "function"
    },
    {
      "constant": false,
      "inputs": [
        {
          "name": "_addr",
          "type": "address"
        },
        {
          "name": "method",
          "type": "string"
        },
        {
          "name": "someAddr",
          "type": "address"
        }
      ],
      "name": "callAddress",
      "outputs": [],
      "payable": false,
      "stateMutability": "nonpayable",
      "type": "function"
    },
    {
      "constant": false,
      "inputs": [
        {
          "name": "_addr",
          "type": "address"
        },
        {
          "name": "method",
          "type": "string"
        },
        {
          "name": "someStr",
          "type": "string"
        }
      ],
      "name": "callString",
      "outputs": [],
      "payable": false,
      "stateMutability": "nonpayable",
      "type": "function"
    },
    {
      "constant": false,
      "inputs": [
        {
          "name": "_addr",
          "type": "address"
        },
        {
          "name": "method",
          "type": "string"
        },
        {
          "name": "someStr1",
          "type": "string"
        },
        {
          "name": "someString2",
          "type": "string"
        },
        {
          "name": "someNr",
          "type": "uint256"
        }
      ],
      "name": "callStringStringUint256",
      "outputs": [],
      "payable": false,
      "stateMutability": "nonpayable",
      "type": "function"
    }
  ],
  "bytecode": "0x608060405234801561001057600080fd5b506110a8806100206000396000f30060806040526004361061008e576000357c0100000000000000000000000000000000000000000000000000000000900463ffffffff16806339558413146100935780633f86249a1461016c578063486ead7c1461028b578063716030b214610334578063bd16a21014610403578063c8adcc8614610496578063caa711cb14610549578063f8de137e146105dc575b600080fd5b34801561009f57600080fd5b5061016a600480360381019080803573ffffffffffffffffffffffffffffffffffffffff169060200190929190803590602001908201803590602001908080601f0160208091040260200160405190810160405280939291908181526020018383808284378201915050505050509192919290803590602001908201803590602001908080601f0160208091040260200160405190810160405280939291908181526020018383808284378201915050505050509192919290803590602001909291905050506106d5565b005b34801561017857600080fd5b50610289600480360381019080803573ffffffffffffffffffffffffffffffffffffffff169060200190929190803590602001908201803590602001908080601f0160208091040260200160405190810160405280939291908181526020018383808284378201915050505050509192919290803590602001908201803590602001908080601f0160208091040260200160405190810160405280939291908181526020018383808284378201915050505050509192919290803590602001908201803590602001908080601f01602080910402602001604051908101604052809392919081815260200183838082843782019150505050505091929192908035906020019092919050505061081a565b005b34801561029757600080fd5b50610332600480360381019080803573ffffffffffffffffffffffffffffffffffffffff169060200190929190803590602001908201803590602001908080601f0160208091040260200160405190810160405280939291908181526020018383808284378201915050505050509192919290803573ffffffffffffffffffffffffffffffffffffffff1690602001909291905050506109b9565b005b34801561034057600080fd5b50610401600480360381019080803573ffffffffffffffffffffffffffffffffffffffff169060200190929190803590602001908201803590602001908080601f0160208091040260200160405190810160405280939291908181526020018383808284378201915050505050509192919290803590602001908201803590602001908080601f0160208091040260200160405190810160405280939291908181526020018383808284378201915050505050509192919290505050610ad0565b005b34801561040f57600080fd5b50610494600480360381019080803573ffffffffffffffffffffffffffffffffffffffff169060200190929190803590602001908201803590602001908080601f016020809104026020016040519081016040528093929190818152602001838380828437820191505050505050919291929080359060200190929190505050610c0c565b005b3480156104a257600080fd5b50610547600480360381019080803573ffffffffffffffffffffffffffffffffffffffff169060200190929190803590602001908201803590602001908080601f0160208091040260200160405190810160405280939291908181526020018383808284378201915050505050509192919290803573ffffffffffffffffffffffffffffffffffffffff16906020019092919080359060200190929190505050610cf7565b005b34801561055557600080fd5b506105da600480360381019080803573ffffffffffffffffffffffffffffffffffffffff169060200190929190803590602001908201803590602001908080601f016020809104026020016040519081016040528093929190818152602001838380828437820191505050505050919291929080359060200190929190505050610e17565b005b3480156105e857600080fd5b506106d3600480360381019080803573ffffffffffffffffffffffffffffffffffffffff169060200190929190803590602001908201803590602001908080601f0160208091040260200160405190810160405280939291908181526020018383808284378201915050505050509192919290803590602001908201803590602001908080601f0160208091040260200160405190810160405280939291908181526020018383808284378201915050505050509192919290803573ffffffffffffffffffffffffffffffffffffffff16906020019092919080359060200190929190505050610f02565b005b8373ffffffffffffffffffffffffffffffffffffffff16836040518082805190602001908083835b60208310151561072257805182526020820191506020810190506020830392506106fd565b6001836020036101000a03801982511681845116808217855250505050505090500191505060405180910390207c0100000000000000000000000000000000000000000000000000000000900483836040518363ffffffff167c010000000000000000000000000000000000000000000000000000000002815260040180838051906020019080838360005b838110156107c95780820151818401526020810190506107ae565b50505050905090810190601f1680156107f65780820380516001836020036101000a031916815260200191505b50828152602001925050506000604051808303816000875af1925050505050505050565b8473ffffffffffffffffffffffffffffffffffffffff16846040518082805190602001908083835b6020831015156108675780518252602082019150602081019050602083039250610842565b6001836020036101000a03801982511681845116808217855250505050505090500191505060405180910390207c010000000000000000000000000000000000000000000000000000000090048484846040518463ffffffff167c010000000000000000000000000000000000000000000000000000000002815260040180848051906020019080838360005b8381101561090f5780820151818401526020810190506108f4565b50505050905090810190601f16801561093c5780820380516001836020036101000a031916815260200191505b50838051906020019080838360005b8381101561096657808201518184015260208101905061094b565b50505050905090810190601f1680156109935780820380516001836020036101000a031916815260200191505b5082815260200193505050506000604051808303816000875af192505050505050505050565b8273ffffffffffffffffffffffffffffffffffffffff16826040518082805190602001908083835b602083101515610a0657805182526020820191506020810190506020830392506109e1565b6001836020036101000a03801982511681845116808217855250505050505090500191505060405180910390207c01000000000000000000000000000000000000000000000000000000009004826040518263ffffffff167c0100000000000000000000000000000000000000000000000000000000028152600401808273ffffffffffffffffffffffffffffffffffffffff1673ffffffffffffffffffffffffffffffffffffffff1681526020019150506000604051808303816000875af19250505050505050565b8273ffffffffffffffffffffffffffffffffffffffff16826040518082805190602001908083835b602083101515610b1d5780518252602082019150602081019050602083039250610af8565b6001836020036101000a03801982511681845116808217855250505050505090500191505060405180910390207c01000000000000000000000000000000000000000000000000000000009004826040518263ffffffff167c010000000000000000000000000000000000000000000000000000000002815260040180828051906020019080838360005b83811015610bc3578082015181840152602081019050610ba8565b50505050905090810190601f168015610bf05780820380516001836020036101000a031916815260200191505b509150506000604051808303816000875af19250505050505050565b8273ffffffffffffffffffffffffffffffffffffffff16826040518082805190602001908083835b602083101515610c595780518252602082019150602081019050602083039250610c34565b6001836020036101000a03801982511681845116808217855250505050505090500191505060405180910390207c01000000000000000000000000000000000000000000000000000000009004826040518263ffffffff167c0100000000000000000000000000000000000000000000000000000000028152600401808281526020019150506000604051808303816000875af19250505050505050565b8373ffffffffffffffffffffffffffffffffffffffff16836040518082805190602001908083835b602083101515610d445780518252602082019150602081019050602083039250610d1f565b6001836020036101000a03801982511681845116808217855250505050505090500191505060405180910390207c0100000000000000000000000000000000000000000000000000000000900483836040518363ffffffff167c0100000000000000000000000000000000000000000000000000000000028152600401808373ffffffffffffffffffffffffffffffffffffffff1673ffffffffffffffffffffffffffffffffffffffff168152602001828152602001925050506000604051808303816000875af1925050505050505050565b8273ffffffffffffffffffffffffffffffffffffffff16826040518082805190602001908083835b602083101515610e645780518252602082019150602081019050602083039250610e3f565b6001836020036101000a03801982511681845116808217855250505050505090500191505060405180910390207c01000000000000000000000000000000000000000000000000000000009004826040518263ffffffff167c0100000000000000000000000000000000000000000000000000000000028152600401808281526020019150506000604051808303816000875af19250505050505050565b8473ffffffffffffffffffffffffffffffffffffffff16846040518082805190602001908083835b602083101515610f4f5780518252602082019150602081019050602083039250610f2a565b6001836020036101000a03801982511681845116808217855250505050505090500191505060405180910390207c010000000000000000000000000000000000000000000000000000000090048484846040518463ffffffff167c010000000000000000000000000000000000000000000000000000000002815260040180848051906020019080838360005b83811015610ff7578082015181840152602081019050610fdc565b50505050905090810190601f1680156110245780820380516001836020036101000a031916815260200191505b508373ffffffffffffffffffffffffffffffffffffffff1673ffffffffffffffffffffffffffffffffffffffff16815260200182815260200193505050506000604051808303816000875af1925050505050505050505600a165627a7a72305820cf92f98e81a236b6937a6de07f8d299bb64f386ec9b5d4c16b35d9c5705bc5f40029",
  "source": "pragma solidity 0.4.24;\n\nimport \"contracts/interfaces/IForwarder.sol\";\n\ncontract Forwarder is IForwarder {\n\n  constructor() {}\n\n  function callInt256(address _addr, string method, int256 nr) {\n    _addr.call(bytes4(keccak256(method)), nr);\n  }\n\n  function callUint256(address _addr, string method, uint256 nr) {\n    _addr.call(bytes4(keccak256(method)), nr);\n  }\n\n  function callStringUint256(address _addr, string method, string _str, uint256 nr) {\n    _addr.call(bytes4(keccak256(method)), _str, nr);\n  }\n\n  function callStringAddressUint256(address _addr, string method, string _str, address _someAddr, uint256 nr) {\n    _addr.call(bytes4(keccak256(method)), _str, _someAddr, nr);\n  }\n\n  function callAddressUint256(address _addr, string method, address someAddr, uint256 nr) {\n    _addr.call(bytes4(keccak256(method)), someAddr, nr);\n  }\n\n  function callAddress(address _addr, string method, address someAddr) {\n    _addr.call(bytes4(keccak256(method)), someAddr);\n  }\n\n  function callString(address _addr, string method, string someStr) {\n    _addr.call(bytes4(keccak256(method)), someStr);\n  }\n\n  function callStringStringUint256(address _addr, string method, string someStr1, string someString2, uint256 someNr) {\n\n    _addr.call(bytes4(keccak256(method)), someStr1, someString2, someNr);\n\n  }\n\n}\n",
  "sourcePath": "contracts/utils/Forwarder.sol",
  "compiler": {
    "name": "solc",
    "version": "0.4.24+commit.e67f0147.Emscripten.clang"
  },
  "schemaVersion": "2.0.1",
  "updatedAt": "2018-12-15T22:13:43.166Z"
}