{
  "contractName": "IncomeStatement",
  "abi": [
    {
      "inputs": [
        {
          "name": "_dao",
          "type": "address"
        },
        {
          "name": "_dateTime",
          "type": "address"
        }
      ],
      "payable": false,
      "stateMutability": "nonpayable",
      "type": "constructor"
    },
    {
      "anonymous": false,
      "inputs": [
        {
          "indexed": false,
          "name": "description",
          "type": "string"
        },
        {
          "indexed": false,
          "name": "_type",
          "type": "string"
        },
        {
          "indexed": false,
          "name": "howMuch",
          "type": "uint256"
        }
      ],
      "name": "AddedIncome",
      "type": "event"
    },
    {
      "anonymous": false,
      "inputs": [
        {
          "indexed": false,
          "name": "description",
          "type": "string"
        },
        {
          "indexed": false,
          "name": "_type",
          "type": "string"
        },
        {
          "indexed": false,
          "name": "howMuch",
          "type": "uint256"
        }
      ],
      "name": "AddedExpense",
      "type": "event"
    },
    {
      "anonymous": false,
      "inputs": [
        {
          "indexed": false,
          "name": "description",
          "type": "string"
        },
        {
          "indexed": false,
          "name": "howMuch",
          "type": "uint256"
        }
      ],
      "name": "AddedLoss",
      "type": "event"
    },
    {
      "anonymous": false,
      "inputs": [
        {
          "indexed": false,
          "name": "description",
          "type": "string"
        },
        {
          "indexed": false,
          "name": "howMuch",
          "type": "uint256"
        }
      ],
      "name": "AddedGain",
      "type": "event"
    },
    {
      "anonymous": false,
      "inputs": [
        {
          "indexed": false,
          "name": "tax",
          "type": "uint256"
        }
      ],
      "name": "ReportedTax",
      "type": "event"
    },
    {
      "anonymous": false,
      "inputs": [
        {
          "indexed": false,
          "name": "description",
          "type": "string"
        },
        {
          "indexed": false,
          "name": "rdExpense",
          "type": "uint256"
        }
      ],
      "name": "ReportedRD",
      "type": "event"
    },
    {
      "anonymous": false,
      "inputs": [
        {
          "indexed": false,
          "name": "description",
          "type": "string"
        },
        {
          "indexed": false,
          "name": "donation",
          "type": "uint256"
        }
      ],
      "name": "ReportedDonation",
      "type": "event"
    },
    {
      "anonymous": false,
      "inputs": [
        {
          "indexed": false,
          "name": "description",
          "type": "string"
        },
        {
          "indexed": false,
          "name": "howMuch",
          "type": "uint256"
        }
      ],
      "name": "ReportedInterestExpense",
      "type": "event"
    },
    {
      "anonymous": false,
      "inputs": [
        {
          "indexed": false,
          "name": "description",
          "type": "string"
        },
        {
          "indexed": false,
          "name": "howMuch",
          "type": "uint256"
        }
      ],
      "name": "ReportedInterestGained",
      "type": "event"
    },
    {
      "constant": false,
      "inputs": [
        {
          "name": "description",
          "type": "string"
        },
        {
          "name": "_type",
          "type": "string"
        },
        {
          "name": "howMuch",
          "type": "uint256"
        }
      ],
      "name": "addIncome",
      "outputs": [],
      "payable": false,
      "stateMutability": "nonpayable",
      "type": "function"
    },
    {
      "constant": false,
      "inputs": [
        {
          "name": "description",
          "type": "string"
        },
        {
          "name": "_type",
          "type": "string"
        },
        {
          "name": "howMuch",
          "type": "uint256"
        }
      ],
      "name": "addExpense",
      "outputs": [],
      "payable": false,
      "stateMutability": "nonpayable",
      "type": "function"
    },
    {
      "constant": false,
      "inputs": [
        {
          "name": "description",
          "type": "string"
        },
        {
          "name": "howMuch",
          "type": "uint256"
        }
      ],
      "name": "addLoss",
      "outputs": [],
      "payable": false,
      "stateMutability": "nonpayable",
      "type": "function"
    },
    {
      "constant": false,
      "inputs": [
        {
          "name": "description",
          "type": "string"
        },
        {
          "name": "howMuch",
          "type": "uint256"
        }
      ],
      "name": "addGain",
      "outputs": [],
      "payable": false,
      "stateMutability": "nonpayable",
      "type": "function"
    },
    {
      "constant": false,
      "inputs": [
        {
          "name": "tax",
          "type": "uint256"
        }
      ],
      "name": "reportTax",
      "outputs": [],
      "payable": false,
      "stateMutability": "nonpayable",
      "type": "function"
    },
    {
      "constant": false,
      "inputs": [
        {
          "name": "description",
          "type": "string"
        },
        {
          "name": "rdExpense",
          "type": "uint256"
        }
      ],
      "name": "reportRD",
      "outputs": [],
      "payable": false,
      "stateMutability": "nonpayable",
      "type": "function"
    },
    {
      "constant": false,
      "inputs": [
        {
          "name": "description",
          "type": "string"
        },
        {
          "name": "donation",
          "type": "uint256"
        }
      ],
      "name": "reportDonation",
      "outputs": [],
      "payable": false,
      "stateMutability": "nonpayable",
      "type": "function"
    },
    {
      "constant": false,
      "inputs": [
        {
          "name": "description",
          "type": "string"
        },
        {
          "name": "howMuch",
          "type": "uint256"
        }
      ],
      "name": "reportInterestExpense",
      "outputs": [],
      "payable": false,
      "stateMutability": "nonpayable",
      "type": "function"
    },
    {
      "constant": false,
      "inputs": [
        {
          "name": "description",
          "type": "string"
        },
        {
          "name": "howMuch",
          "type": "uint256"
        }
      ],
      "name": "reportInterestGained",
      "outputs": [],
      "payable": false,
      "stateMutability": "nonpayable",
      "type": "function"
    },
    {
      "constant": true,
      "inputs": [],
      "name": "getEPC",
      "outputs": [
        {
          "name": "",
          "type": "bytes32"
        }
      ],
      "payable": false,
      "stateMutability": "view",
      "type": "function"
    },
    {
      "constant": true,
      "inputs": [
        {
          "name": "position",
          "type": "uint256"
        }
      ],
      "name": "getMonthlyRevenue",
      "outputs": [
        {
          "name": "",
          "type": "uint256"
        }
      ],
      "payable": false,
      "stateMutability": "view",
      "type": "function"
    },
    {
      "constant": true,
      "inputs": [
        {
          "name": "position",
          "type": "uint256"
        }
      ],
      "name": "getMonthlyExpenses",
      "outputs": [
        {
          "name": "",
          "type": "uint256"
        }
      ],
      "payable": false,
      "stateMutability": "view",
      "type": "function"
    },
    {
      "constant": true,
      "inputs": [
        {
          "name": "expense",
          "type": "string"
        }
      ],
      "name": "getDetailedExpense",
      "outputs": [
        {
          "name": "",
          "type": "string"
        },
        {
          "name": "",
          "type": "uint256"
        }
      ],
      "payable": false,
      "stateMutability": "view",
      "type": "function"
    },
    {
      "constant": true,
      "inputs": [
        {
          "name": "income",
          "type": "string"
        }
      ],
      "name": "getDetailedIncome",
      "outputs": [
        {
          "name": "",
          "type": "string"
        },
        {
          "name": "",
          "type": "uint256"
        }
      ],
      "payable": false,
      "stateMutability": "view",
      "type": "function"
    },
    {
      "constant": true,
      "inputs": [
        {
          "name": "loss",
          "type": "string"
        }
      ],
      "name": "getDetailedLoss",
      "outputs": [
        {
          "name": "",
          "type": "uint256"
        }
      ],
      "payable": false,
      "stateMutability": "view",
      "type": "function"
    },
    {
      "constant": true,
      "inputs": [
        {
          "name": "gain",
          "type": "string"
        }
      ],
      "name": "getDetailedGain",
      "outputs": [
        {
          "name": "",
          "type": "uint256"
        }
      ],
      "payable": false,
      "stateMutability": "view",
      "type": "function"
    },
    {
      "constant": true,
      "inputs": [
        {
          "name": "donation",
          "type": "string"
        }
      ],
      "name": "getDetailedDonation",
      "outputs": [
        {
          "name": "",
          "type": "uint256"
        }
      ],
      "payable": false,
      "stateMutability": "view",
      "type": "function"
    },
    {
      "constant": true,
      "inputs": [
        {
          "name": "rd",
          "type": "string"
        }
      ],
      "name": "getDetailedRD",
      "outputs": [
        {
          "name": "",
          "type": "uint256"
        }
      ],
      "payable": false,
      "stateMutability": "view",
      "type": "function"
    },
    {
      "constant": true,
      "inputs": [],
      "name": "getPrimaryExpenses",
      "outputs": [
        {
          "name": "",
          "type": "uint256"
        }
      ],
      "payable": false,
      "stateMutability": "view",
      "type": "function"
    },
    {
      "constant": true,
      "inputs": [],
      "name": "getSecondaryExpenses",
      "outputs": [
        {
          "name": "",
          "type": "uint256"
        }
      ],
      "payable": false,
      "stateMutability": "view",
      "type": "function"
    },
    {
      "constant": true,
      "inputs": [],
      "name": "getTotalExpenses",
      "outputs": [
        {
          "name": "",
          "type": "uint256"
        }
      ],
      "payable": false,
      "stateMutability": "view",
      "type": "function"
    },
    {
      "constant": true,
      "inputs": [],
      "name": "getIncomeTaxExpenses",
      "outputs": [
        {
          "name": "",
          "type": "uint256"
        }
      ],
      "payable": false,
      "stateMutability": "view",
      "type": "function"
    },
    {
      "constant": true,
      "inputs": [],
      "name": "getRDExpense",
      "outputs": [
        {
          "name": "",
          "type": "uint256"
        }
      ],
      "payable": false,
      "stateMutability": "view",
      "type": "function"
    },
    {
      "constant": true,
      "inputs": [],
      "name": "getDonations",
      "outputs": [
        {
          "name": "",
          "type": "uint256"
        }
      ],
      "payable": false,
      "stateMutability": "view",
      "type": "function"
    },
    {
      "constant": true,
      "inputs": [],
      "name": "getCostOfRevenue",
      "outputs": [
        {
          "name": "",
          "type": "uint256"
        }
      ],
      "payable": false,
      "stateMutability": "view",
      "type": "function"
    },
    {
      "constant": true,
      "inputs": [],
      "name": "getInterestExpense",
      "outputs": [
        {
          "name": "",
          "type": "uint256"
        }
      ],
      "payable": false,
      "stateMutability": "view",
      "type": "function"
    },
    {
      "constant": true,
      "inputs": [],
      "name": "getLosses",
      "outputs": [
        {
          "name": "",
          "type": "uint256"
        }
      ],
      "payable": false,
      "stateMutability": "view",
      "type": "function"
    },
    {
      "constant": true,
      "inputs": [],
      "name": "getOperatingIncome",
      "outputs": [
        {
          "name": "",
          "type": "uint256"
        }
      ],
      "payable": false,
      "stateMutability": "view",
      "type": "function"
    },
    {
      "constant": true,
      "inputs": [],
      "name": "getNonOperatingIncome",
      "outputs": [
        {
          "name": "",
          "type": "uint256"
        }
      ],
      "payable": false,
      "stateMutability": "view",
      "type": "function"
    },
    {
      "constant": true,
      "inputs": [],
      "name": "getTotalGrossIncome",
      "outputs": [
        {
          "name": "",
          "type": "uint256"
        }
      ],
      "payable": false,
      "stateMutability": "view",
      "type": "function"
    },
    {
      "constant": true,
      "inputs": [],
      "name": "getGains",
      "outputs": [
        {
          "name": "",
          "type": "uint256"
        }
      ],
      "payable": false,
      "stateMutability": "view",
      "type": "function"
    },
    {
      "constant": true,
      "inputs": [],
      "name": "getNetIncomeBeforeTaxes",
      "outputs": [
        {
          "name": "",
          "type": "uint256"
        }
      ],
      "payable": false,
      "stateMutability": "view",
      "type": "function"
    },
    {
      "constant": true,
      "inputs": [],
      "name": "getNetIncomeAfterTaxes",
      "outputs": [
        {
          "name": "",
          "type": "uint256"
        }
      ],
      "payable": false,
      "stateMutability": "view",
      "type": "function"
    },
    {
      "constant": true,
      "inputs": [],
      "name": "getStartTime",
      "outputs": [
        {
          "name": "",
          "type": "uint256"
        }
      ],
      "payable": false,
      "stateMutability": "view",
      "type": "function"
    },
    {
      "constant": true,
      "inputs": [],
      "name": "getEndTime",
      "outputs": [
        {
          "name": "",
          "type": "uint256"
        }
      ],
      "payable": false,
      "stateMutability": "view",
      "type": "function"
    }
  ],
  "bytecode": "0x608060405262271c80600055624e3900600155627555806002556301d5560060035534801561002d57600080fd5b50604051604080613120833981018060405281019080805190602001909291908051906020019092919050505081601460006101000a81548173ffffffffffffffffffffffffffffffffffffffff021916908373ffffffffffffffffffffffffffffffffffffffff160217905550426015819055506002546015540160168190555080601f60006101000a81548173ffffffffffffffffffffffffffffffffffffffff021916908373ffffffffffffffffffffffffffffffffffffffff160217905550505061301f806101016000396000f3006080604052600436106101b7576000357c0100000000000000000000000000000000000000000000000000000000900463ffffffff16806318c6062b146101bc5780631d25459c146101e7578063212af7be146102645780632ae4f0791461034d57806335500dd0146103c057806335e1983e146103eb578063363e237d146104165780633c2db7b9146104ff5780633d9c0d491461052a578063405ef01d14610555578063439f5ac2146105805780635e3f44c7146105ab5780636047dbca146105d657806360c7d436146106495780636995589b146106745780637a275710146106e757806384351d591461071257806384c13bad1461078f5780638b522165146108485780638e9cc073146108bb5780639902545b146108e65780639bf685b3146109135780639c26014814610954578063acefd4ce14610a0d578063b5674b2614610a38578063c1629db314610a79578063c605e94d14610aac578063c828371e14610b1f578063ca02dacf14610b4a578063dc5d0e6b14610b75578063dcaa821714610bf2578063e25f841614610c1d578063e7ac022d14610c48578063ebe28a0f14610c73578063efb182d914610cf0575b600080fd5b3480156101c857600080fd5b506101d1610d63565b6040518082815260200191505060405180910390f35b3480156101f357600080fd5b5061024e600480360381019080803590602001908201803590602001908080601f0160208091040260200160405190810160405280939291908181526020018383808284378201915050505050509192919290505050610d6d565b6040518082815260200191505060405180910390f35b34801561027057600080fd5b506102cb600480360381019080803590602001908201803590602001908080601f0160208091040260200160405190810160405280939291908181526020018383808284378201915050505050509192919290505050610de2565b6040518080602001838152602001828103825284818151815260200191508051906020019080838360005b838110156103115780820151818401526020810190506102f6565b50505050905090810190601f16801561033e5780820380516001836020036101000a031916815260200191505b50935050505060405180910390f35b34801561035957600080fd5b506103be600480360381019080803590602001908201803590602001908080601f016020809104026020016040519081016040528093929190818152602001838380828437820191505050505050919291929080359060200190929190505050610f68565b005b3480156103cc57600080fd5b506103d56111e6565b6040518082815260200191505060405180910390f35b3480156103f757600080fd5b506104006111f8565b6040518082815260200191505060405180910390f35b34801561042257600080fd5b5061047d600480360381019080803590602001908201803590602001908080601f0160208091040260200160405190810160405280939291908181526020018383808284378201915050505050509192919290505050611202565b6040518080602001838152602001828103825284818151815260200191508051906020019080838360005b838110156104c35780820151818401526020810190506104a8565b50505050905090810190601f1680156104f05780820380516001836020036101000a031916815260200191505b50935050505060405180910390f35b34801561050b57600080fd5b50610514611388565b6040518082815260200191505060405180910390f35b34801561053657600080fd5b5061053f611392565b6040518082815260200191505060405180910390f35b34801561056157600080fd5b5061056a61139c565b6040518082815260200191505060405180910390f35b34801561058c57600080fd5b506105956113a6565b6040518082815260200191505060405180910390f35b3480156105b757600080fd5b506105c06113b0565b6040518082815260200191505060405180910390f35b3480156105e257600080fd5b50610647600480360381019080803590602001908201803590602001908080601f0160208091040260200160405190810160405280939291908181526020018383808284378201915050505050509192919290803590602001909291905050506113ba565b005b34801561065557600080fd5b5061065e611638565b6040518082815260200191505060405180910390f35b34801561068057600080fd5b506106e5600480360381019080803590602001908201803590602001908080601f016020809104026020016040519081016040528093929190818152602001838380828437820191505050505050919291929080359060200190929190505050611642565b005b3480156106f357600080fd5b506106fc6118c0565b6040518082815260200191505060405180910390f35b34801561071e57600080fd5b50610779600480360381019080803590602001908201803590602001908080601f01602080910402602001604051908101604052809392919081815260200183838082843782019150505050505091929192905050506118ca565b6040518082815260200191505060405180910390f35b34801561079b57600080fd5b50610846600480360381019080803590602001908201803590602001908080601f0160208091040260200160405190810160405280939291908181526020018383808284378201915050505050509192919290803590602001908201803590602001908080601f01602080910402602001604051908101604052809392919081815260200183838082843782019150505050505091929192908035906020019092919050505061193f565b005b34801561085457600080fd5b506108b9600480360381019080803590602001908201803590602001908080601f016020809104026020016040519081016040528093929190818152602001838380828437820191505050505050919291929080359060200190929190505050611e12565b005b3480156108c757600080fd5b506108d0612090565b6040518082815260200191505060405180910390f35b3480156108f257600080fd5b506109116004803603810190808035906020019092919050505061209e565b005b34801561091f57600080fd5b5061093e600480360381019080803590602001909291905050506121d1565b6040518082815260200191505060405180910390f35b34801561096057600080fd5b50610a0b600480360381019080803590602001908201803590602001908080601f0160208091040260200160405190810160405280939291908181526020018383808284378201915050505050509192919290803590602001908201803590602001908080601f0160208091040260200160405190810160405280939291908181526020018383808284378201915050505050509192919290803590602001909291905050506121f4565b005b348015610a1957600080fd5b50610a226126d2565b6040518082815260200191505060405180910390f35b348015610a4457600080fd5b50610a63600480360381019080803590602001909291905050506126dc565b6040518082815260200191505060405180910390f35b348015610a8557600080fd5b50610a8e6126ff565b60405180826000191660001916815260200191505060405180910390f35b348015610ab857600080fd5b50610b1d600480360381019080803590602001908201803590602001908080601f016020809104026020016040519081016040528093929190818152602001838380828437820191505050505050919291929080359060200190929190505050612704565b005b348015610b2b57600080fd5b50610b34612982565b6040518082815260200191505060405180910390f35b348015610b5657600080fd5b50610b5f61298c565b6040518082815260200191505060405180910390f35b348015610b8157600080fd5b50610bdc600480360381019080803590602001908201803590602001908080601f0160208091040260200160405190810160405280939291908181526020018383808284378201915050505050509192919290505050612996565b6040518082815260200191505060405180910390f35b348015610bfe57600080fd5b50610c07612a0b565b6040518082815260200191505060405180910390f35b348015610c2957600080fd5b50610c32612a15565b6040518082815260200191505060405180910390f35b348015610c5457600080fd5b50610c5d612a1f565b6040518082815260200191505060405180910390f35b348015610c7f57600080fd5b50610cda600480360381019080803590602001908201803590602001908080601f0160208091040260200160405190810160405280939291908181526020018383808284378201915050505050509192919290505050612a29565b6040518082815260200191505060405180910390f35b348015610cfc57600080fd5b50610d61600480360381019080803590602001908201803590602001908080601f016020809104026020016040519081016040528093929190818152602001838380828437820191505050505050919291929080359060200190929190505050612a9e565b005b6000600754905090565b6000601a826040518082805190602001908083835b602083101515610da75780518252602082019150602081019050602083039250610d82565b6001836020036101000a0380198251168184511680821785525050505050509050019150509081526020016040518091039020549050919050565b606060006017836040518082805190602001908083835b602083101515610e1e5780518252602082019150602081019050602083039250610df9565b6001836020036101000a03801982511681845116808217855250505050505090500191505090815260200160405180910390206000016017846040518082805190602001908083835b602083101515610e8c5780518252602082019150602081019050602083039250610e67565b6001836020036101000a038019825116818451168082178552505050505050905001915050908152602001604051809103902060010154818054600181600116156101000203166002900480601f016020809104026020016040519081016040528092919081815260200182805460018160011615610100020316600290048015610f585780601f10610f2d57610100808354040283529160200191610f58565b820191906000526020600020905b815481529060010190602001808311610f3b57829003601f168201915b5050505050915091509150915091565b601460009054906101000a900473ffffffffffffffffffffffffffffffffffffffff1673ffffffffffffffffffffffffffffffffffffffff163373ffffffffffffffffffffffffffffffffffffffff16141515610fc457600080fd5b6000603c6018603c806015544203811515610fdb57fe5b04811515610fe557fe5b04811515610fef57fe5b04811515610ff957fe5b049050600254811115151561100d57600080fd5b81601e846040518082805190602001908083835b6020831015156110465780518252602082019150602081019050602083039250611021565b6001836020036101000a03801982511681845116808217855250505050505090500191505090815260200160405180910390205401601e846040518082805190602001908083835b6020831015156110b3578051825260208201915060208101905060208303925061108e565b6001836020036101000a0380198251168184511680821785525050505050509050019150509081526020016040518091039020819055508160125401601281905550816011540160118190555061113d603c6018603c80601554420381151561111857fe5b0481151561112257fe5b0481151561112c57fe5b0481151561113657fe5b0483612d1c565b7fdf5a58dad35a60bda892c9d85adb29ee904d379bf1ad25eddcfd71956d41609083836040518080602001838152602001828103825284818151815260200191508051906020019080838360005b838110156111a657808201518184015260208101905061118b565b50505050905090810190601f1680156111d35780820380516001836020036101000a031916815260200191505b50935050505060405180910390a1505050565b60006009546008546011540301905090565b6000600e54905090565b606060006019836040518082805190602001908083835b60208310151561123e5780518252602082019150602081019050602083039250611219565b6001836020036101000a03801982511681845116808217855250505050505090500191505090815260200160405180910390206000016019846040518082805190602001908083835b6020831015156112ac5780518252602082019150602081019050602083039250611287565b6001836020036101000a038019825116818451168082178552505050505050905001915050908152602001604051809103902060010154818054600181600116156101000203166002900480601f0160208091040260200160405190810160405280929190818152602001828054600181600116156101000203166002900480156113785780601f1061134d57610100808354040283529160200191611378565b820191906000526020600020905b81548152906001019060200180831161135b57829003601f168201915b5050505050915091509150915091565b6000600854905090565b6000600c54905090565b6000600f54905090565b6000601654905090565b6000600654905090565b601460009054906101000a900473ffffffffffffffffffffffffffffffffffffffff1673ffffffffffffffffffffffffffffffffffffffff163373ffffffffffffffffffffffffffffffffffffffff1614151561141657600080fd5b6000603c6018603c80601554420381151561142d57fe5b0481151561143757fe5b0481151561144157fe5b0481151561144b57fe5b049050600254811115151561145f57600080fd5b81601a846040518082805190602001908083835b6020831015156114985780518252602082019150602081019050602083039250611473565b6001836020036101000a03801982511681845116808217855250505050505090500191505090815260200160405180910390205401601a846040518082805190602001908083835b60208310151561150557805182526020820191506020810190506020830392506114e0565b6001836020036101000a0380198251168184511680821785525050505050509050019150509081526020016040518091039020819055508160135401601381905550816011540160118190555061158f603c6018603c80601554420381151561156a57fe5b0481151561157457fe5b0481151561157e57fe5b0481151561158857fe5b0483612d1c565b7fb9235ae31f0fa3f12ddbd4af2b27192cb972c595e680214a9d5781b1baa3ca6b83836040518080602001838152602001828103825284818151815260200191508051906020019080838360005b838110156115f85780820151818401526020810190506115dd565b50505050905090810190601f1680156116255780820380516001836020036101000a031916815260200191505b50935050505060405180910390a1505050565b6000600d54905090565b601460009054906101000a900473ffffffffffffffffffffffffffffffffffffffff1673ffffffffffffffffffffffffffffffffffffffff163373ffffffffffffffffffffffffffffffffffffffff1614151561169e57600080fd5b6000603c6018603c8060155442038115156116b557fe5b048115156116bf57fe5b048115156116c957fe5b048115156116d357fe5b04905060025481111515156116e757600080fd5b816018846040518082805190602001908083835b60208310151561172057805182526020820191506020810190506020830392506116fb565b6001836020036101000a038019825116818451168082178552505050505050905001915050908152602001604051809103902054016018846040518082805190602001908083835b60208310151561178d5780518252602082019150602081019050602083039250611768565b6001836020036101000a03801982511681845116808217855250505050505090500191505090815260200160405180910390208190555081600e5401600e819055508160085401600881905550611817603c6018603c8060155442038115156117f257fe5b048115156117fc57fe5b0481151561180657fe5b0481151561181057fe5b0483612e1b565b7fb54895a562faa0e156073694a0a966ffcd3b91337bea06b150888be5cc5e421683836040518080602001838152602001828103825284818151815260200191508051906020019080838360005b83811015611880578082015181840152602081019050611865565b50505050905090810190601f1680156118ad5780820380516001836020036101000a031916815260200191505b50935050505060405180910390a1505050565b6000600a54905090565b6000601b826040518082805190602001908083835b60208310151561190457805182526020820191506020810190506020830392506118df565b6001836020036101000a0380198251168184511680821785525050505050509050019150509081526020016040518091039020549050919050565b611947612f1a565b601460009054906101000a900473ffffffffffffffffffffffffffffffffffffffff1673ffffffffffffffffffffffffffffffffffffffff163373ffffffffffffffffffffffffffffffffffffffff161415156119a357600080fd5b6000603c6018603c8060155442038115156119ba57fe5b048115156119c457fe5b048115156119ce57fe5b048115156119d857fe5b04905060025481111515156119ec57600080fd5b60405180807f7072696d617279000000000000000000000000000000000000000000000000008152506007019050604051809103902060001916846040518082805190602001908083835b602083101515611a5c5780518252602082019150602081019050602083039250611a37565b6001836020036101000a0380198251168184511680821785525050505050509050019150506040518091039020600019161480611b37575060405180807f7365636f6e6461727900000000000000000000000000000000000000000000008152506009019050604051809103902060001916846040518082805190602001908083835b602083101515611b045780518252602082019150602081019050602083039250611adf565b6001836020036101000a038019825116818451168082178552505050505050905001915050604051809103902060001916145b1515611b4257600080fd5b6040805190810160405280858152602001848152509150816019866040518082805190602001908083835b602083101515611b925780518252602082019150602081019050602083039250611b6d565b6001836020036101000a03801982511681845116808217855250505050505090500191505090815260200160405180910390206000820151816000019080519060200190611be1929190612f34565b506020820151816001015590505060405180807f7072696d617279000000000000000000000000000000000000000000000000008152506007019050604051809103902060001916846040518082805190602001908083835b602083101515611c5f5780518252602082019150602081019050602083039250611c3a565b6001836020036101000a0380198251168184511680821785525050505050509050019150506040518091039020600019161415611ca65782600f5401600f81905550611cb2565b82601054016010819055505b8260115401601181905550611cfa603c6018603c806015544203811515611cd557fe5b04811515611cdf57fe5b04811515611ce957fe5b04811515611cf357fe5b0484612d1c565b7fbb3370d9bd64eba698532db0ec933eb541a880af37a46182345ae7c592130489858585604051808060200180602001848152602001838103835286818151815260200191508051906020019080838360005b83811015611d68578082015181840152602081019050611d4d565b50505050905090810190601f168015611d955780820380516001836020036101000a031916815260200191505b50838103825285818151815260200191508051906020019080838360005b83811015611dce578082015181840152602081019050611db3565b50505050905090810190601f168015611dfb5780820380516001836020036101000a031916815260200191505b509550505050505060405180910390a15050505050565b601460009054906101000a900473ffffffffffffffffffffffffffffffffffffffff1673ffffffffffffffffffffffffffffffffffffffff163373ffffffffffffffffffffffffffffffffffffffff16141515611e6e57600080fd5b6000603c6018603c806015544203811515611e8557fe5b04811515611e8f57fe5b04811515611e9957fe5b04811515611ea357fe5b0490506002548111151515611eb757600080fd5b81600b5401600b81905550816008540160088190555081601b846040518082805190602001908083835b602083101515611f065780518252602082019150602081019050602083039250611ee1565b6001836020036101000a03801982511681845116808217855250505050505090500191505090815260200160405180910390205401601b846040518082805190602001908083835b602083101515611f735780518252602082019150602081019050602083039250611f4e565b6001836020036101000a038019825116818451168082178552505050505050905001915050908152602001604051809103902081905550611fe7603c6018603c806015544203811515611fc257fe5b04811515611fcc57fe5b04811515611fd657fe5b04811515611fe057fe5b0483612e1b565b7fbc7ffc4cb3a3e0cdeb3197e7bc1a7bb6907cf1f1e9c2671635c207bf5a114eaf83836040518080602001838152602001828103825284818151815260200191508051906020019080838360005b83811015612050578082015181840152602081019050612035565b50505050905090810190601f16801561207d5780820380516001836020036101000a031916815260200191505b50935050505060405180910390a1505050565b600060085460115403905090565b601460009054906101000a900473ffffffffffffffffffffffffffffffffffffffff1673ffffffffffffffffffffffffffffffffffffffff163373ffffffffffffffffffffffffffffffffffffffff161415156120fa57600080fd5b6000603c6018603c80601554420381151561211157fe5b0481151561211b57fe5b0481151561212557fe5b0481151561212f57fe5b049050600254811115151561214357600080fd5b81600954016009819055508160085401600881905550612196603c6018603c80601554420381151561217157fe5b0481151561217b57fe5b0481151561218557fe5b0481151561218f57fe5b0483612e1b565b7f0ecf06ed8c5ea413d65d88ea94888479614bcae670ca18f172b80e9620c6f8e0826040518082815260200191505060405180910390a15050565b60006005828154811015156121e257fe5b90600052602060002001549050919050565b6121fc612fb4565b601460009054906101000a900473ffffffffffffffffffffffffffffffffffffffff1673ffffffffffffffffffffffffffffffffffffffff163373ffffffffffffffffffffffffffffffffffffffff1614151561225857600080fd5b6000603c6018603c80601554420381151561226f57fe5b0481151561227957fe5b0481151561228357fe5b0481151561228d57fe5b04905060025481111515156122a157600080fd5b60405180807f7072696d617279000000000000000000000000000000000000000000000000008152506007019050604051809103902060001916846040518082805190602001908083835b60208310151561231157805182526020820191506020810190506020830392506122ec565b6001836020036101000a03801982511681845116808217855250505050505090500191505060405180910390206000191614806123ec575060405180807f7365636f6e6461727900000000000000000000000000000000000000000000008152506009019050604051809103902060001916846040518082805190602001908083835b6020831015156123b95780518252602082019150602081019050602083039250612394565b6001836020036101000a038019825116818451168082178552505050505050905001915050604051809103902060001916145b15156123f757600080fd5b6040805190810160405280858152602001848152509150816017866040518082805190602001908083835b6020831015156124475780518252602082019150602081019050602083039250612422565b6001836020036101000a03801982511681845116808217855250505050505090500191505090815260200160405180910390206000820151816000019080519060200190612496929190612f34565b506020820151816001015590505060405180807f7072696d617279000000000000000000000000000000000000000000000000008152506007019050604051809103902060001916846040518082805190602001908083835b60208310151561251457805182526020820191506020810190506020830392506124ef565b6001836020036101000a03801982511681845116808217855250505050505090500191505060405180910390206000191614156125665782600d5401600d819055508260065401600681905550612572565b82600754016007819055505b82600854016008819055506125ba603c6018603c80601554420381151561259557fe5b0481151561259f57fe5b048115156125a957fe5b048115156125b357fe5b0484612e1b565b7fe65fc0176815a4f611947bcc2931abf721b77e2ae2a65f417d90e1fbf15ce271858585604051808060200180602001848152602001838103835286818151815260200191508051906020019080838360005b8381101561262857808201518184015260208101905061260d565b50505050905090810190601f1680156126555780820380516001836020036101000a031916815260200191505b50838103825285818151815260200191508051906020019080838360005b8381101561268e578082015181840152602081019050612673565b50505050905090810190601f1680156126bb5780820380516001836020036101000a031916815260200191505b509550505050505060405180910390a15050505050565b6000600954905090565b60006004828154811015156126ed57fe5b90600052602060002001549050919050565b600090565b601460009054906101000a900473ffffffffffffffffffffffffffffffffffffffff1673ffffffffffffffffffffffffffffffffffffffff163373ffffffffffffffffffffffffffffffffffffffff1614151561276057600080fd5b6000603c6018603c80601554420381151561277757fe5b0481151561278157fe5b0481151561278b57fe5b0481151561279557fe5b04905060025481111515156127a957600080fd5b81601c846040518082805190602001908083835b6020831015156127e257805182526020820191506020810190506020830392506127bd565b6001836020036101000a03801982511681845116808217855250505050505090500191505090815260200160405180910390205401601c846040518082805190602001908083835b60208310151561284f578051825260208201915060208101905060208303925061282a565b6001836020036101000a038019825116818451168082178552505050505050905001915050908152602001604051809103902081905550816008540160088190555081600a5401600a819055506128d9603c6018603c8060155442038115156128b457fe5b048115156128be57fe5b048115156128c857fe5b048115156128d257fe5b0483612e1b565b7ffd01883306ed873fd4938eda64038c2f2534c0d87176c1b6ca4c60b57ce12f0283836040518080602001838152602001828103825284818151815260200191508051906020019080838360005b83811015612942578082015181840152602081019050612927565b50505050905090810190601f16801561296f5780820380516001836020036101000a031916815260200191505b50935050505060405180910390a1505050565b6000601554905090565b6000601154905090565b6000601c826040518082805190602001908083835b6020831015156129d057805182526020820191506020810190506020830392506129ab565b6001836020036101000a0380198251168184511680821785525050505050509050019150509081526020016040518091039020549050919050565b6000601054905090565b6000600b54905090565b6000601354905090565b60006018826040518082805190602001908083835b602083101515612a635780518252602082019150602081019050602083039250612a3e565b6001836020036101000a0380198251168184511680821785525050505050509050019150509081526020016040518091039020549050919050565b601460009054906101000a900473ffffffffffffffffffffffffffffffffffffffff1673ffffffffffffffffffffffffffffffffffffffff163373ffffffffffffffffffffffffffffffffffffffff16141515612afa57600080fd5b6000603c6018603c806015544203811515612b1157fe5b04811515612b1b57fe5b04811515612b2557fe5b04811515612b2f57fe5b0490506002548111151515612b4357600080fd5b81600c5401600c81905550816008540160088190555081601d846040518082805190602001908083835b602083101515612b925780518252602082019150602081019050602083039250612b6d565b6001836020036101000a03801982511681845116808217855250505050505090500191505090815260200160405180910390205401601d846040518082805190602001908083835b602083101515612bff5780518252602082019150602081019050602083039250612bda565b6001836020036101000a038019825116818451168082178552505050505050905001915050908152602001604051809103902081905550612c73603c6018603c806015544203811515612c4e57fe5b04811515612c5857fe5b04811515612c6257fe5b04811515612c6c57fe5b0483612e1b565b7f0f3223df2dcf2449e184daade93bbcb6084e36d982a31a48fa42b9e03353793e83836040518080602001838152602001828103825284818151815260200191508051906020019080838360005b83811015612cdc578082015181840152602081019050612cc1565b50505050905090810190601f168015612d095780820380516001836020036101000a031916815260200191505b50935050505060405180910390a1505050565b60005482111515612d67578060046000815481101515612d3857fe5b90600052602060002001540160046000815481101515612d5457fe5b9060005260206000200181905550612e17565b6000548210158015612d7b57506001548211155b15612dc0578060046001815481101515612d9157fe5b90600052602060002001540160046001815481101515612dad57fe5b9060005260206000200181905550612e16565b6001548210158015612dd457506002548211155b15612e15578060046002815481101515612dea57fe5b90600052602060002001540160046002815481101515612e0657fe5b90600052602060002001819055505b5b5b5050565b60005482111515612e66578060056000815481101515612e3757fe5b90600052602060002001540160056000815481101515612e5357fe5b9060005260206000200181905550612f16565b6000548210158015612e7a57506001548211155b15612ebf578060056001815481101515612e9057fe5b90600052602060002001540160056001815481101515612eac57fe5b9060005260206000200181905550612f15565b6001548210158015612ed357506002548211155b15612f14578060056002815481101515612ee957fe5b90600052602060002001540160056002815481101515612f0557fe5b90600052602060002001819055505b5b5b5050565b604080519081016040528060608152602001600081525090565b828054600181600116156101000203166002900490600052602060002090601f016020900481019282601f10612f7557805160ff1916838001178555612fa3565b82800160010185558215612fa3579182015b82811115612fa2578251825591602001919060010190612f87565b5b509050612fb09190612fce565b5090565b604080519081016040528060608152602001600081525090565b612ff091905b80821115612fec576000816000905550600101612fd4565b5090565b905600a165627a7a723058206782473d3c717b00f4fb5700ecdbeecf2b1fbd1181d9c2f81fcc6bfacbbf7ed80029",
  "source": "pragma solidity 0.4.24;\n\nimport \"contracts/interfaces/ITransparentDao.sol\";\nimport \"contracts/interfaces/IFloatMath.sol\";\nimport \"contracts/interfaces/IIncomeStatement.sol\";\n\nimport \"contracts/utils/DateTime.sol\";\n\ncontract IncomeStatement is IIncomeStatement {\n\n  //Structs\n\n  struct Income {\n\n    string _type;\n\n    uint256 howMuch;\n\n  }\n\n  struct Expense {\n\n    string _type;\n\n    uint256 howMuch;\n\n  }\n\n  //Constants\n\n  uint256 month = 712 hours;\n  uint256 twoMonths = 1424 hours;\n  uint256 quarter = 2136 hours;\n  uint256 year = 8544 hours;\n\n  //General\n\n  uint256[] monthlyRevenue;\n  uint256[] monthlyExpenses;\n\n  //Expenses\n\n  uint256 primaryExpenses;\n\n  uint256 secondaryExpenses;\n\n  uint256 totalExpenses;\n\n  uint256 incomeTaxExpense;\n\n  uint256 RDExpense;\n\n  uint256 donations;\n\n  uint256 interestExpense;\n\n  uint256 costOfRevenue;\n\n  uint256 losses;\n\n  //Earnings\n\n  uint256 operatingIncome;\n\n  uint256 nonOperatingIncome;\n\n  uint256 totalGrossIncome;\n\n  uint256 interestGained;\n\n  uint256 gains;\n\n  //Misscellaneous\n\n  address dao;\n\n  uint256 startTime;\n\n  uint256 endTime;\n\n  mapping(string => Expense) detailedExpenses;\n  mapping(string => uint256) detailedLosses;\n\n  mapping(string => Income) detailedIncome;\n  mapping(string => uint256) detailedGains;\n\n  mapping(string => uint256) detailedDonations;\n  mapping(string => uint256) detailedRD;\n\n  mapping(string => uint256) detailedInterestPaid;\n  mapping(string => uint256) detailedInterestReceived;\n\n  DateTime dateTime;\n\n  modifier onlyDAO {\n\n    require(msg.sender == dao);\n    _;\n\n  }\n\n  modifier inQuarter {\n\n    uint _hours = (now - startTime) / 60 / 60 / 24 / 60;\n\n    require(_hours <= quarter);\n\n    _;\n\n  }\n\n  constructor(address _dao, address _dateTime) {\n\n    dao = _dao;\n\n    startTime = now;\n\n    endTime = startTime + quarter;\n\n    dateTime = DateTime(_dateTime);\n\n  }\n\n  function addIncome(string description, string _type, uint256 howMuch) public onlyDAO inQuarter {\n\n    require(keccak256(_type) == keccak256(\"primary\") ||\n            keccak256(_type) == keccak256(\"secondary\"));\n\n    Income memory newItem = Income(_type, howMuch);\n\n    detailedIncome[description] = newItem;\n\n    if (keccak256(_type) == keccak256(\"primary\"))\n      operatingIncome = operatingIncome + howMuch;\n\n    else\n      nonOperatingIncome = nonOperatingIncome + howMuch;\n\n    totalGrossIncome = totalGrossIncome + howMuch;\n\n    addToMonthlyIncome((now - startTime) / 60 / 60 / 24 / 60, howMuch);\n\n    emit AddedIncome(description, _type, howMuch);\n\n  }\n\n  function addExpense(string description, string _type, uint256 howMuch) public onlyDAO inQuarter {\n\n    require(keccak256(_type) == keccak256(\"primary\") ||\n            keccak256(_type) == keccak256(\"secondary\"));\n\n    Expense memory newExpense = Expense(_type, howMuch);\n\n    detailedExpenses[description] = newExpense;\n\n    if (keccak256(_type) == keccak256(\"primary\")) {\n\n      costOfRevenue = costOfRevenue + howMuch;\n\n      primaryExpenses = primaryExpenses + howMuch;\n\n    }\n\n    else\n      secondaryExpenses = secondaryExpenses + howMuch;\n\n    totalExpenses = totalExpenses + howMuch;\n\n    addToMonthlyExpenses((now - startTime) / 60 / 60 / 24 / 60, howMuch);\n\n    emit AddedExpense(description, _type, howMuch);\n\n  }\n\n  function addLoss(string description, uint256 howMuch) public onlyDAO inQuarter {\n\n    detailedLosses[description] = detailedLosses[description] + howMuch;\n\n    losses = losses + howMuch;\n\n    totalExpenses = totalExpenses + howMuch;\n\n    addToMonthlyExpenses((now - startTime) / 60 / 60 / 24 / 60, howMuch);\n\n    emit AddedLoss(description, howMuch);\n\n  }\n\n  function addGain(string description, uint256 howMuch) public onlyDAO inQuarter {\n\n    detailedGains[description] = detailedGains[description] + howMuch;\n\n    gains = gains + howMuch;\n\n    totalGrossIncome = totalGrossIncome + howMuch;\n\n    addToMonthlyIncome((now - startTime) / 60 / 60 / 24 / 60, howMuch);\n\n    emit AddedGain(description, howMuch);\n\n  }\n\n  function reportTax(uint256 tax) public onlyDAO inQuarter {\n\n    incomeTaxExpense = incomeTaxExpense + tax;\n\n    totalExpenses = totalExpenses + tax;\n\n    addToMonthlyExpenses( (now - startTime) / 60 / 60 / 24 / 60, tax );\n\n    emit ReportedTax(tax);\n\n  }\n\n  function reportRD(string description, uint256 rdExpense) public onlyDAO inQuarter {\n\n    detailedRD[description] = detailedRD[description] + rdExpense;\n\n    totalExpenses = totalExpenses + rdExpense;\n\n    RDExpense = RDExpense + rdExpense;\n\n    addToMonthlyExpenses((now - startTime) / 60 / 60 / 24 / 60, rdExpense);\n\n    emit ReportedRD(description, rdExpense);\n\n  }\n\n  function reportDonation(string description, uint256 donation) public onlyDAO inQuarter {\n\n    donations = donations + donation;\n\n    totalExpenses = totalExpenses + donation;\n\n    detailedDonations[description] = detailedDonations[description] + donation;\n\n    addToMonthlyExpenses((now - startTime) / 60 / 60 / 24 / 60, donation);\n\n    emit ReportedDonation(description, donation);\n\n  }\n\n  function reportInterestExpense(string description, uint256 howMuch) public onlyDAO inQuarter {\n\n    interestExpense = interestExpense + howMuch;\n\n    totalExpenses = totalExpenses + howMuch;\n\n    detailedInterestPaid[description] = detailedInterestPaid[description] + howMuch;\n\n    addToMonthlyExpenses((now - startTime) / 60 / 60 / 24 / 60, howMuch);\n\n    emit ReportedInterestExpense(description, howMuch);\n\n  }\n\n  function reportInterestGained(string description, uint256 howMuch) public onlyDAO inQuarter {\n\n    detailedInterestReceived[description] = detailedInterestReceived[description] + howMuch;\n\n    interestGained = interestGained + howMuch;\n\n    totalGrossIncome = totalGrossIncome + howMuch;\n\n    addToMonthlyIncome((now - startTime) / 60 / 60 / 24 / 60, howMuch);\n\n    emit ReportedInterestGained(description, howMuch);\n\n  }\n\n  //PRIVATE\n\n  function addToMonthlyIncome(uint256 _hours, uint256 howMuch) private {\n\n    if (_hours <= month)\n      monthlyRevenue[0] = monthlyRevenue[0] + howMuch;\n\n    else if (_hours >= month && _hours <= twoMonths)\n      monthlyRevenue[1] = monthlyRevenue[1] + howMuch;\n\n    else if (_hours >= twoMonths && _hours <= quarter)\n      monthlyRevenue[2] = monthlyRevenue[2] + howMuch;\n\n  }\n\n  function addToMonthlyExpenses(uint256 _hours, uint256 howMuch) private {\n\n    if (_hours <= month)\n      monthlyExpenses[0] = monthlyExpenses[0] + howMuch;\n\n    else if (_hours >= month && _hours <= twoMonths)\n      monthlyExpenses[1] = monthlyExpenses[1] + howMuch;\n\n    else if (_hours >= twoMonths && _hours <= quarter)\n      monthlyExpenses[2] = monthlyExpenses[2] + howMuch;\n\n  }\n\n  //GETTERS\n\n  //Earnings per coin\n\n  function getEPC() public view returns (bytes32) {\n\n    //[PRODUCTION] do it on chain\n\n  }\n\n  function getMonthlyRevenue(uint256 position) public view returns (uint256) {\n\n    return monthlyRevenue[position];\n\n  }\n\n  function getMonthlyExpenses(uint256 position) public view returns (uint256) {\n\n    return monthlyExpenses[position];\n\n  }\n\n  function getDetailedExpense(string expense) public view returns (string, uint256) {\n\n    return (detailedExpenses[expense]._type, detailedExpenses[expense].howMuch);\n\n  }\n\n  function getDetailedIncome(string income) public view returns (string, uint256) {\n\n    return (detailedIncome[income]._type, detailedIncome[income].howMuch);\n\n  }\n\n  function getDetailedLoss(string loss) public view returns (uint256) {\n\n    return detailedLosses[loss];\n\n  }\n\n  function getDetailedGain(string gain) public view returns (uint256) {\n\n    return detailedGains[gain];\n\n  }\n\n  function getDetailedDonation(string donation) public view returns (uint256) {\n\n    return detailedDonations[donation];\n\n  }\n\n  function getDetailedRD(string rd) public view returns (uint256) {\n\n    return detailedRD[rd];\n\n  }\n\n  function getPrimaryExpenses() public view returns (uint256) {\n\n    return primaryExpenses;\n\n  }\n\n  function getSecondaryExpenses() public view returns (uint256) {\n\n    return secondaryExpenses;\n\n  }\n\n  function getTotalExpenses() public view returns (uint256) {\n\n    return totalExpenses;\n\n  }\n\n  function getIncomeTaxExpenses() public view returns (uint256) {\n\n    return incomeTaxExpense;\n\n  }\n\n  function getRDExpense() public view returns (uint256) {\n\n    return RDExpense;\n\n  }\n\n  function getDonations() public view returns (uint256) {\n\n    return donations;\n\n  }\n\n  function getCostOfRevenue() public view returns (uint256) {\n\n    return costOfRevenue;\n\n  }\n\n  function getInterestExpense() public view returns (uint256) {\n\n    return interestExpense;\n\n  }\n\n  function getLosses() public view returns (uint256) {\n\n    return losses;\n\n  }\n\n  function getOperatingIncome() public view returns (uint256) {\n\n    return operatingIncome;\n\n  }\n\n  function getNonOperatingIncome() public view returns (uint256) {\n\n    return nonOperatingIncome;\n\n  }\n\n  function getTotalGrossIncome() public view returns (uint256) {\n\n    return totalGrossIncome;\n\n  }\n\n  function getGains() public view returns (uint256) {\n\n    return gains;\n\n  }\n\n  function getNetIncomeBeforeTaxes() public view returns (uint256) {\n\n    return totalGrossIncome - totalExpenses + incomeTaxExpense;\n\n  }\n\n  function getNetIncomeAfterTaxes() public view returns (uint256) {\n\n    return totalGrossIncome - totalExpenses;\n\n  }\n\n  function getStartTime() public view returns (uint256) {\n\n    return startTime;\n\n  }\n\n  function getEndTime() public view returns (uint256) {\n\n    return endTime;\n\n  }\n\n}\n",
  "sourcePath": "contracts/accounting/statements/IncomeStatement.sol",
  "compiler": {
    "name": "solc",
    "version": "0.4.24+commit.e67f0147.Emscripten.clang"
  },
  "schemaVersion": "2.0.1",
  "updatedAt": "2018-12-14T17:21:44.520Z"
}