{
  "contractName": "IncomeStatement",
  "abi": [
    {
      "inputs": [
        {
          "name": "_dao",
          "type": "address"
        }
      ],
      "payable": false,
      "stateMutability": "nonpayable",
      "type": "constructor"
    },
    {
      "anonymous": false,
      "inputs": [
        {
          "indexed": false,
          "name": "description",
          "type": "bytes32"
        },
        {
          "indexed": false,
          "name": "_type",
          "type": "bytes32"
        },
        {
          "indexed": false,
          "name": "howMuch",
          "type": "uint256"
        }
      ],
      "name": "AddedIncome",
      "type": "event"
    },
    {
      "anonymous": false,
      "inputs": [
        {
          "indexed": false,
          "name": "description",
          "type": "bytes32"
        },
        {
          "indexed": false,
          "name": "_type",
          "type": "bytes32"
        },
        {
          "indexed": false,
          "name": "howMuch",
          "type": "uint256"
        }
      ],
      "name": "AddedExpense",
      "type": "event"
    },
    {
      "anonymous": false,
      "inputs": [
        {
          "indexed": false,
          "name": "description",
          "type": "bytes32"
        },
        {
          "indexed": false,
          "name": "howMuch",
          "type": "uint256"
        }
      ],
      "name": "AddedLoss",
      "type": "event"
    },
    {
      "anonymous": false,
      "inputs": [
        {
          "indexed": false,
          "name": "description",
          "type": "bytes32"
        },
        {
          "indexed": false,
          "name": "howMuch",
          "type": "uint256"
        }
      ],
      "name": "AddedGain",
      "type": "event"
    },
    {
      "anonymous": false,
      "inputs": [
        {
          "indexed": false,
          "name": "tax",
          "type": "uint256"
        }
      ],
      "name": "ReportedTax",
      "type": "event"
    },
    {
      "anonymous": false,
      "inputs": [
        {
          "indexed": false,
          "name": "description",
          "type": "bytes32"
        },
        {
          "indexed": false,
          "name": "rdExpense",
          "type": "uint256"
        }
      ],
      "name": "ReportedRD",
      "type": "event"
    },
    {
      "anonymous": false,
      "inputs": [
        {
          "indexed": false,
          "name": "description",
          "type": "bytes32"
        },
        {
          "indexed": false,
          "name": "donation",
          "type": "uint256"
        }
      ],
      "name": "ReportedDonation",
      "type": "event"
    },
    {
      "anonymous": false,
      "inputs": [
        {
          "indexed": false,
          "name": "description",
          "type": "bytes32"
        },
        {
          "indexed": false,
          "name": "howMuch",
          "type": "uint256"
        }
      ],
      "name": "ReportedInterestExpense",
      "type": "event"
    },
    {
      "anonymous": false,
      "inputs": [
        {
          "indexed": false,
          "name": "description",
          "type": "bytes32"
        },
        {
          "indexed": false,
          "name": "howMuch",
          "type": "uint256"
        }
      ],
      "name": "ReportedInterestGained",
      "type": "event"
    },
    {
      "constant": false,
      "inputs": [
        {
          "name": "description",
          "type": "bytes32"
        },
        {
          "name": "_type",
          "type": "bytes32"
        },
        {
          "name": "howMuch",
          "type": "uint256"
        }
      ],
      "name": "addIncome",
      "outputs": [],
      "payable": false,
      "stateMutability": "nonpayable",
      "type": "function"
    },
    {
      "constant": false,
      "inputs": [
        {
          "name": "description",
          "type": "bytes32"
        },
        {
          "name": "_type",
          "type": "bytes32"
        },
        {
          "name": "howMuch",
          "type": "uint256"
        }
      ],
      "name": "addExpense",
      "outputs": [],
      "payable": false,
      "stateMutability": "nonpayable",
      "type": "function"
    },
    {
      "constant": false,
      "inputs": [
        {
          "name": "description",
          "type": "bytes32"
        },
        {
          "name": "howMuch",
          "type": "uint256"
        }
      ],
      "name": "addLoss",
      "outputs": [],
      "payable": false,
      "stateMutability": "nonpayable",
      "type": "function"
    },
    {
      "constant": false,
      "inputs": [
        {
          "name": "description",
          "type": "bytes32"
        },
        {
          "name": "howMuch",
          "type": "uint256"
        }
      ],
      "name": "addGain",
      "outputs": [],
      "payable": false,
      "stateMutability": "nonpayable",
      "type": "function"
    },
    {
      "constant": false,
      "inputs": [
        {
          "name": "tax",
          "type": "uint256"
        }
      ],
      "name": "reportTax",
      "outputs": [],
      "payable": false,
      "stateMutability": "nonpayable",
      "type": "function"
    },
    {
      "constant": false,
      "inputs": [
        {
          "name": "description",
          "type": "bytes32"
        },
        {
          "name": "rdExpense",
          "type": "uint256"
        }
      ],
      "name": "reportRD",
      "outputs": [],
      "payable": false,
      "stateMutability": "nonpayable",
      "type": "function"
    },
    {
      "constant": false,
      "inputs": [
        {
          "name": "description",
          "type": "bytes32"
        },
        {
          "name": "donation",
          "type": "uint256"
        }
      ],
      "name": "reportDonation",
      "outputs": [],
      "payable": false,
      "stateMutability": "nonpayable",
      "type": "function"
    },
    {
      "constant": false,
      "inputs": [
        {
          "name": "description",
          "type": "bytes32"
        },
        {
          "name": "howMuch",
          "type": "uint256"
        }
      ],
      "name": "reportInterestExpense",
      "outputs": [],
      "payable": false,
      "stateMutability": "nonpayable",
      "type": "function"
    },
    {
      "constant": false,
      "inputs": [
        {
          "name": "description",
          "type": "bytes32"
        },
        {
          "name": "howMuch",
          "type": "uint256"
        }
      ],
      "name": "reportInterestGained",
      "outputs": [],
      "payable": false,
      "stateMutability": "nonpayable",
      "type": "function"
    },
    {
      "constant": true,
      "inputs": [
        {
          "name": "endTime",
          "type": "uint256"
        },
        {
          "name": "startTime",
          "type": "uint256"
        }
      ],
      "name": "getHours",
      "outputs": [
        {
          "name": "",
          "type": "uint256"
        }
      ],
      "payable": false,
      "stateMutability": "view",
      "type": "function"
    },
    {
      "constant": true,
      "inputs": [
        {
          "name": "position",
          "type": "uint256"
        }
      ],
      "name": "getMonthlyRevenue",
      "outputs": [
        {
          "name": "",
          "type": "uint256"
        }
      ],
      "payable": false,
      "stateMutability": "view",
      "type": "function"
    },
    {
      "constant": true,
      "inputs": [
        {
          "name": "position",
          "type": "uint256"
        }
      ],
      "name": "getMonthlyExpenses",
      "outputs": [
        {
          "name": "",
          "type": "uint256"
        }
      ],
      "payable": false,
      "stateMutability": "view",
      "type": "function"
    },
    {
      "constant": true,
      "inputs": [
        {
          "name": "expense",
          "type": "bytes32"
        }
      ],
      "name": "getDetailedExpense",
      "outputs": [
        {
          "name": "",
          "type": "bytes32"
        },
        {
          "name": "",
          "type": "uint256"
        }
      ],
      "payable": false,
      "stateMutability": "view",
      "type": "function"
    },
    {
      "constant": true,
      "inputs": [
        {
          "name": "income",
          "type": "bytes32"
        }
      ],
      "name": "getDetailedIncome",
      "outputs": [
        {
          "name": "",
          "type": "bytes32"
        },
        {
          "name": "",
          "type": "uint256"
        }
      ],
      "payable": false,
      "stateMutability": "view",
      "type": "function"
    },
    {
      "constant": true,
      "inputs": [
        {
          "name": "loss",
          "type": "bytes32"
        }
      ],
      "name": "getDetailedLoss",
      "outputs": [
        {
          "name": "",
          "type": "uint256"
        }
      ],
      "payable": false,
      "stateMutability": "view",
      "type": "function"
    },
    {
      "constant": true,
      "inputs": [
        {
          "name": "gain",
          "type": "bytes32"
        }
      ],
      "name": "getDetailedGain",
      "outputs": [
        {
          "name": "",
          "type": "uint256"
        }
      ],
      "payable": false,
      "stateMutability": "view",
      "type": "function"
    },
    {
      "constant": true,
      "inputs": [
        {
          "name": "donation",
          "type": "bytes32"
        }
      ],
      "name": "getDetailedDonation",
      "outputs": [
        {
          "name": "",
          "type": "uint256"
        }
      ],
      "payable": false,
      "stateMutability": "view",
      "type": "function"
    },
    {
      "constant": true,
      "inputs": [
        {
          "name": "rd",
          "type": "bytes32"
        }
      ],
      "name": "getDetailedRD",
      "outputs": [
        {
          "name": "",
          "type": "uint256"
        }
      ],
      "payable": false,
      "stateMutability": "view",
      "type": "function"
    },
    {
      "constant": true,
      "inputs": [],
      "name": "getPrimaryExpenses",
      "outputs": [
        {
          "name": "",
          "type": "uint256"
        }
      ],
      "payable": false,
      "stateMutability": "view",
      "type": "function"
    },
    {
      "constant": true,
      "inputs": [],
      "name": "getSecondaryExpenses",
      "outputs": [
        {
          "name": "",
          "type": "uint256"
        }
      ],
      "payable": false,
      "stateMutability": "view",
      "type": "function"
    },
    {
      "constant": true,
      "inputs": [],
      "name": "getTotalExpenses",
      "outputs": [
        {
          "name": "",
          "type": "uint256"
        }
      ],
      "payable": false,
      "stateMutability": "view",
      "type": "function"
    },
    {
      "constant": true,
      "inputs": [],
      "name": "getIncomeTaxExpenses",
      "outputs": [
        {
          "name": "",
          "type": "uint256"
        }
      ],
      "payable": false,
      "stateMutability": "view",
      "type": "function"
    },
    {
      "constant": true,
      "inputs": [],
      "name": "getRDExpense",
      "outputs": [
        {
          "name": "",
          "type": "uint256"
        }
      ],
      "payable": false,
      "stateMutability": "view",
      "type": "function"
    },
    {
      "constant": true,
      "inputs": [],
      "name": "getDonations",
      "outputs": [
        {
          "name": "",
          "type": "uint256"
        }
      ],
      "payable": false,
      "stateMutability": "view",
      "type": "function"
    },
    {
      "constant": true,
      "inputs": [],
      "name": "getCostOfRevenue",
      "outputs": [
        {
          "name": "",
          "type": "uint256"
        }
      ],
      "payable": false,
      "stateMutability": "view",
      "type": "function"
    },
    {
      "constant": true,
      "inputs": [],
      "name": "getInterestExpense",
      "outputs": [
        {
          "name": "",
          "type": "uint256"
        }
      ],
      "payable": false,
      "stateMutability": "view",
      "type": "function"
    },
    {
      "constant": true,
      "inputs": [],
      "name": "getLosses",
      "outputs": [
        {
          "name": "",
          "type": "uint256"
        }
      ],
      "payable": false,
      "stateMutability": "view",
      "type": "function"
    },
    {
      "constant": true,
      "inputs": [],
      "name": "getOperatingIncome",
      "outputs": [
        {
          "name": "",
          "type": "uint256"
        }
      ],
      "payable": false,
      "stateMutability": "view",
      "type": "function"
    },
    {
      "constant": true,
      "inputs": [],
      "name": "getNonOperatingIncome",
      "outputs": [
        {
          "name": "",
          "type": "uint256"
        }
      ],
      "payable": false,
      "stateMutability": "view",
      "type": "function"
    },
    {
      "constant": true,
      "inputs": [],
      "name": "getTotalGrossIncome",
      "outputs": [
        {
          "name": "",
          "type": "uint256"
        }
      ],
      "payable": false,
      "stateMutability": "view",
      "type": "function"
    },
    {
      "constant": true,
      "inputs": [],
      "name": "getGains",
      "outputs": [
        {
          "name": "",
          "type": "uint256"
        }
      ],
      "payable": false,
      "stateMutability": "view",
      "type": "function"
    },
    {
      "constant": true,
      "inputs": [],
      "name": "getNetIncomeBeforeTaxes",
      "outputs": [
        {
          "name": "",
          "type": "uint256"
        }
      ],
      "payable": false,
      "stateMutability": "view",
      "type": "function"
    },
    {
      "constant": true,
      "inputs": [],
      "name": "getNetIncomeAfterTaxes",
      "outputs": [
        {
          "name": "",
          "type": "uint256"
        }
      ],
      "payable": false,
      "stateMutability": "view",
      "type": "function"
    },
    {
      "constant": true,
      "inputs": [],
      "name": "getStartTime",
      "outputs": [
        {
          "name": "",
          "type": "uint256"
        }
      ],
      "payable": false,
      "stateMutability": "view",
      "type": "function"
    },
    {
      "constant": true,
      "inputs": [],
      "name": "getEndTime",
      "outputs": [
        {
          "name": "",
          "type": "uint256"
        }
      ],
      "payable": false,
      "stateMutability": "view",
      "type": "function"
    },
    {
      "constant": true,
      "inputs": [],
      "name": "getDao",
      "outputs": [
        {
          "name": "",
          "type": "address"
        }
      ],
      "payable": false,
      "stateMutability": "view",
      "type": "function"
    }
  ],
  "bytecode": "0x608060405262271c80600055624e3900600155627555806002556301d5560060035534801561002d57600080fd5b50604051602080611e2e8339810180604052810190808051906020019092919050505080601460006101000a81548173ffffffffffffffffffffffffffffffffffffffff021916908373ffffffffffffffffffffffffffffffffffffffff160217905550426015819055506100bc6002546015546100c864010000000002611a2c179091906401000000009004565b601681905550506100e4565b600081830190508281101515156100db57fe5b80905092915050565b611d3b806100f36000396000f3006080604052600436106101c2576000357c0100000000000000000000000000000000000000000000000000000000900463ffffffff16806316c5609a146101c757806318c6062b1461020257806335500dd01461022d57806335e1983e146102585780633ba71c37146102835780633c2db7b9146102d75780633d9c0d49146103025780633fdb81ee1461032d578063405ef01d14610376578063439f5ac2146103a1578063583185e6146103cc5780635c19abf4146104155780635e3f44c71461045a5780636019f0381461048557806360c7d436146104c05780637a275710146104eb5780638225fa781461051657806386eaf4ca146105615780638db7d4361461059c5780638e9cc073146105f0578063924b93d41461061b5780639902545b146106605780639bf685b31461068d578063acefd4ce146106ce578063b5674b26146106f9578063b70811bc1461073a578063b8cb714314610791578063bb60036d146107cc578063c828371e14610811578063ca02dacf1461083c578063d237021314610867578063d87e5ee6146108ac578063dcaa8217146108e7578063e25f841614610912578063e7ac022d1461093d578063e996e29c14610968575b600080fd5b3480156101d357600080fd5b506102006004803603810190808035600019169060200190929190803590602001909291905050506109a3565b005b34801561020e57600080fd5b50610217610b04565b6040518082815260200191505060405180910390f35b34801561023957600080fd5b50610242610b0e565b6040518082815260200191505060405180910390f35b34801561026457600080fd5b5061026d610b40565b6040518082815260200191505060405180910390f35b34801561028f57600080fd5b506102b26004803603810190808035600019169060200190929190505050610b4a565b6040518083600019166000191681526020018281526020019250505060405180910390f35b3480156102e357600080fd5b506102ec610b94565b6040518082815260200191505060405180910390f35b34801561030e57600080fd5b50610317610b9e565b6040518082815260200191505060405180910390f35b34801561033957600080fd5b506103746004803603810190808035600019169060200190929190803560001916906020019092919080359060200190929190505050610ba8565b005b34801561038257600080fd5b5061038b610dfe565b6040518082815260200191505060405180910390f35b3480156103ad57600080fd5b506103b6610e08565b6040518082815260200191505060405180910390f35b3480156103d857600080fd5b506104136004803603810190808035600019169060200190929190803560001916906020019092919080359060200190929190505050610e12565b005b34801561042157600080fd5b50610444600480360381019080803560001916906020019092919050505061104d565b6040518082815260200191505060405180910390f35b34801561046657600080fd5b5061046f611072565b6040518082815260200191505060405180910390f35b34801561049157600080fd5b506104be60048036038101908080356000191690602001909291908035906020019092919050505061107c565b005b3480156104cc57600080fd5b506104d56111dd565b6040518082815260200191505060405180910390f35b3480156104f757600080fd5b506105006111e7565b6040518082815260200191505060405180910390f35b34801561052257600080fd5b5061054b60048036038101908080359060200190929190803590602001909291905050506111f1565b6040518082815260200191505060405180910390f35b34801561056d57600080fd5b5061059a600480360381019080803560001916906020019092919080359060200190929190505050611222565b005b3480156105a857600080fd5b506105cb6004803603810190808035600019169060200190929190505050611383565b6040518083600019166000191681526020018281526020019250505060405180910390f35b3480156105fc57600080fd5b506106056113cd565b6040518082815260200191505060405180910390f35b34801561062757600080fd5b5061064a60048036038101908080356000191690602001909291905050506113eb565b6040518082815260200191505060405180910390f35b34801561066c57600080fd5b5061068b60048036038101908080359060200190929190505050611410565b005b34801561069957600080fd5b506106b860048036038101908080359060200190929190505050611513565b6040518082815260200191505060405180910390f35b3480156106da57600080fd5b506106e3611536565b6040518082815260200191505060405180910390f35b34801561070557600080fd5b5061072460048036038101908080359060200190929190505050611540565b6040518082815260200191505060405180910390f35b34801561074657600080fd5b5061074f611563565b604051808273ffffffffffffffffffffffffffffffffffffffff1673ffffffffffffffffffffffffffffffffffffffff16815260200191505060405180910390f35b34801561079d57600080fd5b506107ca60048036038101908080356000191690602001909291908035906020019092919050505061158d565b005b3480156107d857600080fd5b506107fb60048036038101908080356000191690602001909291905050506116ee565b6040518082815260200191505060405180910390f35b34801561081d57600080fd5b50610826611713565b6040518082815260200191505060405180910390f35b34801561084857600080fd5b5061085161171d565b6040518082815260200191505060405180910390f35b34801561087357600080fd5b506108966004803603810190808035600019169060200190929190505050611727565b6040518082815260200191505060405180910390f35b3480156108b857600080fd5b506108e560048036038101908080356000191690602001909291908035906020019092919050505061174c565b005b3480156108f357600080fd5b506108fc6118ad565b6040518082815260200191505060405180910390f35b34801561091e57600080fd5b506109276118b7565b6040518082815260200191505060405180910390f35b34801561094957600080fd5b506109526118c1565b6040518082815260200191505060405180910390f35b34801561097457600080fd5b506109a16004803603810190808035600019169060200190929190803590602001909291905050506118cb565b005b601460009054906101000a900473ffffffffffffffffffffffffffffffffffffffff1673ffffffffffffffffffffffffffffffffffffffff163373ffffffffffffffffffffffffffffffffffffffff161415156109ff57600080fd5b6000610a0d426015546111f1565b90506002548111151515610a2057600080fd5b610a3582600c54611a2c90919063ffffffff16565b600c81905550610a5082600854611a2c90919063ffffffff16565b600881905550610a8482601d6000866000191660001916815260200190815260200160002054611a2c90919063ffffffff16565b601d6000856000191660001916815260200190815260200160002081905550610ab8610ab2426015546111f1565b83611a48565b7f6503e5cb208c9eb0e8ca2033f7d81946e289591ddf76f1840285a818fc53834c83836040518083600019166000191681526020018281526020019250505060405180910390a1505050565b6000600754905090565b6000610b3b600954610b2d600854601154611b7790919063ffffffff16565b611a2c90919063ffffffff16565b905090565b6000600e54905090565b600080601760008460001916600019168152602001908152602001600020600001546017600085600019166000191681526020019081526020016000206001015491509150915091565b6000600854905090565b6000600c54905090565b610bb0611cd5565b601460009054906101000a900473ffffffffffffffffffffffffffffffffffffffff1673ffffffffffffffffffffffffffffffffffffffff163373ffffffffffffffffffffffffffffffffffffffff16141515610c0c57600080fd5b6000610c1a426015546111f1565b90506002548111151515610c2d57600080fd5b7f7072696d617279000000000000000000000000000000000000000000000000006000191684600019161480610c8a57507f7365636f6e646172790000000000000000000000000000000000000000000000600019168460001916145b1515610c9557600080fd5b6040805190810160405280856000191681526020018481525091508160176000876000191660001916815260200190815260200160002060008201518160000190600019169055602082015181600101559050507f7072696d617279000000000000000000000000000000000000000000000000006000191684600019161415610d5457610d2e83600d54611a2c90919063ffffffff16565b600d81905550610d4983600654611a2c90919063ffffffff16565b600681905550610d70565b610d6983600754611a2c90919063ffffffff16565b6007819055505b610d8583600854611a2c90919063ffffffff16565b600881905550610da0610d9a426015546111f1565b84611a48565b7fb29e228c87839a3b03ff3a76407893175b491704e345a9cd928910fe14d7e1748585856040518084600019166000191681526020018360001916600019168152602001828152602001935050505060405180910390a15050505050565b6000600f54905090565b6000601654905090565b610e1a611cf2565b601460009054906101000a900473ffffffffffffffffffffffffffffffffffffffff1673ffffffffffffffffffffffffffffffffffffffff163373ffffffffffffffffffffffffffffffffffffffff16141515610e7657600080fd5b6000610e84426015546111f1565b90506002548111151515610e9757600080fd5b7f7072696d617279000000000000000000000000000000000000000000000000006000191684600019161480610ef457507f7365636f6e646172790000000000000000000000000000000000000000000000600019168460001916145b1515610eff57600080fd5b6040805190810160405280856000191681526020018481525091508160196000876000191660001916815260200190815260200160002060008201518160000190600019169055602082015181600101559050507f7072696d617279000000000000000000000000000000000000000000000000006000191684600019161415610fa357610f9883600f54611a2c90919063ffffffff16565b600f81905550610fbf565b610fb883601054611a2c90919063ffffffff16565b6010819055505b610fd483601154611a2c90919063ffffffff16565b601181905550610fef610fe9426015546111f1565b84611b90565b7fc8fab35b680440839ba7bbc974c499efd7d651973272cd17448e15fa55de35748585856040518084600019166000191681526020018360001916600019168152602001828152602001935050505060405180910390a15050505050565b6000601c60008360001916600019168152602001908152602001600020549050919050565b6000600654905090565b601460009054906101000a900473ffffffffffffffffffffffffffffffffffffffff1673ffffffffffffffffffffffffffffffffffffffff163373ffffffffffffffffffffffffffffffffffffffff161415156110d857600080fd5b60006110e6426015546111f1565b905060025481111515156110f957600080fd5b61112782601e6000866000191660001916815260200190815260200160002054611a2c90919063ffffffff16565b601e600085600019166000191681526020019081526020016000208190555061115b82601254611a2c90919063ffffffff16565b60128190555061117682601154611a2c90919063ffffffff16565b60118190555061119161118b426015546111f1565b83611b90565b7f2793e2206609e50b58dd93f8e812dcd88db7e5e0495b86fe080f023c5ba4b1c983836040518083600019166000191681526020018281526020019250505060405180910390a1505050565b6000600d54905090565b6000600a54905090565b600061121a610e1061120c8486611b7790919063ffffffff16565b611cbf90919063ffffffff16565b905092915050565b601460009054906101000a900473ffffffffffffffffffffffffffffffffffffffff1673ffffffffffffffffffffffffffffffffffffffff163373ffffffffffffffffffffffffffffffffffffffff1614151561127e57600080fd5b600061128c426015546111f1565b9050600254811115151561129f57600080fd5b6112cd82601c6000866000191660001916815260200190815260200160002054611a2c90919063ffffffff16565b601c600085600019166000191681526020019081526020016000208190555061130182600854611a2c90919063ffffffff16565b60088190555061131c82600a54611a2c90919063ffffffff16565b600a81905550611337611331426015546111f1565b83611a48565b7fd1e30674dd0c730aa8167721ca3351e7e6337f0c70f92eea8d8fdfbc7a6cf0ae83836040518083600019166000191681526020018281526020019250505060405180910390a1505050565b600080601960008460001916600019168152602001908152602001600020600001546019600085600019166000191681526020019081526020016000206001015491509150915091565b60006113e6600854601154611b7790919063ffffffff16565b905090565b6000601b60008360001916600019168152602001908152602001600020549050919050565b601460009054906101000a900473ffffffffffffffffffffffffffffffffffffffff1673ffffffffffffffffffffffffffffffffffffffff163373ffffffffffffffffffffffffffffffffffffffff1614151561146c57600080fd5b600061147a426015546111f1565b9050600254811115151561148d57600080fd5b6114a282600954611a2c90919063ffffffff16565b6009819055506114bd82600854611a2c90919063ffffffff16565b6008819055506114d86114d2426015546111f1565b83611a48565b7f0ecf06ed8c5ea413d65d88ea94888479614bcae670ca18f172b80e9620c6f8e0826040518082815260200191505060405180910390a15050565b600060058281548110151561152457fe5b90600052602060002001549050919050565b6000600954905090565b600060048281548110151561155157fe5b90600052602060002001549050919050565b6000601460009054906101000a900473ffffffffffffffffffffffffffffffffffffffff16905090565b601460009054906101000a900473ffffffffffffffffffffffffffffffffffffffff1673ffffffffffffffffffffffffffffffffffffffff163373ffffffffffffffffffffffffffffffffffffffff161415156115e957600080fd5b60006115f7426015546111f1565b9050600254811115151561160a57600080fd5b61161f82600b54611a2c90919063ffffffff16565b600b8190555061163a82600854611a2c90919063ffffffff16565b60088190555061166e82601b6000866000191660001916815260200190815260200160002054611a2c90919063ffffffff16565b601b60008560001916600019168152602001908152602001600020819055506116a261169c426015546111f1565b83611a48565b7fdc9311ab266bd29034133b4862c3c6d78f6c5b71e0eb23b9de63f35578bef58683836040518083600019166000191681526020018281526020019250505060405180910390a1505050565b6000601a60008360001916600019168152602001908152602001600020549050919050565b6000601554905090565b6000601154905090565b6000601860008360001916600019168152602001908152602001600020549050919050565b601460009054906101000a900473ffffffffffffffffffffffffffffffffffffffff1673ffffffffffffffffffffffffffffffffffffffff163373ffffffffffffffffffffffffffffffffffffffff161415156117a857600080fd5b60006117b6426015546111f1565b905060025481111515156117c957600080fd5b6117f78260186000866000191660001916815260200190815260200160002054611a2c90919063ffffffff16565b6018600085600019166000191681526020019081526020016000208190555061182b82600e54611a2c90919063ffffffff16565b600e8190555061184682600854611a2c90919063ffffffff16565b60088190555061186161185b426015546111f1565b83611a48565b7f65c8568979d59ddf098d0543c659efff805400505edb3138dc0dada1a8542b3d83836040518083600019166000191681526020018281526020019250505060405180910390a1505050565b6000601054905090565b6000600b54905090565b6000601354905090565b601460009054906101000a900473ffffffffffffffffffffffffffffffffffffffff1673ffffffffffffffffffffffffffffffffffffffff163373ffffffffffffffffffffffffffffffffffffffff1614151561192757600080fd5b6000611935426015546111f1565b9050600254811115151561194857600080fd5b61197682601a6000866000191660001916815260200190815260200160002054611a2c90919063ffffffff16565b601a60008560001916600019168152602001908152602001600020819055506119aa82601354611a2c90919063ffffffff16565b6013819055506119c582601154611a2c90919063ffffffff16565b6011819055506119e06119da426015546111f1565b83611b90565b7f077f47910100cb5cbafec73408345e34ac95fc0967600ea4b7fc5f9db558922483836040518083600019166000191681526020018281526020019250505060405180910390a1505050565b60008183019050828110151515611a3f57fe5b80905092915050565b60005482111515611aa357611a808160056000815481101515611a6757fe5b9060005260206000200154611a2c90919063ffffffff16565b60056000815481101515611a9057fe5b9060005260206000200181905550611b73565b6000548210158015611ab757506001548211155b15611b0c57611ae98160056001815481101515611ad057fe5b9060005260206000200154611a2c90919063ffffffff16565b60056001815481101515611af957fe5b9060005260206000200181905550611b72565b6001548210158015611b2057506002548211155b15611b7157611b528160056002815481101515611b3957fe5b9060005260206000200154611a2c90919063ffffffff16565b60056002815481101515611b6257fe5b90600052602060002001819055505b5b5b5050565b6000828211151515611b8557fe5b818303905092915050565b60005482111515611beb57611bc88160046000815481101515611baf57fe5b9060005260206000200154611a2c90919063ffffffff16565b60046000815481101515611bd857fe5b9060005260206000200181905550611cbb565b6000548210158015611bff57506001548211155b15611c5457611c318160046001815481101515611c1857fe5b9060005260206000200154611a2c90919063ffffffff16565b60046001815481101515611c4157fe5b9060005260206000200181905550611cba565b6001548210158015611c6857506002548211155b15611cb957611c9a8160046002815481101515611c8157fe5b9060005260206000200154611a2c90919063ffffffff16565b60046002815481101515611caa57fe5b90600052602060002001819055505b5b5b5050565b60008183811515611ccc57fe5b04905092915050565b604080519081016040528060008019168152602001600081525090565b6040805190810160405280600080191681526020016000815250905600a165627a7a7230582034c49932946cc5b551e0c64c91e7e373091eabe619d7e801c0004fb9c95e04c90029",
  "source": "pragma solidity 0.4.24;\n\nimport \"contracts/interfaces/ITransparentDao.sol\";\nimport \"contracts/interfaces/IFloatMath.sol\";\nimport \"contracts/interfaces/IIncomeStatement.sol\";\n\nimport \"contracts/utils/DateTime.sol\";\nimport \"contracts/zeppelin/SafeMath.sol\";\n\ncontract IncomeStatement is IIncomeStatement {\n\n  using SafeMath for uint256;\n\n  //Structs\n\n  struct Income {\n\n    bytes32 _type;\n\n    uint256 howMuch;\n\n  }\n\n  struct Expense {\n\n    bytes32 _type;\n\n    uint256 howMuch;\n\n  }\n\n  //Constants\n\n  uint256 month = 712 hours;\n  uint256 twoMonths = 1424 hours;\n  uint256 quarter = 2136 hours;\n  uint256 year = 8544 hours;\n\n  //General\n\n  uint256[] monthlyRevenue;\n  uint256[] monthlyExpenses;\n\n  //Expenses\n\n  uint256 primaryExpenses;\n\n  uint256 secondaryExpenses;\n\n  uint256 totalExpenses;\n\n  uint256 incomeTaxExpense;\n\n  uint256 RDExpense;\n\n  uint256 donations;\n\n  uint256 interestExpense;\n\n  uint256 costOfRevenue;\n\n  uint256 losses;\n\n  //Earnings\n\n  uint256 operatingIncome;\n\n  uint256 nonOperatingIncome;\n\n  uint256 totalGrossIncome;\n\n  uint256 interestGained;\n\n  uint256 gains;\n\n  //Misscellaneous\n\n  address dao;\n\n  uint256 startTime;\n\n  uint256 endTime;\n\n  mapping(bytes32 => Expense) detailedExpenses;\n  mapping(bytes32 => uint256) detailedLosses;\n\n  mapping(bytes32 => Income) detailedIncome;\n  mapping(bytes32 => uint256) detailedGains;\n\n  mapping(bytes32 => uint256) detailedDonations;\n  mapping(bytes32 => uint256) detailedRD;\n\n  mapping(bytes32 => uint256) detailedInterestPaid;\n  mapping(bytes32 => uint256) detailedInterestReceived;\n\n  modifier onlyDAO {\n\n    require(msg.sender == dao);\n    _;\n\n  }\n\n  modifier inQuarter {\n\n    uint _hours = getHours(now, startTime);\n\n    require(_hours <= quarter);\n\n    _;\n\n  }\n\n  constructor(address _dao) {\n\n    dao = _dao;\n\n    startTime = now;\n\n    endTime = startTime.add(quarter);\n\n  }\n\n  function addIncome(bytes32 description, bytes32 _type, uint256 howMuch) public onlyDAO inQuarter {\n\n    require(_type == bytes32(\"primary\") ||\n            _type == bytes32(\"secondary\"));\n\n    Income memory newItem = Income(_type, howMuch);\n\n    detailedIncome[description] = newItem;\n\n    if (_type == bytes32(\"primary\"))\n      operatingIncome = operatingIncome.add(howMuch);\n\n    else\n      nonOperatingIncome = nonOperatingIncome.add(howMuch);\n\n    totalGrossIncome = totalGrossIncome.add(howMuch);\n\n    addToMonthlyIncome(getHours(now, startTime), howMuch);\n\n    emit AddedIncome(description, _type, howMuch);\n\n  }\n\n  function addExpense(bytes32 description, bytes32 _type, uint256 howMuch) public onlyDAO inQuarter {\n\n    require(_type == bytes32(\"primary\") ||\n            _type == bytes32(\"secondary\"));\n\n    Expense memory newExpense = Expense(_type, howMuch);\n\n    detailedExpenses[description] = newExpense;\n\n    if (_type == bytes32(\"primary\")) {\n\n      costOfRevenue = costOfRevenue.add(howMuch);\n\n      primaryExpenses = primaryExpenses.add(howMuch);\n\n    }\n\n    else\n      secondaryExpenses = secondaryExpenses.add(howMuch);\n\n    totalExpenses = totalExpenses.add(howMuch);\n\n    addToMonthlyExpenses(getHours(now, startTime), howMuch);\n\n    emit AddedExpense(description, _type, howMuch);\n\n  }\n\n  function addLoss(bytes32 description, uint256 howMuch) public onlyDAO inQuarter {\n\n    detailedLosses[description] = detailedLosses[description].add(howMuch);\n\n    losses = losses.add(howMuch);\n\n    totalExpenses = totalExpenses.add(howMuch);\n\n    addToMonthlyExpenses(getHours(now, startTime), howMuch);\n\n    emit AddedLoss(description, howMuch);\n\n  }\n\n  function addGain(bytes32 description, uint256 howMuch) public onlyDAO inQuarter {\n\n    detailedGains[description] = detailedGains[description].add(howMuch);\n\n    gains = gains.add(howMuch);\n\n    totalGrossIncome = totalGrossIncome.add(howMuch);\n\n    addToMonthlyIncome(getHours(now, startTime), howMuch);\n\n    emit AddedGain(description, howMuch);\n\n  }\n\n  function reportTax(uint256 tax) public onlyDAO inQuarter {\n\n    incomeTaxExpense = incomeTaxExpense.add(tax);\n\n    totalExpenses = totalExpenses.add(tax);\n\n    addToMonthlyExpenses( getHours(now, startTime), tax );\n\n    emit ReportedTax(tax);\n\n  }\n\n  function reportRD(bytes32 description, uint256 rdExpense) public onlyDAO inQuarter {\n\n    detailedRD[description] = detailedRD[description].add(rdExpense);\n\n    totalExpenses = totalExpenses.add(rdExpense);\n\n    RDExpense = RDExpense.add(rdExpense);\n\n    addToMonthlyExpenses(getHours(now, startTime), rdExpense);\n\n    emit ReportedRD(description, rdExpense);\n\n  }\n\n  function reportDonation(bytes32 description, uint256 donation) public onlyDAO inQuarter {\n\n    donations = donations.add(donation);\n\n    totalExpenses = totalExpenses.add(donation);\n\n    detailedDonations[description] = detailedDonations[description].add(donation);\n\n    addToMonthlyExpenses(getHours(now, startTime), donation);\n\n    emit ReportedDonation(description, donation);\n\n  }\n\n  function reportInterestExpense(bytes32 description, uint256 howMuch) public onlyDAO inQuarter {\n\n    interestExpense = interestExpense.add(howMuch);\n\n    totalExpenses = totalExpenses.add(howMuch);\n\n    detailedInterestPaid[description] = detailedInterestPaid[description].add(howMuch);\n\n    addToMonthlyExpenses(getHours(now, startTime), howMuch);\n\n    emit ReportedInterestExpense(description, howMuch);\n\n  }\n\n  function reportInterestGained(bytes32 description, uint256 howMuch) public onlyDAO inQuarter {\n\n    detailedInterestReceived[description] = detailedInterestReceived[description].add(howMuch);\n\n    interestGained = interestGained.add(howMuch);\n\n    totalGrossIncome = totalGrossIncome.add(howMuch);\n\n    addToMonthlyIncome(getHours(now, startTime), howMuch);\n\n    emit ReportedInterestGained(description, howMuch);\n\n  }\n\n  //PRIVATE\n\n  function addToMonthlyIncome(uint256 _hours, uint256 howMuch) private {\n\n    if (_hours <= month)\n      monthlyRevenue[0] = monthlyRevenue[0].add(howMuch);\n\n    else if (_hours >= month && _hours <= twoMonths)\n      monthlyRevenue[1] = monthlyRevenue[1].add(howMuch);\n\n    else if (_hours >= twoMonths && _hours <= quarter)\n      monthlyRevenue[2] = monthlyRevenue[2].add(howMuch);\n\n  }\n\n  function addToMonthlyExpenses(uint256 _hours, uint256 howMuch) private {\n\n    if (_hours <= month)\n      monthlyExpenses[0] = monthlyExpenses[0].add(howMuch);\n\n    else if (_hours >= month && _hours <= twoMonths)\n      monthlyExpenses[1] = monthlyExpenses[1].add(howMuch);\n\n    else if (_hours >= twoMonths && _hours <= quarter)\n      monthlyExpenses[2] = monthlyExpenses[2].add(howMuch);\n\n  }\n\n  //GETTERS\n\n  function getHours(uint256 endTime, uint256 startTime) public view returns (uint256) {\n\n    return (endTime.sub(startTime)).div(3600);\n\n  }\n\n  function getMonthlyRevenue(uint256 position) public view returns (uint256) {\n\n    return monthlyRevenue[position];\n\n  }\n\n  function getMonthlyExpenses(uint256 position) public view returns (uint256) {\n\n    return monthlyExpenses[position];\n\n  }\n\n  function getDetailedExpense(bytes32 expense) public view returns (bytes32, uint256) {\n\n    return (detailedExpenses[expense]._type, detailedExpenses[expense].howMuch);\n\n  }\n\n  function getDetailedIncome(bytes32 income) public view returns (bytes32, uint256) {\n\n    return (detailedIncome[income]._type, detailedIncome[income].howMuch);\n\n  }\n\n  function getDetailedLoss(bytes32 loss) public view returns (uint256) {\n\n    return detailedLosses[loss];\n\n  }\n\n  function getDetailedGain(bytes32 gain) public view returns (uint256) {\n\n    return detailedGains[gain];\n\n  }\n\n  function getDetailedDonation(bytes32 donation) public view returns (uint256) {\n\n    return detailedDonations[donation];\n\n  }\n\n  function getDetailedRD(bytes32 rd) public view returns (uint256) {\n\n    return detailedRD[rd];\n\n  }\n\n  function getPrimaryExpenses() public view returns (uint256) {\n\n    return primaryExpenses;\n\n  }\n\n  function getSecondaryExpenses() public view returns (uint256) {\n\n    return secondaryExpenses;\n\n  }\n\n  function getTotalExpenses() public view returns (uint256) {\n\n    return totalExpenses;\n\n  }\n\n  function getIncomeTaxExpenses() public view returns (uint256) {\n\n    return incomeTaxExpense;\n\n  }\n\n  function getRDExpense() public view returns (uint256) {\n\n    return RDExpense;\n\n  }\n\n  function getDonations() public view returns (uint256) {\n\n    return donations;\n\n  }\n\n  function getCostOfRevenue() public view returns (uint256) {\n\n    return costOfRevenue;\n\n  }\n\n  function getInterestExpense() public view returns (uint256) {\n\n    return interestExpense;\n\n  }\n\n  function getLosses() public view returns (uint256) {\n\n    return losses;\n\n  }\n\n  function getOperatingIncome() public view returns (uint256) {\n\n    return operatingIncome;\n\n  }\n\n  function getNonOperatingIncome() public view returns (uint256) {\n\n    return nonOperatingIncome;\n\n  }\n\n  function getTotalGrossIncome() public view returns (uint256) {\n\n    return totalGrossIncome;\n\n  }\n\n  function getGains() public view returns (uint256) {\n\n    return gains;\n\n  }\n\n  function getNetIncomeBeforeTaxes() public view returns (uint256) {\n\n    return totalGrossIncome.sub(totalExpenses).add(incomeTaxExpense);\n\n  }\n\n  function getNetIncomeAfterTaxes() public view returns (uint256) {\n\n    return totalGrossIncome.sub(totalExpenses);\n\n  }\n\n  function getStartTime() public view returns (uint256) {\n\n    return startTime;\n\n  }\n\n  function getEndTime() public view returns (uint256) {\n\n    return endTime;\n\n  }\n\n  function getDao() public view returns (address) {\n\n    return dao;\n\n  }\n\n}\n",
  "sourcePath": "/home/stefan/Work/TransparentDao/contracts/accounting/statements/IncomeStatement.sol",
  "compiler": {
    "name": "solc",
    "version": "0.4.24+commit.e67f0147.Emscripten.clang"
  },
  "schemaVersion": "2.0.1",
  "updatedAt": "2018-12-15T22:13:43.150Z"
}