{
  "contractName": "TransparentDao",
  "abi": [
    {
      "constant": true,
      "inputs": [],
      "name": "hasInitialized",
      "outputs": [
        {
          "name": "",
          "type": "bool"
        }
      ],
      "payable": false,
      "stateMutability": "view",
      "type": "function"
    },
    {
      "constant": true,
      "inputs": [],
      "name": "START_REPORT",
      "outputs": [
        {
          "name": "",
          "type": "bytes32"
        }
      ],
      "payable": false,
      "stateMutability": "view",
      "type": "function"
    },
    {
      "constant": true,
      "inputs": [],
      "name": "ADD_TAX",
      "outputs": [
        {
          "name": "",
          "type": "bytes32"
        }
      ],
      "payable": false,
      "stateMutability": "view",
      "type": "function"
    },
    {
      "constant": true,
      "inputs": [
        {
          "name": "_script",
          "type": "bytes"
        }
      ],
      "name": "getEVMScriptExecutor",
      "outputs": [
        {
          "name": "",
          "type": "address"
        }
      ],
      "payable": false,
      "stateMutability": "view",
      "type": "function"
    },
    {
      "constant": true,
      "inputs": [],
      "name": "getRecoveryVault",
      "outputs": [
        {
          "name": "",
          "type": "address"
        }
      ],
      "payable": false,
      "stateMutability": "view",
      "type": "function"
    },
    {
      "constant": false,
      "inputs": [
        {
          "name": "_addr",
          "type": "address"
        },
        {
          "name": "method",
          "type": "string"
        },
        {
          "name": "_str",
          "type": "string"
        },
        {
          "name": "nr",
          "type": "uint256"
        }
      ],
      "name": "callStringUint256",
      "outputs": [],
      "payable": false,
      "stateMutability": "nonpayable",
      "type": "function"
    },
    {
      "constant": false,
      "inputs": [
        {
          "name": "_addr",
          "type": "address"
        },
        {
          "name": "method",
          "type": "string"
        },
        {
          "name": "someStr1",
          "type": "string"
        },
        {
          "name": "someString2",
          "type": "string"
        },
        {
          "name": "someNr",
          "type": "uint256"
        }
      ],
      "name": "callStringStringUint256",
      "outputs": [],
      "payable": false,
      "stateMutability": "nonpayable",
      "type": "function"
    },
    {
      "constant": false,
      "inputs": [
        {
          "name": "_addr",
          "type": "address"
        },
        {
          "name": "method",
          "type": "string"
        },
        {
          "name": "someAddr",
          "type": "address"
        }
      ],
      "name": "callAddress",
      "outputs": [],
      "payable": false,
      "stateMutability": "nonpayable",
      "type": "function"
    },
    {
      "constant": true,
      "inputs": [],
      "name": "NEW_BOND",
      "outputs": [
        {
          "name": "",
          "type": "bytes32"
        }
      ],
      "payable": false,
      "stateMutability": "view",
      "type": "function"
    },
    {
      "constant": false,
      "inputs": [
        {
          "name": "_addr",
          "type": "address"
        },
        {
          "name": "method",
          "type": "string"
        },
        {
          "name": "someStr",
          "type": "string"
        }
      ],
      "name": "callString",
      "outputs": [],
      "payable": false,
      "stateMutability": "nonpayable",
      "type": "function"
    },
    {
      "constant": true,
      "inputs": [
        {
          "name": "token",
          "type": "address"
        }
      ],
      "name": "allowRecoverability",
      "outputs": [
        {
          "name": "",
          "type": "bool"
        }
      ],
      "payable": false,
      "stateMutability": "view",
      "type": "function"
    },
    {
      "constant": true,
      "inputs": [],
      "name": "appId",
      "outputs": [
        {
          "name": "",
          "type": "bytes32"
        }
      ],
      "payable": false,
      "stateMutability": "view",
      "type": "function"
    },
    {
      "constant": true,
      "inputs": [],
      "name": "getInitializationBlock",
      "outputs": [
        {
          "name": "",
          "type": "uint256"
        }
      ],
      "payable": false,
      "stateMutability": "view",
      "type": "function"
    },
    {
      "constant": false,
      "inputs": [
        {
          "name": "_token",
          "type": "address"
        }
      ],
      "name": "transferToVault",
      "outputs": [],
      "payable": false,
      "stateMutability": "nonpayable",
      "type": "function"
    },
    {
      "constant": true,
      "inputs": [
        {
          "name": "_sender",
          "type": "address"
        },
        {
          "name": "_role",
          "type": "bytes32"
        },
        {
          "name": "_params",
          "type": "uint256[]"
        }
      ],
      "name": "canPerform",
      "outputs": [
        {
          "name": "",
          "type": "bool"
        }
      ],
      "payable": false,
      "stateMutability": "view",
      "type": "function"
    },
    {
      "constant": true,
      "inputs": [],
      "name": "getEVMScriptRegistry",
      "outputs": [
        {
          "name": "",
          "type": "address"
        }
      ],
      "payable": false,
      "stateMutability": "view",
      "type": "function"
    },
    {
      "constant": true,
      "inputs": [],
      "name": "DELETE_TAX",
      "outputs": [
        {
          "name": "",
          "type": "bytes32"
        }
      ],
      "payable": false,
      "stateMutability": "view",
      "type": "function"
    },
    {
      "constant": false,
      "inputs": [
        {
          "name": "_addr",
          "type": "address"
        },
        {
          "name": "method",
          "type": "string"
        },
        {
          "name": "someStr",
          "type": "string"
        },
        {
          "name": "someInt",
          "type": "int256"
        }
      ],
      "name": "callStringInt256",
      "outputs": [],
      "payable": false,
      "stateMutability": "nonpayable",
      "type": "function"
    },
    {
      "constant": true,
      "inputs": [],
      "name": "SET_COIN",
      "outputs": [
        {
          "name": "",
          "type": "bytes32"
        }
      ],
      "payable": false,
      "stateMutability": "view",
      "type": "function"
    },
    {
      "constant": false,
      "inputs": [
        {
          "name": "_addr",
          "type": "address"
        },
        {
          "name": "method",
          "type": "string"
        },
        {
          "name": "nr",
          "type": "int256"
        }
      ],
      "name": "callInt256",
      "outputs": [],
      "payable": false,
      "stateMutability": "nonpayable",
      "type": "function"
    },
    {
      "constant": false,
      "inputs": [
        {
          "name": "_addr",
          "type": "address"
        },
        {
          "name": "method",
          "type": "string"
        },
        {
          "name": "someAddr",
          "type": "address"
        },
        {
          "name": "nr",
          "type": "uint256"
        }
      ],
      "name": "callAddressUint256",
      "outputs": [],
      "payable": false,
      "stateMutability": "nonpayable",
      "type": "function"
    },
    {
      "constant": false,
      "inputs": [
        {
          "name": "_addr",
          "type": "address"
        },
        {
          "name": "method",
          "type": "string"
        },
        {
          "name": "nr",
          "type": "uint256"
        }
      ],
      "name": "callUint256",
      "outputs": [],
      "payable": false,
      "stateMutability": "nonpayable",
      "type": "function"
    },
    {
      "constant": true,
      "inputs": [],
      "name": "kernel",
      "outputs": [
        {
          "name": "",
          "type": "address"
        }
      ],
      "payable": false,
      "stateMutability": "view",
      "type": "function"
    },
    {
      "constant": true,
      "inputs": [],
      "name": "isPetrified",
      "outputs": [
        {
          "name": "",
          "type": "bool"
        }
      ],
      "payable": false,
      "stateMutability": "view",
      "type": "function"
    },
    {
      "constant": false,
      "inputs": [
        {
          "name": "_addr",
          "type": "address"
        },
        {
          "name": "method",
          "type": "string"
        },
        {
          "name": "someStr",
          "type": "string"
        },
        {
          "name": "someInt1",
          "type": "uint256"
        },
        {
          "name": "someInt2",
          "type": "uint256"
        }
      ],
      "name": "callStringUint256Uint256",
      "outputs": [],
      "payable": false,
      "stateMutability": "nonpayable",
      "type": "function"
    },
    {
      "constant": false,
      "inputs": [
        {
          "name": "_addr",
          "type": "address"
        },
        {
          "name": "method",
          "type": "string"
        },
        {
          "name": "_str",
          "type": "string"
        },
        {
          "name": "_someAddr",
          "type": "address"
        },
        {
          "name": "nr",
          "type": "uint256"
        }
      ],
      "name": "callStringAddressUint256",
      "outputs": [],
      "payable": false,
      "stateMutability": "nonpayable",
      "type": "function"
    },
    {
      "payable": true,
      "stateMutability": "payable",
      "type": "fallback"
    },
    {
      "anonymous": false,
      "inputs": [
        {
          "indexed": true,
          "name": "executor",
          "type": "address"
        },
        {
          "indexed": false,
          "name": "script",
          "type": "bytes"
        },
        {
          "indexed": false,
          "name": "input",
          "type": "bytes"
        },
        {
          "indexed": false,
          "name": "returnData",
          "type": "bytes"
        }
      ],
      "name": "ScriptResult",
      "type": "event"
    },
    {
      "anonymous": false,
      "inputs": [],
      "name": "ExecutedCall",
      "type": "event"
    },
    {
      "anonymous": false,
      "inputs": [
        {
          "indexed": false,
          "name": "_issuer",
          "type": "address"
        }
      ],
      "name": "ChangedIssuer",
      "type": "event"
    },
    {
      "anonymous": false,
      "inputs": [
        {
          "indexed": false,
          "name": "_bond",
          "type": "address"
        }
      ],
      "name": "NewBond",
      "type": "event"
    },
    {
      "anonymous": false,
      "inputs": [
        {
          "indexed": false,
          "name": "_math",
          "type": "address"
        }
      ],
      "name": "ChangedFloatMath",
      "type": "event"
    },
    {
      "anonymous": false,
      "inputs": [
        {
          "indexed": false,
          "name": "_coin",
          "type": "address"
        }
      ],
      "name": "SetDaoCoin",
      "type": "event"
    },
    {
      "anonymous": false,
      "inputs": [
        {
          "indexed": false,
          "name": "percentage",
          "type": "uint256"
        },
        {
          "indexed": false,
          "name": "threshold",
          "type": "uint256"
        }
      ],
      "name": "AddedTax",
      "type": "event"
    },
    {
      "anonymous": false,
      "inputs": [
        {
          "indexed": false,
          "name": "position",
          "type": "uint256"
        }
      ],
      "name": "DeletedTax",
      "type": "event"
    },
    {
      "anonymous": false,
      "inputs": [
        {
          "indexed": false,
          "name": "income",
          "type": "address"
        },
        {
          "indexed": false,
          "name": "balance",
          "type": "address"
        },
        {
          "indexed": false,
          "name": "cashflow",
          "type": "address"
        }
      ],
      "name": "StartedReport",
      "type": "event"
    },
    {
      "constant": false,
      "inputs": [
        {
          "name": "_unitOfAccount",
          "type": "address"
        },
        {
          "name": "_daoCoin",
          "type": "address"
        }
      ],
      "name": "initialize",
      "outputs": [],
      "payable": false,
      "stateMutability": "nonpayable",
      "type": "function"
    },
    {
      "constant": false,
      "inputs": [
        {
          "name": "_coin",
          "type": "address"
        }
      ],
      "name": "setDaoCoin",
      "outputs": [],
      "payable": false,
      "stateMutability": "nonpayable",
      "type": "function"
    },
    {
      "constant": false,
      "inputs": [
        {
          "name": "percentage",
          "type": "uint256"
        },
        {
          "name": "threshold",
          "type": "uint256"
        }
      ],
      "name": "addTax",
      "outputs": [],
      "payable": false,
      "stateMutability": "nonpayable",
      "type": "function"
    },
    {
      "constant": false,
      "inputs": [
        {
          "name": "position",
          "type": "uint256"
        }
      ],
      "name": "deleteTax",
      "outputs": [],
      "payable": false,
      "stateMutability": "nonpayable",
      "type": "function"
    },
    {
      "constant": false,
      "inputs": [
        {
          "name": "_bond",
          "type": "address"
        }
      ],
      "name": "newBond",
      "outputs": [],
      "payable": false,
      "stateMutability": "nonpayable",
      "type": "function"
    },
    {
      "constant": false,
      "inputs": [
        {
          "name": "_income",
          "type": "address"
        },
        {
          "name": "_balance",
          "type": "address"
        },
        {
          "name": "_cashflow",
          "type": "address"
        }
      ],
      "name": "startReport",
      "outputs": [],
      "payable": false,
      "stateMutability": "nonpayable",
      "type": "function"
    },
    {
      "constant": false,
      "inputs": [],
      "name": "donate",
      "outputs": [],
      "payable": true,
      "stateMutability": "payable",
      "type": "function"
    },
    {
      "constant": true,
      "inputs": [],
      "name": "getUOAAddress",
      "outputs": [
        {
          "name": "",
          "type": "address"
        }
      ],
      "payable": false,
      "stateMutability": "view",
      "type": "function"
    },
    {
      "constant": true,
      "inputs": [
        {
          "name": "startPosition",
          "type": "uint256"
        },
        {
          "name": "bondsNumber",
          "type": "uint256"
        }
      ],
      "name": "getBondDebt",
      "outputs": [
        {
          "name": "",
          "type": "uint256"
        }
      ],
      "payable": false,
      "stateMutability": "view",
      "type": "function"
    },
    {
      "constant": true,
      "inputs": [
        {
          "name": "position",
          "type": "uint256"
        }
      ],
      "name": "getBondAddress",
      "outputs": [
        {
          "name": "",
          "type": "address"
        }
      ],
      "payable": false,
      "stateMutability": "view",
      "type": "function"
    },
    {
      "constant": true,
      "inputs": [],
      "name": "getMarketPrice",
      "outputs": [
        {
          "name": "",
          "type": "int256"
        }
      ],
      "payable": false,
      "stateMutability": "view",
      "type": "function"
    },
    {
      "constant": true,
      "inputs": [],
      "name": "getReportsLength",
      "outputs": [
        {
          "name": "",
          "type": "uint256"
        }
      ],
      "payable": false,
      "stateMutability": "view",
      "type": "function"
    },
    {
      "constant": true,
      "inputs": [
        {
          "name": "position",
          "type": "uint256"
        }
      ],
      "name": "getReportAtPosition",
      "outputs": [
        {
          "name": "",
          "type": "address"
        },
        {
          "name": "",
          "type": "address"
        },
        {
          "name": "",
          "type": "address"
        }
      ],
      "payable": false,
      "stateMutability": "view",
      "type": "function"
    },
    {
      "constant": true,
      "inputs": [],
      "name": "getCoinAddress",
      "outputs": [
        {
          "name": "",
          "type": "address"
        }
      ],
      "payable": false,
      "stateMutability": "view",
      "type": "function"
    },
    {
      "constant": true,
      "inputs": [],
      "name": "getCoinsAmount",
      "outputs": [
        {
          "name": "",
          "type": "uint256"
        }
      ],
      "payable": false,
      "stateMutability": "view",
      "type": "function"
    },
    {
      "constant": true,
      "inputs": [],
      "name": "getLatestTax",
      "outputs": [
        {
          "name": "",
          "type": "uint256[]"
        }
      ],
      "payable": false,
      "stateMutability": "view",
      "type": "function"
    },
    {
      "constant": true,
      "inputs": [],
      "name": "getIncomeThresholds",
      "outputs": [
        {
          "name": "",
          "type": "uint256[]"
        }
      ],
      "payable": false,
      "stateMutability": "view",
      "type": "function"
    },
    {
      "constant": true,
      "inputs": [],
      "name": "getRoles",
      "outputs": [
        {
          "name": "",
          "type": "bytes32"
        },
        {
          "name": "",
          "type": "bytes32"
        },
        {
          "name": "",
          "type": "bytes32"
        },
        {
          "name": "",
          "type": "bytes32"
        },
        {
          "name": "",
          "type": "bytes32"
        }
      ],
      "payable": false,
      "stateMutability": "view",
      "type": "function"
    },
    {
      "constant": true,
      "inputs": [],
      "name": "getTaxType",
      "outputs": [
        {
          "name": "",
          "type": "uint256"
        }
      ],
      "payable": false,
      "stateMutability": "view",
      "type": "function"
    }
  ],
  "bytecode": "0x60806040527fffffffffffffffffffffffffffffffffffffffffffffffffffffffffffffffff600055627555806001556301d556006002556040805190810160405280600981526020017f555320444f4c4c4152000000000000000000000000000000000000000000000081525060039080519060200190620000849291906200038a565b506200009e620000a4640100000000026401000000009004565b62000439565b6000620000bf620001df640100000000026401000000009004565b146040805190810160405280601881526020017f494e49545f414c52454144595f494e495449414c495a45440000000000000000815250901515620001a2576040517f08c379a00000000000000000000000000000000000000000000000000000000081526004018080602001828103825283818151815260200191508051906020019080838360005b838110156200016657808201518184015260208101905062000149565b50505050905090810190601f168015620001945780820380516001836020036101000a031916815260200191505b509250505060405180910390fd5b50620001dd7fffffffffffffffffffffffffffffffffffffffffffffffffffffffffffffffff6200022c640100000000026401000000009004565b565b6000620002277febb05b386a8d34882b8711d156f463690983dc47815980fb82aeeff1aa43579e60010260001916620003786401000000000262004c2c176401000000009004565b905090565b600062000247620001df640100000000026401000000009004565b146040805190810160405280601881526020017f494e49545f414c52454144595f494e495449414c495a454400000000000000008152509015156200032a576040517f08c379a00000000000000000000000000000000000000000000000000000000081526004018080602001828103825283818151815260200191508051906020019080838360005b83811015620002ee578082015181840152602081019050620002d1565b50505050905090810190601f1680156200031c5780820380516001836020036101000a031916815260200191505b509250505060405180910390fd5b5062000375817febb05b386a8d34882b8711d156f463690983dc47815980fb82aeeff1aa43579e60010260001916620003836401000000000262004c42179091906401000000009004565b50565b600081549050919050565b8082555050565b828054600181600116156101000203166002900490600052602060002090601f016020900481019282601f10620003cd57805160ff1916838001178555620003fe565b82800160010185558215620003fe579182015b82811115620003fd578251825591602001919060010190620003e0565b5b5090506200040d919062000411565b5090565b6200043691905b808211156200043257600081600090555060010162000418565b5090565b90565b614d2a80620004496000396000f300608060405260043610610225576000357c0100000000000000000000000000000000000000000000000000000000900463ffffffff168063011eb8b01461022a57806304d0a5f0146102755780630803fac0146102a257806316967df6146102d15780632757623e1461030457806327ff6b98146103375780632914b9bd1461038e57806332f0a3b514610437578063362b43781461048e57806339558413146104fb5780633f86249a146105d457806340043068146106f3578063485cc9551461074a578063486ead7c146107ad5780634a18e54814610856578063548ce2bc14610889578063660e16c3146108b457806371061398146108df578063716030b21461094e5780637e7db6e114610a1d57806380afdea814610a78578063885c6cf714610aab5780638b3dd74914610b175780639412cc7a14610b425780639ac747e714610b6d5780639d4941d814610bd95780639d59bcbd14610c1c578063a1658fad14610c47578063a479e50814610cf3578063a60f5ca114610d4a578063aa8612b414610d7d578063abcd895814610e56578063af681ad814610e99578063bd16a21014610ecc578063c8adcc8614610f5f578063caa711cb14611012578063cd09bd95146110a5578063cf23940a14611178578063d4aae0c4146111fb578063de4796ed14611252578063ec3edeee14611281578063ed88c68e146112c4578063f586e1b3146112ce578063f6c12a8b14611305578063f8de137e146113e8575b600080fd5b34801561023657600080fd5b5061025f60048036038101908080359060200190929190803590602001909291905050506114e1565b6040518082815260200191505060405180910390f35b34801561028157600080fd5b506102a06004803603810190808035906020019092919050505061164d565b005b3480156102ae57600080fd5b506102b7611949565b604051808215151515815260200191505060405180910390f35b3480156102dd57600080fd5b506102e6611974565b60405180826000191660001916815260200191505060405180910390f35b34801561031057600080fd5b506103196119ad565b60405180826000191660001916815260200191505060405180910390f35b34801561034357600080fd5b5061034c6119e6565b604051808273ffffffffffffffffffffffffffffffffffffffff1673ffffffffffffffffffffffffffffffffffffffff16815260200191505060405180910390f35b34801561039a57600080fd5b506103f5600480360381019080803590602001908201803590602001908080601f0160208091040260200160405190810160405280939291908181526020018383808284378201915050505050509192919290505050611a10565b604051808273ffffffffffffffffffffffffffffffffffffffff1673ffffffffffffffffffffffffffffffffffffffff16815260200191505060405180910390f35b34801561044357600080fd5b5061044c611b2f565b604051808273ffffffffffffffffffffffffffffffffffffffff1673ffffffffffffffffffffffffffffffffffffffff16815260200191505060405180910390f35b34801561049a57600080fd5b506104b960048036038101908080359060200190929190505050611bdc565b604051808273ffffffffffffffffffffffffffffffffffffffff1673ffffffffffffffffffffffffffffffffffffffff16815260200191505060405180910390f35b34801561050757600080fd5b506105d2600480360381019080803573ffffffffffffffffffffffffffffffffffffffff169060200190929190803590602001908201803590602001908080601f0160208091040260200160405190810160405280939291908181526020018383808284378201915050505050509192919290803590602001908201803590602001908080601f016020809104026020016040519081016040528093929190818152602001838380828437820191505050505050919291929080359060200190929190505050611c1f565b005b3480156105e057600080fd5b506106f1600480360381019080803573ffffffffffffffffffffffffffffffffffffffff169060200190929190803590602001908201803590602001908080601f0160208091040260200160405190810160405280939291908181526020018383808284378201915050505050509192919290803590602001908201803590602001908080601f0160208091040260200160405190810160405280939291908181526020018383808284378201915050505050509192919290803590602001908201803590602001908080601f016020809104026020016040519081016040528093929190818152602001838380828437820191505050505050919291929080359060200190929190505050611d90565b005b3480156106ff57600080fd5b50610708611f5b565b604051808273ffffffffffffffffffffffffffffffffffffffff1673ffffffffffffffffffffffffffffffffffffffff16815260200191505060405180910390f35b34801561075657600080fd5b506107ab600480360381019080803573ffffffffffffffffffffffffffffffffffffffff169060200190929190803573ffffffffffffffffffffffffffffffffffffffff169060200190929190505050611f85565b005b3480156107b957600080fd5b50610854600480360381019080803573ffffffffffffffffffffffffffffffffffffffff169060200190929190803590602001908201803590602001908080601f0160208091040260200160405190810160405280939291908181526020018383808284378201915050505050509192919290803573ffffffffffffffffffffffffffffffffffffffff1690602001909291905050506121a8565b005b34801561086257600080fd5b5061086b6122eb565b60405180826000191660001916815260200191505060405180910390f35b34801561089557600080fd5b5061089e612324565b6040518082815260200191505060405180910390f35b3480156108c057600080fd5b506108c96124bf565b6040518082815260200191505060405180910390f35b3480156108eb57600080fd5b506108f46124c8565b60405180866000191660001916815260200185600019166000191681526020018460001916600019168152602001836000191660001916815260200182600019166000191681526020019550505050505060405180910390f35b34801561095a57600080fd5b50610a1b600480360381019080803573ffffffffffffffffffffffffffffffffffffffff169060200190929190803590602001908201803590602001908080601f0160208091040260200160405190810160405280939291908181526020018383808284378201915050505050509192919290803590602001908201803590602001908080601f01602080910402602001604051908101604052809392919081815260200183838082843782019150505050505091929192905050506125ef565b005b348015610a2957600080fd5b50610a5e600480360381019080803573ffffffffffffffffffffffffffffffffffffffff169060200190929190505050612757565b604051808215151515815260200191505060405180910390f35b348015610a8457600080fd5b50610a8d612762565b60405180826000191660001916815260200191505060405180910390f35b348015610ab757600080fd5b50610ac0612799565b6040518080602001828103825283818151815260200191508051906020019060200280838360005b83811015610b03578082015181840152602081019050610ae8565b505050509050019250505060405180910390f35b348015610b2357600080fd5b50610b2c6127f1565b6040518082815260200191505060405180910390f35b348015610b4e57600080fd5b50610b57612828565b6040518082815260200191505060405180910390f35b348015610b7957600080fd5b50610b82612835565b6040518080602001828103825283818151815260200191508051906020019060200280838360005b83811015610bc5578082015181840152602081019050610baa565b505050509050019250505060405180910390f35b348015610be557600080fd5b50610c1a600480360381019080803573ffffffffffffffffffffffffffffffffffffffff16906020019092919050505061288d565b005b348015610c2857600080fd5b50610c31612cbf565b6040518082815260200191505060405180910390f35b348015610c5357600080fd5b50610cd9600480360381019080803573ffffffffffffffffffffffffffffffffffffffff169060200190929190803560001916906020019092919080359060200190820180359060200190808060200260200160405190810160405280939291908181526020018383602002808284378201915050505050509192919290505050612d17565b604051808215151515815260200191505060405180910390f35b348015610cff57600080fd5b50610d08612f1e565b604051808273ffffffffffffffffffffffffffffffffffffffff1673ffffffffffffffffffffffffffffffffffffffff16815260200191505060405180910390f35b348015610d5657600080fd5b50610d5f613039565b60405180826000191660001916815260200191505060405180910390f35b348015610d8957600080fd5b50610e54600480360381019080803573ffffffffffffffffffffffffffffffffffffffff169060200190929190803590602001908201803590602001908080601f0160208091040260200160405190810160405280939291908181526020018383808284378201915050505050509192919290803590602001908201803590602001908080601f016020809104026020016040519081016040528093929190818152602001838380828437820191505050505050919291929080359060200190929190505050613072565b005b348015610e6257600080fd5b50610e97600480360381019080803573ffffffffffffffffffffffffffffffffffffffff1690602001909291905050506131e3565b005b348015610ea557600080fd5b50610eae6134ce565b60405180826000191660001916815260200191505060405180910390f35b348015610ed857600080fd5b50610f5d600480360381019080803573ffffffffffffffffffffffffffffffffffffffff169060200190929190803590602001908201803590602001908080601f016020809104026020016040519081016040528093929190818152602001838380828437820191505050505050919291929080359060200190929190505050613507565b005b348015610f6b57600080fd5b50611010600480360381019080803573ffffffffffffffffffffffffffffffffffffffff169060200190929190803590602001908201803590602001908080601f0160208091040260200160405190810160405280939291908181526020018383808284378201915050505050509192919290803573ffffffffffffffffffffffffffffffffffffffff1690602001909291908035906020019092919050505061361e565b005b34801561101e57600080fd5b506110a3600480360381019080803573ffffffffffffffffffffffffffffffffffffffff169060200190929190803590602001908201803590602001908080601f01602080910402602001604051908101604052809392919081815260200183838082843782019150505050505091929192908035906020019092919050505061376a565b005b3480156110b157600080fd5b506110d060048036038101908080359060200190929190505050613881565b604051808473ffffffffffffffffffffffffffffffffffffffff1673ffffffffffffffffffffffffffffffffffffffff1681526020018373ffffffffffffffffffffffffffffffffffffffff1673ffffffffffffffffffffffffffffffffffffffff1681526020018273ffffffffffffffffffffffffffffffffffffffff1673ffffffffffffffffffffffffffffffffffffffff168152602001935050505060405180910390f35b34801561118457600080fd5b506111f9600480360381019080803573ffffffffffffffffffffffffffffffffffffffff169060200190929190803573ffffffffffffffffffffffffffffffffffffffff169060200190929190803573ffffffffffffffffffffffffffffffffffffffff169060200190929190505050613956565b005b34801561120757600080fd5b506112106140ca565b604051808273ffffffffffffffffffffffffffffffffffffffff1673ffffffffffffffffffffffffffffffffffffffff16815260200191505060405180910390f35b34801561125e57600080fd5b50611267614101565b604051808215151515815260200191505060405180910390f35b34801561128d57600080fd5b506112c2600480360381019080803573ffffffffffffffffffffffffffffffffffffffff169060200190929190505050614132565b005b6112cc6143a2565b005b3480156112da57600080fd5b5061130360048036038101908080359060200190929190803590602001909291905050506143a4565b005b34801561131157600080fd5b506113e6600480360381019080803573ffffffffffffffffffffffffffffffffffffffff169060200190929190803590602001908201803590602001908080601f0160208091040260200160405190810160405280939291908181526020018383808284378201915050505050509192919290803590602001908201803590602001908080601f01602080910402602001604051908101604052809392919081815260200183838082843782019150505050505091929192908035906020019092919080359060200190929190505050614590565b005b3480156113f457600080fd5b506114df600480360381019080803573ffffffffffffffffffffffffffffffffffffffff169060200190929190803590602001908201803590602001908080601f0160208091040260200160405190810160405280939291908181526020018383808284378201915050505050509192919290803590602001908201803590602001908080601f0160208091040260200160405190810160405280939291908181526020018383808284378201915050505050509192919290803573ffffffffffffffffffffffffffffffffffffffff1690602001909291908035906020019092919050505061470a565b005b600080600080600b80549050861015156114fa57600080fd5b600b8054905061151386886148b090919063ffffffff16565b10151561151f57600080fd5b60009250600091508590505b600b8181548110151561153a57fe5b9060005260206000200160009054906101000a900473ffffffffffffffffffffffffffffffffffffffff1673ffffffffffffffffffffffffffffffffffffffff166334ce998a6040518163ffffffff167c0100000000000000000000000000000000000000000000000000000000028152600401602060405180830381600087803b1580156115c857600080fd5b505af11580156115dc573d6000803e3d6000fd5b505050506040513d60208110156115f257600080fd5b8101908080519060200190929190505050915061161882846148b090919063ffffffff16565b9250808060010191505061163585876148b090919063ffffffff16565b8110156116415761152b565b82935050505092915050565b600060405180807f44454c4554455f54415800000000000000000000000000000000000000000000815250600a01905060405180910390206116c0338260006040519080825280602002602001820160405280156116ba5781602001602082028038833980820191505090505b50612d17565b6040805190810160405280600f81526020017f4150505f415554485f4641494c4544000000000000000000000000000000000081525090151561179e576040517f08c379a00000000000000000000000000000000000000000000000000000000081526004018080602001828103825283818151815260200191508051906020019080838360005b83811015611763578082015181840152602081019050611748565b50505050905090810190601f1680156117905780820380516001836020036101000a031916815260200191505b509250505060405180910390fd5b50600580549050831015156117b257600080fd5b8291505b6117cf60016005805490506149a590919063ffffffff16565b8210156118775760056117ec6001846148b090919063ffffffff16565b8154811015156117f857fe5b906000526020600020015460058381548110151561181257fe5b906000526020600020018190555060066118366001846148b090919063ffffffff16565b81548110151561184257fe5b906000526020600020015460068381548110151561185c57fe5b906000526020600020018190555081806001019250506117b6565b600561189260016005805490506149a590919063ffffffff16565b81548110151561189e57fe5b906000526020600020016000905560066118c760016006805490506149a590919063ffffffff16565b8154811015156118d357fe5b906000526020600020016000905560058054809190600190036118f69190614c49565b50600680548091906001900361190c9190614c49565b507f0b72ed9bc3245ee50f52040c7a5fad686b4ae577ced7bfd9e7533dbd430b4690836040518082815260200191505060405180910390a1505050565b6000806119546127f1565b90506000811415801561196e57508061196b614a9a565b10155b91505090565b60405180807f53544152545f5245504f52540000000000000000000000000000000000000000815250600c019050604051809103902081565b60405180807f4144445f544158000000000000000000000000000000000000000000000000008152506007019050604051809103902081565b6000600960009054906101000a900473ffffffffffffffffffffffffffffffffffffffff16905090565b6000611a1a612f1e565b73ffffffffffffffffffffffffffffffffffffffff166304bf2a7f836040518263ffffffff167c01000000000000000000000000000000000000000000000000000000000281526004018080602001828103825283818151815260200191508051906020019080838360005b83811015611aa1578082015181840152602081019050611a86565b50505050905090810190601f168015611ace5780820380516001836020036101000a031916815260200191505b5092505050602060405180830381600087803b158015611aed57600080fd5b505af1158015611b01573d6000803e3d6000fd5b505050506040513d6020811015611b1757600080fd5b81019080805190602001909291905050509050919050565b6000611b396140ca565b73ffffffffffffffffffffffffffffffffffffffff166332f0a3b56040518163ffffffff167c0100000000000000000000000000000000000000000000000000000000028152600401602060405180830381600087803b158015611b9c57600080fd5b505af1158015611bb0573d6000803e3d6000fd5b505050506040513d6020811015611bc657600080fd5b8101908080519060200190929190505050905090565b6000600b82815481101515611bed57fe5b9060005260206000200160009054906101000a900473ffffffffffffffffffffffffffffffffffffffff169050919050565b8373ffffffffffffffffffffffffffffffffffffffff16836040518082805190602001908083835b602083101515611c6c5780518252602082019150602081019050602083039250611c47565b6001836020036101000a03801982511681845116808217855250505050505090500191505060405180910390207c0100000000000000000000000000000000000000000000000000000000900483836040518363ffffffff167c010000000000000000000000000000000000000000000000000000000002815260040180838051906020019080838360005b83811015611d13578082015181840152602081019050611cf8565b50505050905090810190601f168015611d405780820380516001836020036101000a031916815260200191505b50828152602001925050506000604051808303816000875af192505050507f1bf73fecff59f53a28e0365d986d6f97d7beab37770653e65daf6ff838ec0ec460405160405180910390a150505050565b8473ffffffffffffffffffffffffffffffffffffffff16846040518082805190602001908083835b602083101515611ddd5780518252602082019150602081019050602083039250611db8565b6001836020036101000a03801982511681845116808217855250505050505090500191505060405180910390207c010000000000000000000000000000000000000000000000000000000090048484846040518463ffffffff167c010000000000000000000000000000000000000000000000000000000002815260040180848051906020019080838360005b83811015611e85578082015181840152602081019050611e6a565b50505050905090810190601f168015611eb25780820380516001836020036101000a031916815260200191505b50838051906020019080838360005b83811015611edc578082015181840152602081019050611ec1565b50505050905090810190601f168015611f095780820380516001836020036101000a031916815260200191505b5082815260200193505050506000604051808303816000875af192505050507f1bf73fecff59f53a28e0365d986d6f97d7beab37770653e65daf6ff838ec0ec460405160405180910390a15050505050565b6000600a60009054906101000a900473ffffffffffffffffffffffffffffffffffffffff16905090565b6000611f8f6127f1565b146040805190810160405280601881526020017f494e49545f414c52454144595f494e495449414c495a4544000000000000000081525090151561206e576040517f08c379a00000000000000000000000000000000000000000000000000000000081526004018080602001828103825283818151815260200191508051906020019080838360005b83811015612033578082015181840152602081019050612018565b50505050905090810190601f1680156120605780820380516001836020036101000a031916815260200191505b509250505060405180910390fd5b50600073ffffffffffffffffffffffffffffffffffffffff168273ffffffffffffffffffffffffffffffffffffffff1614806120b65750600115156120b283614aa2565b1515145b15156120c157600080fd5b600073ffffffffffffffffffffffffffffffffffffffff16600a60009054906101000a900473ffffffffffffffffffffffffffffffffffffffff1673ffffffffffffffffffffffffffffffffffffffff1614151561215b5780600a60006101000a81548173ffffffffffffffffffffffffffffffffffffffff021916908373ffffffffffffffffffffffffffffffffffffffff1602179055505b81600960006101000a81548173ffffffffffffffffffffffffffffffffffffffff021916908373ffffffffffffffffffffffffffffffffffffffff1602179055506121a4614af4565b5050565b8273ffffffffffffffffffffffffffffffffffffffff16826040518082805190602001908083835b6020831015156121f557805182526020820191506020810190506020830392506121d0565b6001836020036101000a03801982511681845116808217855250505050505090500191505060405180910390207c01000000000000000000000000000000000000000000000000000000009004826040518263ffffffff167c0100000000000000000000000000000000000000000000000000000000028152600401808273ffffffffffffffffffffffffffffffffffffffff1673ffffffffffffffffffffffffffffffffffffffff1681526020019150506000604051808303816000875af192505050507f1bf73fecff59f53a28e0365d986d6f97d7beab37770653e65daf6ff838ec0ec460405160405180910390a1505050565b60405180807f4e45575f424f4e440000000000000000000000000000000000000000000000008152506008019050604051809103902081565b600080600a60009054906101000a900473ffffffffffffffffffffffffffffffffffffffff1673ffffffffffffffffffffffffffffffffffffffff1663f0141d846040518163ffffffff167c0100000000000000000000000000000000000000000000000000000000028152600401602060405180830381600087803b1580156123ad57600080fd5b505af11580156123c1573d6000803e3d6000fd5b505050506040513d60208110156123d757600080fd5b8101908080519060200190929190505050905080600a0a600a60009054906101000a900473ffffffffffffffffffffffffffffffffffffffff1673ffffffffffffffffffffffffffffffffffffffff166318160ddd6040518163ffffffff167c0100000000000000000000000000000000000000000000000000000000028152600401602060405180830381600087803b15801561247457600080fd5b505af1158015612488573d6000803e3d6000fd5b505050506040513d602081101561249e57600080fd5b81019080805190602001909291905050508115156124b857fe5b0491505090565b60008054905090565b600080600080600060405180807f5345545f434f494e0000000000000000000000000000000000000000000000008152506008019050604051809103902060405180807f4144445f544158000000000000000000000000000000000000000000000000008152506007019050604051809103902060405180807f44454c4554455f54415800000000000000000000000000000000000000000000815250600a019050604051809103902060405180807f4e45575f424f4e440000000000000000000000000000000000000000000000008152506008019050604051809103902060405180807f53544152545f5245504f52540000000000000000000000000000000000000000815250600c0190506040518091039020945094509450945094509091929394565b8273ffffffffffffffffffffffffffffffffffffffff16826040518082805190602001908083835b60208310151561263c5780518252602082019150602081019050602083039250612617565b6001836020036101000a03801982511681845116808217855250505050505090500191505060405180910390207c01000000000000000000000000000000000000000000000000000000009004826040518263ffffffff167c010000000000000000000000000000000000000000000000000000000002815260040180828051906020019080838360005b838110156126e25780820151818401526020810190506126c7565b50505050905090810190601f16801561270f5780820380516001836020036101000a031916815260200191505b509150506000604051808303816000875af192505050507f1bf73fecff59f53a28e0365d986d6f97d7beab37770653e65daf6ff838ec0ec460405160405180910390a1505050565b600060019050919050565b60006127947fd625496217aa6a3453eecb9c3489dc5a53e6c67b444329ea2b2cbc9ff547639b60010260001916614c21565b905090565b606060058054806020026020016040519081016040528092919081815260200182805480156127e757602002820191906000526020600020905b8154815260200190600101908083116127d3575b5050505050905090565b60006128237febb05b386a8d34882b8711d156f463690983dc47815980fb82aeeff1aa43579e60010260001916614c2c565b905090565b6000600c80549050905090565b6060600680548060200260200160405190810160405280929190818152602001828054801561288357602002820191906000526020600020905b81548152602001906001019080831161286f575b5050505050905090565b60008061289983612757565b6040805190810160405280601281526020017f5245434f5645525f444953414c4c4f5745440000000000000000000000000000815250901515612977576040517f08c379a00000000000000000000000000000000000000000000000000000000081526004018080602001828103825283818151815260200191508051906020019080838360005b8381101561293c578082015181840152602081019050612921565b50505050905090810190601f1680156129695780820380516001836020036101000a031916815260200191505b509250505060405180910390fd5b50612980611b2f565b915061298b82614aa2565b6040805190810160405280601a81526020017f5245434f5645525f5641554c545f4e4f545f434f4e5452414354000000000000815250901515612a69576040517f08c379a00000000000000000000000000000000000000000000000000000000081526004018080602001828103825283818151815260200191508051906020019080838360005b83811015612a2e578082015181840152602081019050612a13565b50505050905090810190601f168015612a5b5780820380516001836020036101000a031916815260200191505b509250505060405180910390fd5b50600073ffffffffffffffffffffffffffffffffffffffff168373ffffffffffffffffffffffffffffffffffffffff161415612b02578173ffffffffffffffffffffffffffffffffffffffff166108fc3073ffffffffffffffffffffffffffffffffffffffff16319081150290604051600060405180830381858888f19350505050158015612afc573d6000803e3d6000fd5b50612cba565b8273ffffffffffffffffffffffffffffffffffffffff166370a08231306040518263ffffffff167c0100000000000000000000000000000000000000000000000000000000028152600401808273ffffffffffffffffffffffffffffffffffffffff1673ffffffffffffffffffffffffffffffffffffffff168152602001915050602060405180830381600087803b158015612b9d57600080fd5b505af1158015612bb1573d6000803e3d6000fd5b505050506040513d6020811015612bc757600080fd5b810190808051906020019092919050505090508273ffffffffffffffffffffffffffffffffffffffff1663a9059cbb83836040518363ffffffff167c0100000000000000000000000000000000000000000000000000000000028152600401808373ffffffffffffffffffffffffffffffffffffffff1673ffffffffffffffffffffffffffffffffffffffff16815260200182815260200192505050602060405180830381600087803b158015612c7d57600080fd5b505af1158015612c91573d6000803e3d6000fd5b505050506040513d6020811015612ca757600080fd5b8101908080519060200190929190505050505b505050565b600060016005805490501115612ce257600280811115612cdb57fe5b9050612d14565b60016005805490501415612d045760016002811115612cfd57fe5b9050612d14565b60006002811115612d1157fe5b90505b90565b60008060606000612d26611949565b1515612d355760009350612f14565b612d3d6140ca565b9250600073ffffffffffffffffffffffffffffffffffffffff168373ffffffffffffffffffffffffffffffffffffffff161415612d7d5760009350612f14565b602085510290508491508082528273ffffffffffffffffffffffffffffffffffffffff1663fdef9106883089866040518563ffffffff167c0100000000000000000000000000000000000000000000000000000000028152600401808573ffffffffffffffffffffffffffffffffffffffff1673ffffffffffffffffffffffffffffffffffffffff1681526020018473ffffffffffffffffffffffffffffffffffffffff1673ffffffffffffffffffffffffffffffffffffffff168152602001836000191660001916815260200180602001828103825283818151815260200191508051906020019080838360005b83811015612e87578082015181840152602081019050612e6c565b50505050905090810190601f168015612eb45780820380516001836020036101000a031916815260200191505b5095505050505050602060405180830381600087803b158015612ed657600080fd5b505af1158015612eea573d6000803e3d6000fd5b505050506040513d6020811015612f0057600080fd5b810190808051906020019092919050505093505b5050509392505050565b600080612f296140ca565b73ffffffffffffffffffffffffffffffffffffffff1663be00bbd87fd6f028ca0e8edb4a8c9757ca4fdccab25fa1e0317da1188108f7d2dee14902fb6001027fddbcfd564f642ab5627cf68b9b7d374fb4f8a36e941a75d89c87998cef03bd616001026040518363ffffffff167c0100000000000000000000000000000000000000000000000000000000028152600401808360001916600019168152602001826000191660001916815260200192505050602060405180830381600087803b158015612ff557600080fd5b505af1158015613009573d6000803e3d6000fd5b505050506040513d602081101561301f57600080fd5b810190808051906020019092919050505090508091505090565b60405180807f44454c4554455f54415800000000000000000000000000000000000000000000815250600a019050604051809103902081565b8373ffffffffffffffffffffffffffffffffffffffff16836040518082805190602001908083835b6020831015156130bf578051825260208201915060208101905060208303925061309a565b6001836020036101000a03801982511681845116808217855250505050505090500191505060405180910390207c0100000000000000000000000000000000000000000000000000000000900483836040518363ffffffff167c010000000000000000000000000000000000000000000000000000000002815260040180838051906020019080838360005b8381101561316657808201518184015260208101905061314b565b50505050905090810190601f1680156131935780820380516001836020036101000a031916815260200191505b50828152602001925050506000604051808303816000875af192505050507f1bf73fecff59f53a28e0365d986d6f97d7beab37770653e65daf6ff838ec0ec460405160405180910390a150505050565b600060405180807f4e45575f424f4e4400000000000000000000000000000000000000000000000081525060080190506040518091039020613256338260006040519080825280602002602001820160405280156132505781602001602082028038833980820191505090505b50612d17565b6040805190810160405280600f81526020017f4150505f415554485f4641494c45440000000000000000000000000000000000815250901515613334576040517f08c379a00000000000000000000000000000000000000000000000000000000081526004018080602001828103825283818151815260200191508051906020019080838360005b838110156132f95780820151818401526020810190506132de565b50505050905090810190601f1680156133265780820380516001836020036101000a031916815260200191505b509250505060405180910390fd5b506001151561334284614aa2565b151514151561335057600080fd5b82915060008273ffffffffffffffffffffffffffffffffffffffff1663d087d2886040518163ffffffff167c0100000000000000000000000000000000000000000000000000000000028152600401602060405180830381600087803b1580156133b957600080fd5b505af11580156133cd573d6000803e3d6000fd5b505050506040513d60208110156133e357600080fd5b810190808051906020019092919050505014151561340057600080fd5b600b8290806001815401808255809150509060018203906000526020600020016000909192909190916101000a81548173ffffffffffffffffffffffffffffffffffffffff021916908373ffffffffffffffffffffffffffffffffffffffff160217905550507fd6aad22b4323b201c0383e80b5dfc12d03d4b8846d6cf465d20f2e6e65099a9783604051808273ffffffffffffffffffffffffffffffffffffffff1673ffffffffffffffffffffffffffffffffffffffff16815260200191505060405180910390a1505050565b60405180807f5345545f434f494e0000000000000000000000000000000000000000000000008152506008019050604051809103902081565b8273ffffffffffffffffffffffffffffffffffffffff16826040518082805190602001908083835b602083101515613554578051825260208201915060208101905060208303925061352f565b6001836020036101000a03801982511681845116808217855250505050505090500191505060405180910390207c01000000000000000000000000000000000000000000000000000000009004826040518263ffffffff167c0100000000000000000000000000000000000000000000000000000000028152600401808281526020019150506000604051808303816000875af192505050507f1bf73fecff59f53a28e0365d986d6f97d7beab37770653e65daf6ff838ec0ec460405160405180910390a1505050565b8373ffffffffffffffffffffffffffffffffffffffff16836040518082805190602001908083835b60208310151561366b5780518252602082019150602081019050602083039250613646565b6001836020036101000a03801982511681845116808217855250505050505090500191505060405180910390207c0100000000000000000000000000000000000000000000000000000000900483836040518363ffffffff167c0100000000000000000000000000000000000000000000000000000000028152600401808373ffffffffffffffffffffffffffffffffffffffff1673ffffffffffffffffffffffffffffffffffffffff168152602001828152602001925050506000604051808303816000875af192505050507f1bf73fecff59f53a28e0365d986d6f97d7beab37770653e65daf6ff838ec0ec460405160405180910390a150505050565b8273ffffffffffffffffffffffffffffffffffffffff16826040518082805190602001908083835b6020831015156137b75780518252602082019150602081019050602083039250613792565b6001836020036101000a03801982511681845116808217855250505050505090500191505060405180910390207c01000000000000000000000000000000000000000000000000000000009004826040518263ffffffff167c0100000000000000000000000000000000000000000000000000000000028152600401808281526020019150506000604051808303816000875af192505050507f1bf73fecff59f53a28e0365d986d6f97d7beab37770653e65daf6ff838ec0ec460405160405180910390a1505050565b6000806000600c8481548110151561389557fe5b906000526020600020906003020160000160009054906101000a900473ffffffffffffffffffffffffffffffffffffffff16600c858154811015156138d657fe5b906000526020600020906003020160010160009054906101000a900473ffffffffffffffffffffffffffffffffffffffff16600c8681548110151561391757fe5b906000526020600020906003020160020160009054906101000a900473ffffffffffffffffffffffffffffffffffffffff169250925092509193909250565b6000806000613963614c75565b60405180807f53544152545f5245504f52540000000000000000000000000000000000000000815250600c01905060405180910390206139d4338260006040519080825280602002602001820160405280156139ce5781602001602082028038833980820191505090505b50612d17565b6040805190810160405280600f81526020017f4150505f415554485f4641494c45440000000000000000000000000000000000815250901515613ab2576040517f08c379a00000000000000000000000000000000000000000000000000000000081526004018080602001828103825283818151815260200191508051906020019080838360005b83811015613a77578082015181840152602081019050613a5c565b50505050905090810190601f168015613aa45780820380516001836020036101000a031916815260200191505b509250505060405180910390fd5b5060006008541480613aca5750600154600854420310155b1515613ad557600080fd5b8794508693508592503073ffffffffffffffffffffffffffffffffffffffff168573ffffffffffffffffffffffffffffffffffffffff1663b70811bc6040518163ffffffff167c0100000000000000000000000000000000000000000000000000000000028152600401602060405180830381600087803b158015613b5957600080fd5b505af1158015613b6d573d6000803e3d6000fd5b505050506040513d6020811015613b8357600080fd5b810190808051906020019092919050505073ffffffffffffffffffffffffffffffffffffffff16141515613bb657600080fd5b3073ffffffffffffffffffffffffffffffffffffffff168473ffffffffffffffffffffffffffffffffffffffff1663b70811bc6040518163ffffffff167c0100000000000000000000000000000000000000000000000000000000028152600401602060405180830381600087803b158015613c3157600080fd5b505af1158015613c45573d6000803e3d6000fd5b505050506040513d6020811015613c5b57600080fd5b810190808051906020019092919050505073ffffffffffffffffffffffffffffffffffffffff16141515613c8e57600080fd5b3073ffffffffffffffffffffffffffffffffffffffff168373ffffffffffffffffffffffffffffffffffffffff1663b70811bc6040518163ffffffff167c0100000000000000000000000000000000000000000000000000000000028152600401602060405180830381600087803b158015613d0957600080fd5b505af1158015613d1d573d6000803e3d6000fd5b505050506040513d6020811015613d3357600080fd5b810190808051906020019092919050505073ffffffffffffffffffffffffffffffffffffffff16141515613d6657600080fd5b6060604051908101604052808973ffffffffffffffffffffffffffffffffffffffff1681526020018873ffffffffffffffffffffffffffffffffffffffff1681526020018773ffffffffffffffffffffffffffffffffffffffff16815250915060006008541480613ded5750600254613dea600754426149a590919063ffffffff16565b10155b15613dfa57426007819055505b4260088190555081600d6000600854815260200190815260200160002060008201518160000160006101000a81548173ffffffffffffffffffffffffffffffffffffffff021916908373ffffffffffffffffffffffffffffffffffffffff16021790555060208201518160010160006101000a81548173ffffffffffffffffffffffffffffffffffffffff021916908373ffffffffffffffffffffffffffffffffffffffff16021790555060408201518160020160006101000a81548173ffffffffffffffffffffffffffffffffffffffff021916908373ffffffffffffffffffffffffffffffffffffffff160217905550905050600c829080600181540180825580915050906001820390600052602060002090600302016000909192909190915060008201518160000160006101000a81548173ffffffffffffffffffffffffffffffffffffffff021916908373ffffffffffffffffffffffffffffffffffffffff16021790555060208201518160010160006101000a81548173ffffffffffffffffffffffffffffffffffffffff021916908373ffffffffffffffffffffffffffffffffffffffff16021790555060408201518160020160006101000a81548173ffffffffffffffffffffffffffffffffffffffff021916908373ffffffffffffffffffffffffffffffffffffffff1602179055505050507fe16f13857e20d75277bc68142c3dc894086fadd3a6ae529caff79fcb9a1e2b6f888888604051808473ffffffffffffffffffffffffffffffffffffffff1673ffffffffffffffffffffffffffffffffffffffff1681526020018373ffffffffffffffffffffffffffffffffffffffff1673ffffffffffffffffffffffffffffffffffffffff1681526020018273ffffffffffffffffffffffffffffffffffffffff1673ffffffffffffffffffffffffffffffffffffffff168152602001935050505060405180910390a15050505050505050565b60006140fc7f4172f0f7d2289153072b0a6ca36959e0cbe2efc3afe50fc81636caa96338137b60010260001916614c37565b905090565b60007fffffffffffffffffffffffffffffffffffffffffffffffffffffffffffffffff61412c6127f1565b14905090565b60405180807f5345545f434f494e000000000000000000000000000000000000000000000000815250600801905060405180910390206141a33382600060405190808252806020026020018201604052801561419d5781602001602082028038833980820191505090505b50612d17565b6040805190810160405280600f81526020017f4150505f415554485f4641494c45440000000000000000000000000000000000815250901515614281576040517f08c379a00000000000000000000000000000000000000000000000000000000081526004018080602001828103825283818151815260200191508051906020019080838360005b8381101561424657808201518184015260208101905061422b565b50505050905090810190601f1680156142735780820380516001836020036101000a031916815260200191505b509250505060405180910390fd5b50600073ffffffffffffffffffffffffffffffffffffffff16600a60009054906101000a900473ffffffffffffffffffffffffffffffffffffffff1673ffffffffffffffffffffffffffffffffffffffff161415156142df57600080fd5b600115156142ec83614aa2565b15151415156142fa57600080fd5b81600a60006101000a81548173ffffffffffffffffffffffffffffffffffffffff021916908373ffffffffffffffffffffffffffffffffffffffff1602179055507f2c6fbcbde8226e61bf063b650e50aae5b24ecc56402acbe3a90aac368efeaa3282604051808273ffffffffffffffffffffffffffffffffffffffff1673ffffffffffffffffffffffffffffffffffffffff16815260200191505060405180910390a15050565b565b60405180807f4144445f54415800000000000000000000000000000000000000000000000000815250600701905060405180910390206144153382600060405190808252806020026020018201604052801561440f5781602001602082028038833980820191505090505b50612d17565b6040805190810160405280600f81526020017f4150505f415554485f4641494c454400000000000000000000000000000000008152509015156144f3576040517f08c379a00000000000000000000000000000000000000000000000000000000081526004018080602001828103825283818151815260200191508051906020019080838360005b838110156144b857808201518184015260208101905061449d565b50505050905090810190601f1680156144e55780820380516001836020036101000a031916815260200191505b509250505060405180910390fd5b50600583908060018154018082558091505090600182039060005260206000200160009091929091909150555060068290806001815401808255809150509060018203906000526020600020016000909192909190915055507ff443eff8ac478b898d3ca63c443d3de38535f621083d0ab819b789c666b951158383604051808381526020018281526020019250505060405180910390a1505050565b8473ffffffffffffffffffffffffffffffffffffffff16846040518082805190602001908083835b6020831015156145dd57805182526020820191506020810190506020830392506145b8565b6001836020036101000a03801982511681845116808217855250505050505090500191505060405180910390207c010000000000000000000000000000000000000000000000000000000090048484846040518463ffffffff167c010000000000000000000000000000000000000000000000000000000002815260040180848051906020019080838360005b8381101561468557808201518184015260208101905061466a565b50505050905090810190601f1680156146b25780820380516001836020036101000a031916815260200191505b5083815260200182815260200193505050506000604051808303816000875af192505050507f1bf73fecff59f53a28e0365d986d6f97d7beab37770653e65daf6ff838ec0ec460405160405180910390a15050505050565b8473ffffffffffffffffffffffffffffffffffffffff16846040518082805190602001908083835b6020831015156147575780518252602082019150602081019050602083039250614732565b6001836020036101000a03801982511681845116808217855250505050505090500191505060405180910390207c010000000000000000000000000000000000000000000000000000000090048484846040518463ffffffff167c010000000000000000000000000000000000000000000000000000000002815260040180848051906020019080838360005b838110156147ff5780820151818401526020810190506147e4565b50505050905090810190601f16801561482c5780820380516001836020036101000a031916815260200191505b508373ffffffffffffffffffffffffffffffffffffffff1673ffffffffffffffffffffffffffffffffffffffff16815260200182815260200193505050506000604051808303816000875af192505050507f1bf73fecff59f53a28e0365d986d6f97d7beab37770653e65daf6ff838ec0ec460405160405180910390a15050505050565b6000808284019050838110156040805190810160405280601181526020017f4d4154485f4144445f4f564552464c4f5700000000000000000000000000000081525090151561499a576040517f08c379a00000000000000000000000000000000000000000000000000000000081526004018080602001828103825283818151815260200191508051906020019080838360005b8381101561495f578082015181840152602081019050614944565b50505050905090810190601f16801561498c5780820380516001836020036101000a031916815260200191505b509250505060405180910390fd5b508091505092915050565b600080838311156040805190810160405280601281526020017f4d4154485f5355425f554e444552464c4f570000000000000000000000000000815250901515614a8a576040517f08c379a00000000000000000000000000000000000000000000000000000000081526004018080602001828103825283818151815260200191508051906020019080838360005b83811015614a4f578082015181840152602081019050614a34565b50505050905090810190601f168015614a7c5780820380516001836020036101000a031916815260200191505b509250505060405180910390fd5b5082840390508091505092915050565b600043905090565b600080600073ffffffffffffffffffffffffffffffffffffffff168373ffffffffffffffffffffffffffffffffffffffff161415614ae35760009150614aee565b823b90506000811191505b50919050565b6000614afe6127f1565b146040805190810160405280601881526020017f494e49545f414c52454144595f494e495449414c495a45440000000000000000815250901515614bdd576040517f08c379a00000000000000000000000000000000000000000000000000000000081526004018080602001828103825283818151815260200191508051906020019080838360005b83811015614ba2578082015181840152602081019050614b87565b50505050905090810190601f168015614bcf5780820380516001836020036101000a031916815260200191505b509250505060405180910390fd5b50614c1f614be9614a9a565b7febb05b386a8d34882b8711d156f463690983dc47815980fb82aeeff1aa43579e60010260001916614c4290919063ffffffff16565b565b600081549050919050565b600081549050919050565b600081549050919050565b8082555050565b815481835581811115614c7057818360005260206000209182019101614c6f9190614cd9565b5b505050565b606060405190810160405280600073ffffffffffffffffffffffffffffffffffffffff168152602001600073ffffffffffffffffffffffffffffffffffffffff168152602001600073ffffffffffffffffffffffffffffffffffffffff1681525090565b614cfb91905b80821115614cf7576000816000905550600101614cdf565b5090565b905600a165627a7a72305820d41fe1c9c8e1047274e746128b50c9ca0b0ed1e68776200a9d0d089914823f3b0029",
  "source": "pragma solidity 0.4.24;\n\nimport \"contracts/utils/Forwarder.sol\";\n\nimport \"contracts/interfaces/IDAOCoin.sol\";\nimport \"contracts/interfaces/IDAOBond.sol\";\n\nimport \"contracts/interfaces/ITransparentDao.sol\";\n\nimport \"contracts/interfaces/IIncomeStatement.sol\";\nimport \"contracts/interfaces/IBalanceSheet.sol\";\nimport \"contracts/interfaces/ICashflowStatement.sol\";\n\nimport \"@aragon/os/contracts/apps/AragonApp.sol\";\nimport \"@aragon/os/contracts/lib/math/SafeMath.sol\";\nimport \"@aragon/os/contracts/common/IsContract.sol\";\n\nimport \"@aragon/os/contracts/acl/ACL.sol\";\nimport \"@aragon/os/contracts/apps/AppProxyUpgradeable.sol\";\nimport \"@aragon/os/contracts/factory/EVMScriptRegistryFactory.sol\";\nimport \"@aragon/os/contracts/factory/DAOFactory.sol\";\nimport \"@aragon/os/contracts/kernel/Kernel.sol\";\nimport \"@aragon/os/contracts/kernel/KernelProxy.sol\";\n\ncontract TransparentDao is IsContract, ITransparentDao, Forwarder, AragonApp {\n\n  using SafeMath for uint256;\n\n  //Aragon related roles\n\n  bytes32 constant public SET_COIN = keccak256(\"SET_COIN\");\n  bytes32 constant public ADD_TAX = keccak256(\"ADD_TAX\");\n  bytes32 constant public DELETE_TAX = keccak256(\"DELETE_TAX\");\n  bytes32 constant public NEW_BOND = keccak256(\"NEW_BOND\");\n  bytes32 constant public START_REPORT = keccak256(\"START_REPORT\");\n\n  //Constants\n\n  uint256 quarter = 2136 hours;\n  uint256 year = 8544 hours;\n\n  string fiatRepresentation = \"US DOLLAR\";\n\n  //Structs\n\n  struct Report {\n\n    address income;\n\n    address balance;\n\n    address cashflow;\n\n  }\n\n  //Tax types\n\n  enum TAX_TYPE {NO_TAX, SIMPLE, PROGRESSIVE}\n\n  TAX_TYPE taxT;\n\n  //We can choose to have a simple or progressive tax\n\n  uint256[] latestTax;\n  uint256[] incomeThresholds;\n\n  //Financial year indices\n\n  uint256 startOfCurrentYear;\n  uint256 latestReportIssuance;\n\n  //Current coin used to do accounting\n\n  address UOA;\n\n  //Coin which might be issued by the DAO\n\n  IDAOCoin daoCoin;\n\n  IDAOBond[] bonds;\n  Report[] reportsArray;\n\n  mapping(uint256 => Report) reports;\n\n  /**\n  * @notice Initialize the contract as described in the Aragon docs\n  * @param _unitOfAccount The UOA crypto-coin that is used to do accounting (the revenues/expenses are denoted in this coin when shown on the front-end)\n  * @param _daoCoin The address of the ERC-20 contract\n  */\n\n  function initialize(address _unitOfAccount,\n                      address _daoCoin) public onlyInit {\n\n      require(_unitOfAccount == address(0) || isContract(_unitOfAccount) == true);\n\n      if (daoCoin != address(0)) daoCoin = IDAOCoin(_daoCoin);\n\n      UOA = _unitOfAccount;\n\n      initialized();\n\n  }\n\n  /**\n  * @notice Set the official Dao coin\n  * @param _coin The address of the ERC-20 contract\n  */\n\n  function setDaoCoin(address _coin) auth(SET_COIN) public {\n\n    require(address(daoCoin) == address(0));\n    require(isContract(_coin) == true);\n\n    daoCoin = IDAOCoin(_coin);\n\n    emit SetDaoCoin(_coin);\n\n  }\n\n  /**\n  * @notice The government (or a representative) can add a tax threshold for the Dao\n  * @param percentage Percentage of tax charged from gross revenues\n  * @param threshold Threshold of revenues that the Dao needs to cross in order to pay a certain tax\n  */\n\n  function addTax(uint256 percentage, uint256 threshold) auth(ADD_TAX) public {\n\n    latestTax.push(percentage);\n\n    incomeThresholds.push(threshold);\n\n    emit AddedTax(percentage, threshold);\n\n  }\n\n  /**\n  * @notice The government (or a representative) can delete a tax threshold for the Dao\n  * @param position The position of the tax threshold in the latestTax array\n  */\n\n  function deleteTax(uint256 position) auth(DELETE_TAX) public {\n\n    require(position < latestTax.length);\n\n    for (uint i = position; i < latestTax.length.sub(1); i++) {\n\n        latestTax[i] = latestTax[i.add(1)];\n        incomeThresholds[i] = incomeThresholds[i.add(1)];\n\n    }\n\n    delete(latestTax[latestTax.length.sub(1)]);\n    delete(incomeThresholds[incomeThresholds.length.sub(1)]);\n\n    latestTax.length--;\n    incomeThresholds.length--;\n\n    emit DeletedTax(position);\n\n  }\n\n  /**\n  * @notice Issue a new bond for this Dao\n  * @param _bond The address of the smart bond contract\n  */\n\n  function newBond(address _bond) auth(NEW_BOND) public {\n\n    require(isContract(_bond) == true);\n\n    IDAOBond newBond = IDAOBond(_bond);\n\n    require(newBond.getNonce() == 0);\n\n    bonds.push(newBond);\n\n    emit NewBond(_bond);\n\n  }\n\n  /**\n  * @notice Start a new quaterly report\n  * @param _income The address of the income statement contract\n  * @param _balance The address of the balance sheet contract\n  * @param _cashflow The address of the cashflow statement contract\n  */\n\n  function startReport(address _income, address _balance, address _cashflow)\n    auth(START_REPORT) public {\n\n    require(latestReportIssuance == 0 || now - latestReportIssuance >= quarter);\n\n    IIncomeStatement inc = IIncomeStatement(_income);\n    IBalanceSheet balance = IBalanceSheet(_balance);\n    ICashflowStatement cash = ICashflowStatement(_cashflow);\n\n    require(inc.getDao() == address(this));\n    require(balance.getDao() == address(this));\n    require(cash.getDao() == address(this));\n\n    Report memory newReport = Report(_income, _balance, _cashflow);\n\n    if (latestReportIssuance == 0 || now.sub(startOfCurrentYear) >= year)\n      startOfCurrentYear = now;\n\n    latestReportIssuance = now;\n\n    reports[latestReportIssuance] = newReport;\n\n    reportsArray.push(newReport);\n\n    emit StartedReport(_income, _balance, _cashflow);\n\n  }\n\n  /**\n  * @notice Donate money to this Dao\n  */\n\n  function donate() public payable {}\n\n  function() payable { revert(); }\n\n  //GETTERS\n\n  /**\n  * @dev Get the unit of account coin address\n  * @return The address of the coin contract\n  */\n\n  function getUOAAddress() public view returns (address) {\n\n    return UOA;\n\n  }\n\n  /**\n  * @dev Get the total debt of the bonds issued by this Dao between 2 indices\n  * @param startPosition The position in the bonds array from which to loop\n  * @param bondsNumber How many bonds to take into consideration starting from startPosition\n  * @return The total debt from bondsNumber bonds\n  */\n\n  function getBondDebt(uint256 startPosition, uint256 bondsNumber) public view returns (uint256) {\n\n    require(startPosition < bonds.length);\n    require(startPosition.add(bondsNumber) < bonds.length);\n\n    uint256 debt = 0;\n    uint256 currentDebt = 0;\n\n    uint256 i = startPosition;\n\n    do {\n\n      currentDebt = bonds[i].getTotalDebt();\n\n      debt = debt.add(currentDebt);\n\n      i++;\n\n    } while (i < startPosition.add(bondsNumber));\n\n    return debt;\n\n  }\n\n  /**\n  * @dev Get the address of a bond contract from the bonds array\n  * @param position The position of the bond contract in the array\n  * @return The address of the smart bond contract\n  */\n\n  function getBondAddress(uint256 position) public view returns (address) {\n\n    return address(bonds[position]);\n\n  }\n\n  /**\n  * @dev Get the market price of this Dao\n  * @return The market price\n  */\n\n  function getMarketPrice() public view returns (int256) {\n\n    return marketPrice;\n\n  }\n\n  /**\n  * @dev Get the length of the reportsArray\n  * @return The length of the reports array\n  */\n\n  function getReportsLength() public view returns (uint256) {\n\n    return reportsArray.length;\n\n  }\n\n  /**\n  * @dev Get the financial reports addresses from a specific reportsArray position\n  * @param position The position of the reportsArray array\n  * @return The 3 addresses corresponding to the income statement, balance sheet and cashflow statement\n  */\n\n  function getReportAtPosition(uint256 position) public view returns (address, address, address) {\n\n    return (reportsArray[position].income, reportsArray[position].balance,\n            reportsArray[position].cashflow);\n\n  }\n\n  /**\n  * @dev Get the address of the official Dao coin\n  * @return The address of the coin address\n  */\n\n  function getCoinAddress() public view returns (address) {\n\n    return address(daoCoin);\n\n  }\n\n  /**\n  * @dev Get the number of coins issued in the official Dao coin contract\n  * @return The amounf of coins issued\n  */\n\n  function getCoinsAmount() public view returns (uint256) {\n\n    uint256 decimals = daoCoin.getDecimals();\n\n    return daoCoin.totalSupply() / 10**decimals;\n\n  }\n\n  /**\n  * @dev Get the latestTax array\n  * @return The array having the taxes applied to this Dao\n  */\n\n  function getLatestTax() public view returns (uint256[]) {\n\n    return latestTax;\n\n  }\n\n  /**\n  * @dev Get the income threshold for which taxes will be applied\n  * @return The incomeThresholds array\n  */\n\n  function getIncomeThresholds() public view returns (uint256[]) {\n\n    return incomeThresholds;\n\n  }\n\n  /**\n  * @dev Get the Aragon roles from this contract\n  * @return All Aragon roles\n  */\n\n  function getRoles() public view returns (bytes32, bytes32, bytes32, bytes32, bytes32) {\n\n    return (SET_COIN, ADD_TAX, DELETE_TAX, NEW_BOND, START_REPORT);\n\n  }\n\n  /**\n  * @dev Get the type of tax applied to this Dao\n  * @return The tax type for this Dao\n  */\n\n  function getTaxType() public view returns (uint) {\n\n    if (latestTax.length > 1) return uint(TAX_TYPE.PROGRESSIVE);\n\n    else if (latestTax.length == 1) return uint(TAX_TYPE.SIMPLE);\n\n    return uint(TAX_TYPE.NO_TAX);\n\n  }\n\n}\n",
  "sourcePath": "/home/stefan/Work/TransparentDao/contracts/accounting/dao/TransparentDao.sol",
  "compiler": {
    "name": "solc",
    "version": "0.4.24+commit.e67f0147.Emscripten.clang"
  },
  "schemaVersion": "2.0.1",
  "updatedAt": "2018-12-20T23:25:47.281Z"
}