{
  "contractName": "TransparentDao",
  "abi": [
    {
      "constant": false,
      "inputs": [
        {
          "name": "_addr",
          "type": "address"
        },
        {
          "name": "method",
          "type": "string"
        },
        {
          "name": "_str",
          "type": "string"
        },
        {
          "name": "nr",
          "type": "uint256"
        }
      ],
      "name": "callStringUint256",
      "outputs": [],
      "payable": false,
      "stateMutability": "nonpayable",
      "type": "function"
    },
    {
      "constant": false,
      "inputs": [
        {
          "name": "_addr",
          "type": "address"
        },
        {
          "name": "method",
          "type": "string"
        },
        {
          "name": "someStr1",
          "type": "string"
        },
        {
          "name": "someString2",
          "type": "string"
        },
        {
          "name": "someNr",
          "type": "uint256"
        }
      ],
      "name": "callStringStringUint256",
      "outputs": [],
      "payable": false,
      "stateMutability": "nonpayable",
      "type": "function"
    },
    {
      "constant": false,
      "inputs": [
        {
          "name": "_addr",
          "type": "address"
        },
        {
          "name": "method",
          "type": "string"
        },
        {
          "name": "someAddr",
          "type": "address"
        }
      ],
      "name": "callAddress",
      "outputs": [],
      "payable": false,
      "stateMutability": "nonpayable",
      "type": "function"
    },
    {
      "constant": false,
      "inputs": [
        {
          "name": "_addr",
          "type": "address"
        },
        {
          "name": "method",
          "type": "string"
        },
        {
          "name": "someStr",
          "type": "string"
        }
      ],
      "name": "callString",
      "outputs": [],
      "payable": false,
      "stateMutability": "nonpayable",
      "type": "function"
    },
    {
      "constant": false,
      "inputs": [
        {
          "name": "_addr",
          "type": "address"
        },
        {
          "name": "method",
          "type": "string"
        },
        {
          "name": "nr",
          "type": "int256"
        }
      ],
      "name": "callInt256",
      "outputs": [],
      "payable": false,
      "stateMutability": "nonpayable",
      "type": "function"
    },
    {
      "constant": false,
      "inputs": [
        {
          "name": "_addr",
          "type": "address"
        },
        {
          "name": "method",
          "type": "string"
        },
        {
          "name": "someAddr",
          "type": "address"
        },
        {
          "name": "nr",
          "type": "uint256"
        }
      ],
      "name": "callAddressUint256",
      "outputs": [],
      "payable": false,
      "stateMutability": "nonpayable",
      "type": "function"
    },
    {
      "constant": false,
      "inputs": [
        {
          "name": "_addr",
          "type": "address"
        },
        {
          "name": "method",
          "type": "string"
        },
        {
          "name": "nr",
          "type": "uint256"
        }
      ],
      "name": "callUint256",
      "outputs": [],
      "payable": false,
      "stateMutability": "nonpayable",
      "type": "function"
    },
    {
      "constant": false,
      "inputs": [
        {
          "name": "_addr",
          "type": "address"
        },
        {
          "name": "method",
          "type": "string"
        },
        {
          "name": "_str",
          "type": "string"
        },
        {
          "name": "_someAddr",
          "type": "address"
        },
        {
          "name": "nr",
          "type": "uint256"
        }
      ],
      "name": "callStringAddressUint256",
      "outputs": [],
      "payable": false,
      "stateMutability": "nonpayable",
      "type": "function"
    },
    {
      "inputs": [
        {
          "name": "_unitOfAccount",
          "type": "address"
        },
        {
          "name": "_floatMath",
          "type": "address"
        },
        {
          "name": "_daoCoin",
          "type": "address"
        },
        {
          "name": "_dateTime",
          "type": "address"
        }
      ],
      "payable": false,
      "stateMutability": "nonpayable",
      "type": "constructor"
    },
    {
      "payable": true,
      "stateMutability": "payable",
      "type": "fallback"
    },
    {
      "anonymous": false,
      "inputs": [
        {
          "indexed": false,
          "name": "_issuer",
          "type": "address"
        }
      ],
      "name": "ChangedIssuer",
      "type": "event"
    },
    {
      "anonymous": false,
      "inputs": [
        {
          "indexed": false,
          "name": "_bond",
          "type": "address"
        }
      ],
      "name": "NewBond",
      "type": "event"
    },
    {
      "anonymous": false,
      "inputs": [
        {
          "indexed": false,
          "name": "_math",
          "type": "address"
        }
      ],
      "name": "ChangedFloatMath",
      "type": "event"
    },
    {
      "anonymous": false,
      "inputs": [
        {
          "indexed": false,
          "name": "_coin",
          "type": "address"
        }
      ],
      "name": "SetDaoCoin",
      "type": "event"
    },
    {
      "anonymous": false,
      "inputs": [
        {
          "indexed": false,
          "name": "percentage",
          "type": "uint256"
        },
        {
          "indexed": false,
          "name": "threshold",
          "type": "uint256"
        }
      ],
      "name": "AddedTax",
      "type": "event"
    },
    {
      "anonymous": false,
      "inputs": [
        {
          "indexed": false,
          "name": "position",
          "type": "uint256"
        }
      ],
      "name": "DeletedTax",
      "type": "event"
    },
    {
      "anonymous": false,
      "inputs": [
        {
          "indexed": false,
          "name": "income",
          "type": "address"
        },
        {
          "indexed": false,
          "name": "balance",
          "type": "address"
        },
        {
          "indexed": false,
          "name": "cashflow",
          "type": "address"
        }
      ],
      "name": "StartedReport",
      "type": "event"
    },
    {
      "constant": false,
      "inputs": [
        {
          "name": "_dateTime",
          "type": "address"
        }
      ],
      "name": "changeDateTime",
      "outputs": [],
      "payable": false,
      "stateMutability": "nonpayable",
      "type": "function"
    },
    {
      "constant": false,
      "inputs": [
        {
          "name": "_float",
          "type": "address"
        }
      ],
      "name": "changeFloatMath",
      "outputs": [],
      "payable": false,
      "stateMutability": "nonpayable",
      "type": "function"
    },
    {
      "constant": false,
      "inputs": [
        {
          "name": "_coin",
          "type": "address"
        }
      ],
      "name": "setDaoCoin",
      "outputs": [],
      "payable": false,
      "stateMutability": "nonpayable",
      "type": "function"
    },
    {
      "constant": false,
      "inputs": [
        {
          "name": "percentage",
          "type": "uint256"
        },
        {
          "name": "threshold",
          "type": "uint256"
        }
      ],
      "name": "addTax",
      "outputs": [],
      "payable": false,
      "stateMutability": "nonpayable",
      "type": "function"
    },
    {
      "constant": false,
      "inputs": [
        {
          "name": "position",
          "type": "uint256"
        }
      ],
      "name": "deleteTax",
      "outputs": [],
      "payable": false,
      "stateMutability": "nonpayable",
      "type": "function"
    },
    {
      "constant": false,
      "inputs": [
        {
          "name": "_bond",
          "type": "address"
        }
      ],
      "name": "newBond",
      "outputs": [],
      "payable": false,
      "stateMutability": "nonpayable",
      "type": "function"
    },
    {
      "constant": false,
      "inputs": [
        {
          "name": "_income",
          "type": "address"
        },
        {
          "name": "_balance",
          "type": "address"
        },
        {
          "name": "_cashflow",
          "type": "address"
        }
      ],
      "name": "startReport",
      "outputs": [],
      "payable": false,
      "stateMutability": "nonpayable",
      "type": "function"
    },
    {
      "constant": true,
      "inputs": [],
      "name": "getUOAAddress",
      "outputs": [
        {
          "name": "",
          "type": "address"
        }
      ],
      "payable": false,
      "stateMutability": "view",
      "type": "function"
    },
    {
      "constant": true,
      "inputs": [
        {
          "name": "startPosition",
          "type": "uint256"
        },
        {
          "name": "bondsNumber",
          "type": "uint256"
        }
      ],
      "name": "getBondDebt",
      "outputs": [
        {
          "name": "",
          "type": "uint256"
        }
      ],
      "payable": false,
      "stateMutability": "view",
      "type": "function"
    },
    {
      "constant": true,
      "inputs": [
        {
          "name": "position",
          "type": "uint256"
        }
      ],
      "name": "getBondAddress",
      "outputs": [
        {
          "name": "",
          "type": "address"
        }
      ],
      "payable": false,
      "stateMutability": "view",
      "type": "function"
    },
    {
      "constant": true,
      "inputs": [],
      "name": "getMarketPrice",
      "outputs": [
        {
          "name": "",
          "type": "int256"
        }
      ],
      "payable": false,
      "stateMutability": "view",
      "type": "function"
    },
    {
      "constant": true,
      "inputs": [],
      "name": "getReportsLength",
      "outputs": [
        {
          "name": "",
          "type": "uint256"
        }
      ],
      "payable": false,
      "stateMutability": "view",
      "type": "function"
    },
    {
      "constant": true,
      "inputs": [
        {
          "name": "position",
          "type": "uint256"
        }
      ],
      "name": "getReportAtPosition",
      "outputs": [
        {
          "name": "",
          "type": "address"
        },
        {
          "name": "",
          "type": "address"
        },
        {
          "name": "",
          "type": "address"
        }
      ],
      "payable": false,
      "stateMutability": "view",
      "type": "function"
    },
    {
      "constant": true,
      "inputs": [],
      "name": "getFloatAddress",
      "outputs": [
        {
          "name": "",
          "type": "address"
        }
      ],
      "payable": false,
      "stateMutability": "view",
      "type": "function"
    },
    {
      "constant": true,
      "inputs": [],
      "name": "getCoinAddress",
      "outputs": [
        {
          "name": "",
          "type": "address"
        }
      ],
      "payable": false,
      "stateMutability": "view",
      "type": "function"
    },
    {
      "constant": true,
      "inputs": [],
      "name": "getCoinsAmount",
      "outputs": [
        {
          "name": "",
          "type": "uint256"
        }
      ],
      "payable": false,
      "stateMutability": "view",
      "type": "function"
    },
    {
      "constant": true,
      "inputs": [],
      "name": "getLatestTax",
      "outputs": [
        {
          "name": "",
          "type": "uint256[]"
        }
      ],
      "payable": false,
      "stateMutability": "view",
      "type": "function"
    },
    {
      "constant": true,
      "inputs": [],
      "name": "getIncomeThresholds",
      "outputs": [
        {
          "name": "",
          "type": "uint256[]"
        }
      ],
      "payable": false,
      "stateMutability": "view",
      "type": "function"
    },
    {
      "constant": true,
      "inputs": [],
      "name": "getTaxType",
      "outputs": [
        {
          "name": "",
          "type": "uint256"
        }
      ],
      "payable": false,
      "stateMutability": "view",
      "type": "function"
    }
  ],
  "bytecode": "0x60806040527fffffffffffffffffffffffffffffffffffffffffffffffffffffffffffffffff600055627555806001556301d556006002556040805190810160405280600981526020017f555320444f4c4c4152000000000000000000000000000000000000000000000081525060039080519060200190620000849291906200036e565b503480156200009257600080fd5b5060405160808062002eab83398101806040528101908080519060200190929190805190602001909291908051906020019092919080519060200190929190505050600073ffffffffffffffffffffffffffffffffffffffff168473ffffffffffffffffffffffffffffffffffffffff1614806200012d575060011515620001298562000355640100000000026401000000009004565b1515145b15156200013957600080fd5b600073ffffffffffffffffffffffffffffffffffffffff16600a60009054906101000a900473ffffffffffffffffffffffffffffffffffffffff1673ffffffffffffffffffffffffffffffffffffffff16141515620001d45781600a60006101000a81548173ffffffffffffffffffffffffffffffffffffffff021916908373ffffffffffffffffffffffffffffffffffffffff1602179055505b83600960006101000a81548173ffffffffffffffffffffffffffffffffffffffff021916908373ffffffffffffffffffffffffffffffffffffffff160217905550600073ffffffffffffffffffffffffffffffffffffffff16600b60009054906101000a900473ffffffffffffffffffffffffffffffffffffffff1673ffffffffffffffffffffffffffffffffffffffff16141515620002b05782600b60006101000a81548173ffffffffffffffffffffffffffffffffffffffff021916908373ffffffffffffffffffffffffffffffffffffffff1602179055505b600073ffffffffffffffffffffffffffffffffffffffff16600c60009054906101000a900473ffffffffffffffffffffffffffffffffffffffff1673ffffffffffffffffffffffffffffffffffffffff161415156200034b5780600c60006101000a81548173ffffffffffffffffffffffffffffffffffffffff021916908373ffffffffffffffffffffffffffffffffffffffff1602179055505b505050506200041d565b600080823b905060008163ffffffff1611915050919050565b828054600181600116156101000203166002900490600052602060002090601f016020900481019282601f10620003b157805160ff1916838001178555620003e2565b82800160010185558215620003e2579182015b82811115620003e1578251825591602001919060010190620003c4565b5b509050620003f19190620003f5565b5090565b6200041a91905b8082111562000416576000816000905550600101620003fc565b5090565b90565b612a7e806200042d6000396000f30060806040526004361061015f576000357c0100000000000000000000000000000000000000000000000000000000900463ffffffff168063011eb8b01461016157806304d0a5f0146101ac57806327ff6b98146101d9578063362b43781461023057806338644a151461029d57806339558413146102f45780633f86249a146103cd57806340043068146104ec578063486ead7c14610543578063548ce2bc146105ec5780635d84d05414610617578063660e16c31461065a578063716030b214610685578063885c6cf7146107545780639412cc7a146107c05780639ac747e7146107eb5780639d59bcbd14610857578063abcd895814610882578063ae0d0c9e146108c5578063bd16a21014610908578063c8adcc861461099b578063caa711cb14610a4e578063cd09bd9514610ae1578063cf23940a14610bb4578063ec3edeee14610c37578063f586e1b314610c7a578063f8de137e14610cb1575b005b34801561016d57600080fd5b506101966004803603810190808035906020019092919080359060200190929190505050610daa565b6040518082815260200191505060405180910390f35b3480156101b857600080fd5b506101d760048036038101908080359060200190929190505050610f16565b005b3480156101e557600080fd5b506101ee6110c1565b604051808273ffffffffffffffffffffffffffffffffffffffff1673ffffffffffffffffffffffffffffffffffffffff16815260200191505060405180910390f35b34801561023c57600080fd5b5061025b600480360381019080803590602001909291905050506110eb565b604051808273ffffffffffffffffffffffffffffffffffffffff1673ffffffffffffffffffffffffffffffffffffffff16815260200191505060405180910390f35b3480156102a957600080fd5b506102b261112e565b604051808273ffffffffffffffffffffffffffffffffffffffff1673ffffffffffffffffffffffffffffffffffffffff16815260200191505060405180910390f35b34801561030057600080fd5b506103cb600480360381019080803573ffffffffffffffffffffffffffffffffffffffff169060200190929190803590602001908201803590602001908080601f0160208091040260200160405190810160405280939291908181526020018383808284378201915050505050509192919290803590602001908201803590602001908080601f016020809104026020016040519081016040528093929190818152602001838380828437820191505050505050919291929080359060200190929190505050611158565b005b3480156103d957600080fd5b506104ea600480360381019080803573ffffffffffffffffffffffffffffffffffffffff169060200190929190803590602001908201803590602001908080601f0160208091040260200160405190810160405280939291908181526020018383808284378201915050505050509192919290803590602001908201803590602001908080601f0160208091040260200160405190810160405280939291908181526020018383808284378201915050505050509192919290803590602001908201803590602001908080601f01602080910402602001604051908101604052809392919081815260200183838082843782019150505050505091929192908035906020019092919050505061129d565b005b3480156104f857600080fd5b5061050161143c565b604051808273ffffffffffffffffffffffffffffffffffffffff1673ffffffffffffffffffffffffffffffffffffffff16815260200191505060405180910390f35b34801561054f57600080fd5b506105ea600480360381019080803573ffffffffffffffffffffffffffffffffffffffff169060200190929190803590602001908201803590602001908080601f0160208091040260200160405190810160405280939291908181526020018383808284378201915050505050509192919290803573ffffffffffffffffffffffffffffffffffffffff169060200190929190505050611466565b005b3480156105f857600080fd5b5061060161157d565b6040518082815260200191505060405180910390f35b34801561062357600080fd5b50610658600480360381019080803573ffffffffffffffffffffffffffffffffffffffff169060200190929190505050611718565b005b34801561066657600080fd5b5061066f6117da565b6040518082815260200191505060405180910390f35b34801561069157600080fd5b50610752600480360381019080803573ffffffffffffffffffffffffffffffffffffffff169060200190929190803590602001908201803590602001908080601f0160208091040260200160405190810160405280939291908181526020018383808284378201915050505050509192919290803590602001908201803590602001908080601f01602080910402602001604051908101604052809392919081815260200183838082843782019150505050505091929192905050506117e3565b005b34801561076057600080fd5b5061076961191f565b6040518080602001828103825283818151815260200191508051906020019060200280838360005b838110156107ac578082015181840152602081019050610791565b505050509050019250505060405180910390f35b3480156107cc57600080fd5b506107d5611977565b6040518082815260200191505060405180910390f35b3480156107f757600080fd5b50610800611984565b6040518080602001828103825283818151815260200191508051906020019060200280838360005b83811015610843578082015181840152602081019050610828565b505050509050019250505060405180910390f35b34801561086357600080fd5b5061086c6119dc565b6040518082815260200191505060405180910390f35b34801561088e57600080fd5b506108c3600480360381019080803573ffffffffffffffffffffffffffffffffffffffff169060200190929190505050611a34565b005b3480156108d157600080fd5b50610906600480360381019080803573ffffffffffffffffffffffffffffffffffffffff169060200190929190505050611bce565b005b34801561091457600080fd5b50610999600480360381019080803573ffffffffffffffffffffffffffffffffffffffff169060200190929190803590602001908201803590602001908080601f016020809104026020016040519081016040528093929190818152602001838380828437820191505050505050919291929080359060200190929190505050611c2d565b005b3480156109a757600080fd5b50610a4c600480360381019080803573ffffffffffffffffffffffffffffffffffffffff169060200190929190803590602001908201803590602001908080601f0160208091040260200160405190810160405280939291908181526020018383808284378201915050505050509192919290803573ffffffffffffffffffffffffffffffffffffffff16906020019092919080359060200190929190505050611d18565b005b348015610a5a57600080fd5b50610adf600480360381019080803573ffffffffffffffffffffffffffffffffffffffff169060200190929190803590602001908201803590602001908080601f016020809104026020016040519081016040528093929190818152602001838380828437820191505050505050919291929080359060200190929190505050611e38565b005b348015610aed57600080fd5b50610b0c60048036038101908080359060200190929190505050611f23565b604051808473ffffffffffffffffffffffffffffffffffffffff1673ffffffffffffffffffffffffffffffffffffffff1681526020018373ffffffffffffffffffffffffffffffffffffffff1673ffffffffffffffffffffffffffffffffffffffff1681526020018273ffffffffffffffffffffffffffffffffffffffff1673ffffffffffffffffffffffffffffffffffffffff168152602001935050505060405180910390f35b348015610bc057600080fd5b50610c35600480360381019080803573ffffffffffffffffffffffffffffffffffffffff169060200190929190803573ffffffffffffffffffffffffffffffffffffffff169060200190929190803573ffffffffffffffffffffffffffffffffffffffff169060200190929190505050611ff8565b005b348015610c4357600080fd5b50610c78600480360381019080803573ffffffffffffffffffffffffffffffffffffffff16906020019092919050505061261b565b005b348015610c8657600080fd5b50610caf600480360381019080803590602001909291908035906020019092919050505061273a565b005b348015610cbd57600080fd5b50610da8600480360381019080803573ffffffffffffffffffffffffffffffffffffffff169060200190929190803590602001908201803590602001908080601f0160208091040260200160405190810160405280939291908181526020018383808284378201915050505050509192919290803590602001908201803590602001908080601f0160208091040260200160405190810160405280939291908181526020018383808284378201915050505050509192919290803573ffffffffffffffffffffffffffffffffffffffff169060200190929190803590602001909291905050506127d5565b005b600080600080600d8054905086101515610dc357600080fd5b600d80549050610ddc868861294f90919063ffffffff16565b101515610de857600080fd5b60009250600091508590505b600d81815481101515610e0357fe5b9060005260206000200160009054906101000a900473ffffffffffffffffffffffffffffffffffffffff1673ffffffffffffffffffffffffffffffffffffffff166334ce998a6040518163ffffffff167c0100000000000000000000000000000000000000000000000000000000028152600401602060405180830381600087803b158015610e9157600080fd5b505af1158015610ea5573d6000803e3d6000fd5b505050506040513d6020811015610ebb57600080fd5b81019080805190602001909291905050509150610ee1828461294f90919063ffffffff16565b92508080600101915050610efe858761294f90919063ffffffff16565b811015610f0a57610df4565b82935050505092915050565b600060058054905082101515610f2b57600080fd5b8190505b610f48600160058054905061296b90919063ffffffff16565b811015610ff0576005610f6560018361294f90919063ffffffff16565b815481101515610f7157fe5b9060005260206000200154600582815481101515610f8b57fe5b90600052602060002001819055506006610faf60018361294f90919063ffffffff16565b815481101515610fbb57fe5b9060005260206000200154600682815481101515610fd557fe5b90600052602060002001819055508080600101915050610f2f565b600561100b600160058054905061296b90919063ffffffff16565b81548110151561101757fe5b90600052602060002001600090556006611040600160068054905061296b90919063ffffffff16565b81548110151561104c57fe5b9060005260206000200160009055600580548091906001900361106f919061299d565b506006805480919060019003611085919061299d565b507f0b72ed9bc3245ee50f52040c7a5fad686b4ae577ced7bfd9e7533dbd430b4690826040518082815260200191505060405180910390a15050565b6000600960009054906101000a900473ffffffffffffffffffffffffffffffffffffffff16905090565b6000600d828154811015156110fc57fe5b9060005260206000200160009054906101000a900473ffffffffffffffffffffffffffffffffffffffff169050919050565b6000600b60009054906101000a900473ffffffffffffffffffffffffffffffffffffffff16905090565b8373ffffffffffffffffffffffffffffffffffffffff16836040518082805190602001908083835b6020831015156111a55780518252602082019150602081019050602083039250611180565b6001836020036101000a03801982511681845116808217855250505050505090500191505060405180910390207c0100000000000000000000000000000000000000000000000000000000900483836040518363ffffffff167c010000000000000000000000000000000000000000000000000000000002815260040180838051906020019080838360005b8381101561124c578082015181840152602081019050611231565b50505050905090810190601f1680156112795780820380516001836020036101000a031916815260200191505b50828152602001925050506000604051808303816000875af1925050505050505050565b8473ffffffffffffffffffffffffffffffffffffffff16846040518082805190602001908083835b6020831015156112ea57805182526020820191506020810190506020830392506112c5565b6001836020036101000a03801982511681845116808217855250505050505090500191505060405180910390207c010000000000000000000000000000000000000000000000000000000090048484846040518463ffffffff167c010000000000000000000000000000000000000000000000000000000002815260040180848051906020019080838360005b83811015611392578082015181840152602081019050611377565b50505050905090810190601f1680156113bf5780820380516001836020036101000a031916815260200191505b50838051906020019080838360005b838110156113e95780820151818401526020810190506113ce565b50505050905090810190601f1680156114165780820380516001836020036101000a031916815260200191505b5082815260200193505050506000604051808303816000875af192505050505050505050565b6000600a60009054906101000a900473ffffffffffffffffffffffffffffffffffffffff16905090565b8273ffffffffffffffffffffffffffffffffffffffff16826040518082805190602001908083835b6020831015156114b3578051825260208201915060208101905060208303925061148e565b6001836020036101000a03801982511681845116808217855250505050505090500191505060405180910390207c01000000000000000000000000000000000000000000000000000000009004826040518263ffffffff167c0100000000000000000000000000000000000000000000000000000000028152600401808273ffffffffffffffffffffffffffffffffffffffff1673ffffffffffffffffffffffffffffffffffffffff1681526020019150506000604051808303816000875af19250505050505050565b600080600a60009054906101000a900473ffffffffffffffffffffffffffffffffffffffff1673ffffffffffffffffffffffffffffffffffffffff1663f0141d846040518163ffffffff167c0100000000000000000000000000000000000000000000000000000000028152600401602060405180830381600087803b15801561160657600080fd5b505af115801561161a573d6000803e3d6000fd5b505050506040513d602081101561163057600080fd5b8101908080519060200190929190505050905080600a0a600a60009054906101000a900473ffffffffffffffffffffffffffffffffffffffff1673ffffffffffffffffffffffffffffffffffffffff166318160ddd6040518163ffffffff167c0100000000000000000000000000000000000000000000000000000000028152600401602060405180830381600087803b1580156116cd57600080fd5b505af11580156116e1573d6000803e3d6000fd5b505050506040513d60208110156116f757600080fd5b810190808051906020019092919050505081151561171157fe5b0491505090565b6001151561172582612984565b151514151561173357600080fd5b80600b60006101000a81548173ffffffffffffffffffffffffffffffffffffffff021916908373ffffffffffffffffffffffffffffffffffffffff1602179055507fb4bf9829a60f14e0fc704fddad757b0d5270984664326a943a7ae2e463612c4281604051808273ffffffffffffffffffffffffffffffffffffffff1673ffffffffffffffffffffffffffffffffffffffff16815260200191505060405180910390a150565b60008054905090565b8273ffffffffffffffffffffffffffffffffffffffff16826040518082805190602001908083835b602083101515611830578051825260208201915060208101905060208303925061180b565b6001836020036101000a03801982511681845116808217855250505050505090500191505060405180910390207c01000000000000000000000000000000000000000000000000000000009004826040518263ffffffff167c010000000000000000000000000000000000000000000000000000000002815260040180828051906020019080838360005b838110156118d65780820151818401526020810190506118bb565b50505050905090810190601f1680156119035780820380516001836020036101000a031916815260200191505b509150506000604051808303816000875af19250505050505050565b6060600580548060200260200160405190810160405280929190818152602001828054801561196d57602002820191906000526020600020905b815481526020019060010190808311611959575b5050505050905090565b6000600e80549050905090565b606060068054806020026020016040519081016040528092919081815260200182805480156119d257602002820191906000526020600020905b8154815260200190600101908083116119be575b5050505050905090565b6000600160058054905011156119ff576002808111156119f857fe5b9050611a31565b60016005805490501415611a215760016002811115611a1a57fe5b9050611a31565b60006002811115611a2e57fe5b90505b90565b600060011515611a4383612984565b1515141515611a5157600080fd5b81905060008173ffffffffffffffffffffffffffffffffffffffff1663d087d2886040518163ffffffff167c0100000000000000000000000000000000000000000000000000000000028152600401602060405180830381600087803b158015611aba57600080fd5b505af1158015611ace573d6000803e3d6000fd5b505050506040513d6020811015611ae457600080fd5b8101908080519060200190929190505050141515611b0157600080fd5b600d8190806001815401808255809150509060018203906000526020600020016000909192909190916101000a81548173ffffffffffffffffffffffffffffffffffffffff021916908373ffffffffffffffffffffffffffffffffffffffff160217905550507fd6aad22b4323b201c0383e80b5dfc12d03d4b8846d6cf465d20f2e6e65099a9782604051808273ffffffffffffffffffffffffffffffffffffffff1673ffffffffffffffffffffffffffffffffffffffff16815260200191505060405180910390a15050565b60011515611bdb82612984565b1515141515611be957600080fd5b80600c60006101000a81548173ffffffffffffffffffffffffffffffffffffffff021916908373ffffffffffffffffffffffffffffffffffffffff16021790555050565b8273ffffffffffffffffffffffffffffffffffffffff16826040518082805190602001908083835b602083101515611c7a5780518252602082019150602081019050602083039250611c55565b6001836020036101000a03801982511681845116808217855250505050505090500191505060405180910390207c01000000000000000000000000000000000000000000000000000000009004826040518263ffffffff167c0100000000000000000000000000000000000000000000000000000000028152600401808281526020019150506000604051808303816000875af19250505050505050565b8373ffffffffffffffffffffffffffffffffffffffff16836040518082805190602001908083835b602083101515611d655780518252602082019150602081019050602083039250611d40565b6001836020036101000a03801982511681845116808217855250505050505090500191505060405180910390207c0100000000000000000000000000000000000000000000000000000000900483836040518363ffffffff167c0100000000000000000000000000000000000000000000000000000000028152600401808373ffffffffffffffffffffffffffffffffffffffff1673ffffffffffffffffffffffffffffffffffffffff168152602001828152602001925050506000604051808303816000875af1925050505050505050565b8273ffffffffffffffffffffffffffffffffffffffff16826040518082805190602001908083835b602083101515611e855780518252602082019150602081019050602083039250611e60565b6001836020036101000a03801982511681845116808217855250505050505090500191505060405180910390207c01000000000000000000000000000000000000000000000000000000009004826040518263ffffffff167c0100000000000000000000000000000000000000000000000000000000028152600401808281526020019150506000604051808303816000875af19250505050505050565b6000806000600e84815481101515611f3757fe5b906000526020600020906003020160000160009054906101000a900473ffffffffffffffffffffffffffffffffffffffff16600e85815481101515611f7857fe5b906000526020600020906003020160010160009054906101000a900473ffffffffffffffffffffffffffffffffffffffff16600e86815481101515611fb957fe5b906000526020600020906003020160020160009054906101000a900473ffffffffffffffffffffffffffffffffffffffff169250925092509193909250565b60008060006120056129c9565b6000600854148061201c5750600154600854420310155b151561202757600080fd5b8693508592508491503073ffffffffffffffffffffffffffffffffffffffff168473ffffffffffffffffffffffffffffffffffffffff1663b70811bc6040518163ffffffff167c0100000000000000000000000000000000000000000000000000000000028152600401602060405180830381600087803b1580156120ab57600080fd5b505af11580156120bf573d6000803e3d6000fd5b505050506040513d60208110156120d557600080fd5b810190808051906020019092919050505073ffffffffffffffffffffffffffffffffffffffff1614151561210857600080fd5b3073ffffffffffffffffffffffffffffffffffffffff168373ffffffffffffffffffffffffffffffffffffffff1663b70811bc6040518163ffffffff167c0100000000000000000000000000000000000000000000000000000000028152600401602060405180830381600087803b15801561218357600080fd5b505af1158015612197573d6000803e3d6000fd5b505050506040513d60208110156121ad57600080fd5b810190808051906020019092919050505073ffffffffffffffffffffffffffffffffffffffff161415156121e057600080fd5b3073ffffffffffffffffffffffffffffffffffffffff168273ffffffffffffffffffffffffffffffffffffffff1663b70811bc6040518163ffffffff167c0100000000000000000000000000000000000000000000000000000000028152600401602060405180830381600087803b15801561225b57600080fd5b505af115801561226f573d6000803e3d6000fd5b505050506040513d602081101561228557600080fd5b810190808051906020019092919050505073ffffffffffffffffffffffffffffffffffffffff161415156122b857600080fd5b6060604051908101604052808873ffffffffffffffffffffffffffffffffffffffff1681526020018773ffffffffffffffffffffffffffffffffffffffff1681526020018673ffffffffffffffffffffffffffffffffffffffff1681525090506000600854148061233f575060025461233c6007544261296b90919063ffffffff16565b10155b1561234c57426007819055505b4260088190555080600f6000600854815260200190815260200160002060008201518160000160006101000a81548173ffffffffffffffffffffffffffffffffffffffff021916908373ffffffffffffffffffffffffffffffffffffffff16021790555060208201518160010160006101000a81548173ffffffffffffffffffffffffffffffffffffffff021916908373ffffffffffffffffffffffffffffffffffffffff16021790555060408201518160020160006101000a81548173ffffffffffffffffffffffffffffffffffffffff021916908373ffffffffffffffffffffffffffffffffffffffff160217905550905050600e819080600181540180825580915050906001820390600052602060002090600302016000909192909190915060008201518160000160006101000a81548173ffffffffffffffffffffffffffffffffffffffff021916908373ffffffffffffffffffffffffffffffffffffffff16021790555060208201518160010160006101000a81548173ffffffffffffffffffffffffffffffffffffffff021916908373ffffffffffffffffffffffffffffffffffffffff16021790555060408201518160020160006101000a81548173ffffffffffffffffffffffffffffffffffffffff021916908373ffffffffffffffffffffffffffffffffffffffff1602179055505050507fe16f13857e20d75277bc68142c3dc894086fadd3a6ae529caff79fcb9a1e2b6f878787604051808473ffffffffffffffffffffffffffffffffffffffff1673ffffffffffffffffffffffffffffffffffffffff1681526020018373ffffffffffffffffffffffffffffffffffffffff1673ffffffffffffffffffffffffffffffffffffffff1681526020018273ffffffffffffffffffffffffffffffffffffffff1673ffffffffffffffffffffffffffffffffffffffff168152602001935050505060405180910390a150505050505050565b600073ffffffffffffffffffffffffffffffffffffffff16600a60009054906101000a900473ffffffffffffffffffffffffffffffffffffffff1673ffffffffffffffffffffffffffffffffffffffff1614151561267857600080fd5b6001151561268582612984565b151514151561269357600080fd5b80600a60006101000a81548173ffffffffffffffffffffffffffffffffffffffff021916908373ffffffffffffffffffffffffffffffffffffffff1602179055507f2c6fbcbde8226e61bf063b650e50aae5b24ecc56402acbe3a90aac368efeaa3281604051808273ffffffffffffffffffffffffffffffffffffffff1673ffffffffffffffffffffffffffffffffffffffff16815260200191505060405180910390a150565b600582908060018154018082558091505090600182039060005260206000200160009091929091909150555060068190806001815401808255809150509060018203906000526020600020016000909192909190915055507ff443eff8ac478b898d3ca63c443d3de38535f621083d0ab819b789c666b951158282604051808381526020018281526020019250505060405180910390a15050565b8473ffffffffffffffffffffffffffffffffffffffff16846040518082805190602001908083835b60208310151561282257805182526020820191506020810190506020830392506127fd565b6001836020036101000a03801982511681845116808217855250505050505090500191505060405180910390207c010000000000000000000000000000000000000000000000000000000090048484846040518463ffffffff167c010000000000000000000000000000000000000000000000000000000002815260040180848051906020019080838360005b838110156128ca5780820151818401526020810190506128af565b50505050905090810190601f1680156128f75780820380516001836020036101000a031916815260200191505b508373ffffffffffffffffffffffffffffffffffffffff1673ffffffffffffffffffffffffffffffffffffffff16815260200182815260200193505050506000604051808303816000875af192505050505050505050565b6000818301905082811015151561296257fe5b80905092915050565b600082821115151561297957fe5b818303905092915050565b600080823b905060008163ffffffff1611915050919050565b8154818355818111156129c4578183600052602060002091820191016129c39190612a2d565b5b505050565b606060405190810160405280600073ffffffffffffffffffffffffffffffffffffffff168152602001600073ffffffffffffffffffffffffffffffffffffffff168152602001600073ffffffffffffffffffffffffffffffffffffffff1681525090565b612a4f91905b80821115612a4b576000816000905550600101612a33565b5090565b905600a165627a7a72305820271b7b007d5fb2c9aa3de816d5ce6ed99ca84b244e5bc35c5a4d7c9474eb671b0029",
  "source": "pragma solidity 0.4.24;\n\nimport \"contracts/zeppelin/SafeMath.sol\";\nimport \"contracts/utils/Forwarder.sol\";\nimport \"contracts/utils/DateTime.sol\";\n\nimport \"contracts/interfaces/IDAOCoin.sol\";\nimport \"contracts/interfaces/IDAOBond.sol\";\n\nimport \"contracts/interfaces/ITransparentDao.sol\";\nimport \"contracts/interfaces/IFloatMath.sol\";\n\nimport \"contracts/interfaces/IIncomeStatement.sol\";\nimport \"contracts/interfaces/IBalanceSheet.sol\";\nimport \"contracts/interfaces/ICashflowStatement.sol\";\n\ncontract TransparentDao is ITransparentDao, Forwarder {\n\n  using SafeMath for uint256;\n\n  //Constants\n\n  uint256 quarter = 2136 hours;\n  uint256 year = 8544 hours;\n  string fiatRepresentation = \"US DOLLAR\";\n\n  //Structs\n\n  struct Report {\n\n    address income;\n\n    address balance;\n\n    address cashflow;\n\n  }\n\n  //Tax types\n\n  enum TAX_TYPE {NO_TAX, SIMPLE, PROGRESSIVE}\n\n  TAX_TYPE taxT;\n\n  //We can choose to have a simple or progressive tax\n\n  uint256[] latestTax;\n\n  uint256[] incomeThresholds;\n\n  //Financial year indices\n\n  uint256 startOfCurrentYear;\n  uint256 latestReportIssuance;\n\n  //Current coin used to do accounting\n\n  address UOA;\n\n  //Coin which might be issued by the DAO\n\n  IDAOCoin daoCoin;\n\n  IFloatMath floatMath;\n\n  DateTime dateTime;\n\n\n  IDAOBond[] bonds;\n  Report[] reportsArray;\n\n  mapping(uint256 => Report) reports;\n\n  constructor(address _unitOfAccount, address _floatMath,\n              address _daoCoin, address _dateTime) {\n\n    require(_unitOfAccount == address(0) || isContract(_unitOfAccount) == true);\n\n    if (daoCoin != address(0)) daoCoin = IDAOCoin(_daoCoin);\n\n    UOA = _unitOfAccount;\n\n    if (floatMath != address(0)) floatMath = IFloatMath(_floatMath);\n\n    if (dateTime != address(0)) dateTime = DateTime(_dateTime);\n\n  }\n\n  function changeDateTime(address _dateTime) public {\n\n    require(isContract(_dateTime) == true);\n\n    dateTime = DateTime(_dateTime);\n\n  }\n\n  function changeFloatMath(address _float) public {\n\n    require(isContract(_float) == true);\n\n    floatMath = IFloatMath(_float);\n\n    emit ChangedFloatMath(_float);\n\n  }\n\n  function setDaoCoin(address _coin) public {\n\n    require(address(daoCoin) == address(0));\n    require(isContract(_coin) == true);\n\n    daoCoin = IDAOCoin(_coin);\n\n    emit SetDaoCoin(_coin);\n\n  }\n\n  function addTax(uint256 percentage, uint256 threshold) public {\n\n    latestTax.push(percentage);\n\n    incomeThresholds.push(threshold);\n\n    emit AddedTax(percentage, threshold);\n\n  }\n\n  function deleteTax(uint256 position) public {\n\n    require(position < latestTax.length);\n\n    for (uint i = position; i < latestTax.length.sub(1); i++) {\n\n        latestTax[i] = latestTax[i.add(1)];\n        incomeThresholds[i] = incomeThresholds[i.add(1)];\n\n    }\n\n    delete(latestTax[latestTax.length.sub(1)]);\n    delete(incomeThresholds[incomeThresholds.length.sub(1)]);\n\n    latestTax.length--;\n    incomeThresholds.length--;\n\n    emit DeletedTax(position);\n\n  }\n\n  function newBond(address _bond) public {\n\n    require(isContract(_bond) == true);\n\n    IDAOBond newBond = IDAOBond(_bond);\n\n    require(newBond.getNonce() == 0);\n\n    bonds.push(newBond);\n\n    emit NewBond(_bond);\n\n  }\n\n  function startReport(address _income, address _balance, address _cashflow) public {\n\n    require(latestReportIssuance == 0 || now - latestReportIssuance >= quarter);\n\n    IIncomeStatement inc = IIncomeStatement(_income);\n    IBalanceSheet balance = IBalanceSheet(_balance);\n    ICashflowStatement cash = ICashflowStatement(_cashflow);\n\n    require(inc.getDao() == address(this));\n    require(balance.getDao() == address(this));\n    require(cash.getDao() == address(this));\n\n    Report memory newReport = Report(_income, _balance, _cashflow);\n\n    if (latestReportIssuance == 0 || now.sub(startOfCurrentYear) >= year)\n      startOfCurrentYear = now;\n\n    latestReportIssuance = now;\n\n    reports[latestReportIssuance] = newReport;\n\n    reportsArray.push(newReport);\n\n    emit StartedReport(_income, _balance, _cashflow);\n\n  }\n\n  function() payable {}\n\n  //PRIVATE\n\n  function isContract(address _addr) private returns (bool) {\n\n    uint32 size;\n\n    assembly {\n      size := extcodesize(_addr)\n    }\n\n    return (size > 0);\n\n  }\n\n  //GETTERS\n\n  function getUOAAddress() public view returns (address) {\n\n    return UOA;\n\n  }\n\n  function getBondDebt(uint256 startPosition, uint256 bondsNumber) public view returns (uint256) {\n\n    require(startPosition < bonds.length);\n    require(startPosition.add(bondsNumber) < bonds.length);\n\n    uint256 debt = 0;\n    uint256 currentDebt = 0;\n\n    uint256 i = startPosition;\n\n    do {\n\n      currentDebt = bonds[i].getTotalDebt();\n\n      debt = debt.add(currentDebt);\n\n      i++;\n\n    } while (i < startPosition.add(bondsNumber));\n\n    return debt;\n\n  }\n\n  function getBondAddress(uint256 position) public view returns (address) {\n\n    return address(bonds[position]);\n\n  }\n\n  function getMarketPrice() public view returns (int256) {\n\n    return marketPrice;\n\n  }\n\n  function getReportsLength() public view returns (uint256) {\n\n    return reportsArray.length;\n\n  }\n\n  function getReportAtPosition(uint256 position) public view returns (address, address, address) {\n\n    return (reportsArray[position].income, reportsArray[position].balance,\n            reportsArray[position].cashflow);\n\n  }\n\n  function getFloatAddress() public view returns (address) {\n\n    return address(floatMath);\n\n  }\n\n  function getCoinAddress() public view returns (address) {\n\n    return address(daoCoin);\n\n  }\n\n  function getCoinsAmount() public view returns (uint256) {\n\n    uint256 decimals = daoCoin.getDecimals();\n\n    return daoCoin.totalSupply() / 10**decimals;\n\n  }\n\n  function getLatestTax() public view returns (uint256[]) {\n\n    return latestTax;\n\n  }\n\n  function getIncomeThresholds() public view returns (uint256[]) {\n\n    return incomeThresholds;\n\n  }\n\n  function getTaxType() public view returns (uint) {\n\n    if (latestTax.length > 1) return uint(TAX_TYPE.PROGRESSIVE);\n\n    else if (latestTax.length == 1) return uint(TAX_TYPE.SIMPLE);\n\n    return uint(TAX_TYPE.NO_TAX);\n\n  }\n\n}\n",
  "sourcePath": "/home/stefan/Work/TransparentDao/contracts/accounting/dao/TransparentDao.sol",
  "compiler": {
    "name": "solc",
    "version": "0.4.24+commit.e67f0147.Emscripten.clang"
  },
  "schemaVersion": "2.0.1",
  "updatedAt": "2018-12-15T22:13:43.143Z"
}